:020000040800F2
:10000000D00C0020A10100083121000825160008AD
:10001000B5200008530600085D2900080000000014
:10002000000000000000000000000000552400084F
:10003000C9060008000000005321000857240008EA
:10004000BB010008BB010008BB010008BB010008A0
:10005000BB010008BB010008BB010008BB01000890
:10006000BB010008BB010008BB010008BB01000880
:10007000B1060008BD060008BB010008BB0100086E
:10008000BB010008BB010008BB010008BB01000860
:10009000BB010008BB010008BB010008BB01000850
:1000A000BB010008BB010008BB010008BB01000840
:1000B000BB0100080000000000000000BB010008B8
:1000C000BB0100080000000000000000BB010008A8
:1000D00000000000BB010008BB0100080000000098
:1000E000BB010008BB010008000000000000000088
:1000F0000000000000000000000000000000000000
:10010000000000000000000000000000BB0100082B
:100110000000000000000000BB010008BB01000857
:10012000BB010008BB010008BB010008BB010008BF
:10013000BB010008000000000000000000000000FB
:10014000BB010008BB010008BB010008BB0100089F
:10015000BB010008BB010008BB010008BB0100088F
:10016000BB010008BB010008BB0100080000000043
:10017000BB010008BB0100080000000000000000F7
:10018000BB010008BB010008BB010008DFF80CD070
:1001900000F0A2F900480047C9290008D00C00204F
:1001A0000648804706480047FEE7FEE7FEE7FEE711
:1001B000FEE7FEE7FEE7FEE7FEE7FEE7DD240008D8
:1001C0008D0100082DE9F05F0546002092469B4610
:1001D00088460646814640241BE02846414647465D
:1001E000224600F0FAF853465A46C01A914110D3FD
:1001F00011461846224600F0E1F82D1A67EB010877
:100200004F4622460120002100F0D8F817EB0009E4
:100210004E41201EA4F10104DFDC484631462A4647
:10022000434600F000B830BCBDE8C09F2DE9FE4F4A
:10023000804681EA0300C00F0C46009021F0004187
:1002400023F00045B8EB0200A94105D24046214603
:1002500090461C460B46024623F00040104347D010
:10026000270DC7F30A00C3F30A510290401A019008
:1002700040286BDAC3F3130040F4801B00989246C9
:1002800020B10023D2EB030A63EB0B0B0198594614
:10029000C0F14002504600F091F806460D46504627
:1002A0005946019A00F0A9F810EB080061410024BA
:1002B00087EA115284EAE7731A4340D0009A62B386
:1002C000019A012A4FEA075215DC001B61EB02017B
:1002D0004FF0004202EA0752CDE90042001C41F50E
:1002E000801132462B4600F0A9F803B000F045B863
:1002F00040462146F9E7001B61EB0201001C41F575
:10030000801300185B412018A2F5001747EB03018A
:1003100040EAD570B6196D4111E06D084FEA360616
:1003200045EAC0754FEA0752001B61EB0201001C51
:1003300041F5801149084FEA300000195141324619
:100340002B4603B000F01CB800F069B800980122F9
:1003500040000023D0EB020263EBE07300982146DB
:100360004FEAE074B8EB000061EB0401E9E783F0C9
:1003700000435BE781F0004158E730BCBDE8C08F27
:1003800030BCBDE8C04FFFF7DFBF000030B5041E32
:1003900071F1000404DB4FF00044404264EB0101C2
:1003A000141E73F1000405DB1C464FF0004352425B
:1003B00063EB04038B4208BF824230BD202A04DB7A
:1003C000203A00FA02F1002070479140C2F1200368
:1003D00020FA03F3194390407047202A04DB203AA7
:1003E00021FA02F00021704721FA02F3D040C2F155
:1003F00020029140084319467047202A06DBCB179C
:10040000203A41FA02F043EAE07306E041FA02F3CF
:10041000D040C2F12002914008431946704710B500
:10042000141E73F1000408DA401C41F10001921817
:100430005B411A4301D120F0010010BD2DE9F04DC0
:1004400092469B4611B1B1FA81F202E0B0FA80F215
:1004500020329046FFF7B2FF04460F4640EA0A00FA
:1004600041EA0B0153465A46084313D0114653EA5A
:10047000010019D0C8F140025046FFF7AEFF054613
:100480000E46504659464246FFF798FF084305D0AE
:10049000012004E020463946BDE8F08D00200543E8
:1004A00046EAE0762C4337430A986305E40AA0EB5A
:1004B00008000022FD0A44EA47540A3002D5002011
:1004C0000146E9E7010510196941DDE90845001910
:1004D0006941BDE8F04DA2E7064C074D06E0E06833
:1004E00040F0010394E8070098471034AC42F6D37B
:1004F000FFF750FEE08802080089020870B58D18E9
:1005000010F8014B14F0030201D110F8012B231154
:1005100006D110F8013B03E010F8016B01F8016B04
:10052000521EF9D1ABB110F8012B04F00C048A1A59
:100530000C2C03D0A2EB84129B1C08E010F8014B9A
:10054000A2EB0422F8E712F8014B01F8014B5B1E05
:10055000F9D5A942D4D3002070BD70B504464FF040
:10056000904500220221284600F0B6FA204602F00B
:10057000F6F901222021284600F0AEFA00222021BF
:10058000284600F0A9FA01F0FDFE044601220221EE
:10059000284600F0A1FA204670BD70B590B006461E
:1005A00000256C463046FFF7D8FF44F825006D1C47
:1005B0000F2DF7D30020012101E0411C0AE054F87F
:1005C000202054F821309A4203D944F8203044F8CE
:1005D0002120491C0F29F2D3401C0E28EDD3002105
:1005E000052054F82020401C11440A28F9D3052086
:1005F000B1FBF0F010B070BD2DE9F04107461C468C
:1006000015460E462A2001F0DFFBC7F3072001F054
:10061000C3FBF8B201F0C0FBC5F3072001F0BCFB3F
:10062000E8B201F0B9FB2B2001F0CEFBC6F30720A6
:1006300001F0B2FBF0B201F0AFFBC4F3072001F010
:10064000ABFBE0B201F0A8FBBDE8F0412C2001F0CB
:10065000BBBBFEE770B5154C0025211D204601F0FF
:10066000C2FE00B3A4F1200120688A6801259042EF
:1006700001D9801A00E0101A4FF47A7250430A68C8
:100680000A4BB0FBF2F0083318606068CA68904209
:1006900001D9801A00E0101A4FF47A724968504369
:1006A000B0FBF1F05860284670BD00002800002023
:1006B000014800F077B8000088080020014800F0E9
:1006C00071B8000040080020704710B502F0E6F94C
:1006D00008B1002010BD00F003F8012010BD00009B
:1006E00010B54FF6FF74204600F09EFF04484FF40B
:1006F0007841C0E90141BDE8104001F02BBD000088
:10070000380000202DE9FC5F074600251446032031
:100710000E46A0EB44083EE0711B381B894682461A
:1007200001F068F938194946834601F063F9311937
:10073000781BCDE9001001F05DF94946504601F003
:1007400059F9311B8946019801F054F9711958463D
:10075000019101F04FF949467819814601F04AF9B3
:100760004846009901F046F95046019901F042F9D6
:100770006D1CB8F1000F04DA08EB850000F10608E3
:1007800005E0291B08EB810000F10A08641E3119FD
:10079000781901F02FF9A542BEDD00F000B83CBC8D
:1007A000BDE8C09FF0B4016C0C6801680D6890F85A
:1007B000442002F01C06042202FA06F3234211D060
:1007C0006B070FD50B689B0603D40B6823F004035B
:1007D0000B6090F8441001F01C018A40016C4A60E3
:1007E000016B1DE0022303FA06F727424FF0000CCD
:1007F0004FF0010218D0AF0716D50C68A40605D437
:100800000C6824F00A040C6080F8252090F844104D
:1008100001F01C018B40016C4B6080F824C0C16A60
:1008200000291AD0F0BC08470823B340234214D053
:100830002B0712D50B6823F00E030B6090F84410C1
:10084000036C01F01C0102FA01F15960C26380F8E7
:10085000252080F824C0416BE2E7F0BC704700001F
:1008600070B568B12B4C036814212B4AA34209D2FE
:100870002A4C1C44B4FBF1F18900C0E910210BE0C3
:10088000012070BD234C64421C44B4FBF1F189008B
:100890004164204908390164022180F825101C6850
:1008A00047F6F0718C43D0E902152943D0E904568C
:1008B0003543294385692943C5692943056A294385
:1008C000214319608168B1F5804F19D0036C0F2165
:1008D000934202D152F8A83F02E00E4AA0321368B8
:1008E00090F8444004F01C04A1408B43136090F83E
:1008F0004430416803F01C039940136819431160A8
:100900000021C163012280F8252080F824100846C8
:1009100070BD00000804024000000240F8FFFDBF67
:1009200070B5044600F0DEF80546601C00D0641C7B
:1009300000F0D8F8401BA042FAD370BD2DE9F84F63
:10094000DFF870B1002301274FF0030A4FF00F09C1
:100950000BF1040EA7E000BF07FA03F6324070D097
:100960004C68022C01D0122C10D1DC0800EB84085A
:10097000D8F820405D074FEAD56C09FA0CF5AC4376
:100980000D6905FA0CF52543C8F82050D0F8008011
:100990005D0091F804C00AFA05F40CF0030C28EA93
:1009A00004080CFA05FC4CEA080CC0F800C0D1F8A9
:1009B00004C0BCF1010F08D0BCF1020F05D0BCF19E
:1009C000110F02D0BCF1120F16D1D0F808C0D1F827
:1009D0000C802CEA040C08FA05F848EA0C08C0F868
:1009E0000880D0F804C02CEA060C0E79C6F3001675
:1009F0009E4046EA0C064660C668A6438C68AC403A
:100A00003443C4604C68E4004CD52B4C256E45F053
:100A100001052566246E23F0030504F0010400940B
:100A2000264C2E19B4689D074FEA157C09FA0CF57F
:100A3000AC43B0F1904F05D0214DA84204D101251F
:100A400008E02FE0002505E01E4DA84201D1022557
:100A500000E0072505FA0CF52543B560DBF80040FA
:100A60005D464E689443F60300D514432C60DEF8CF
:100A7000004075464E689443B60300D514432C607D
:100A80000C4D08352C684E689443F60200D514438B
:100A90002C60084D0C352C684E689443B60200D586
:100AA00014432C605B1C0A6832FA03F47FF454AFE1
:100AB00000F00AB8000401400010024000000140AC
:100AC000000400480008004818BCBDE8E08F006939
:100AD000084000D0012070470AB1816170478162EF
:100AE00070470000014800687047000000000020C7
:100AF00002480168491C01607047000000000020A6
:100B000010B5032000F088F8002000F005F800F090
:100B100017F8002010BD000010B5044607484FF438
:100B20007A710068B0FBF1F000F009FD0022214667
:100B3000501E00F051F8002010BD000004000020FD
:100B40001E4808B5016E41F001010166016E01F019
:100B500001010091816D41F080518165806D00F04F
:100B600080500090052000F057F8002211466FF0E9
:100B70000B0000F031F8002211466FF00A0000F07F
:100B80002BF8002211466FF0090000F025F8002232
:100B90001146501F00F020F800221146101F00F0EF
:100BA0001BF800221146901E00F016F80022BDE846
:100BB00008401146501E00F00FB80000001002401F
:100BC00000F01F02012191404009800000F1E02067
:100BD000C0F8001170470000F0B40E4B1B680C46C3
:100BE000C3F30223C3F10705042D00D90425191D01
:100BF000072901D2002300E0DB1E012606FA05F1D9
:100C0000491E214099409E40761E16403143F0BC5B
:100C100001F08FBA0CED00E0064900F00702086809
:100C20004FF6FF03184040EA0220034A10430860D1
:100C3000704700000CED00E00000FA051549B0F522
:100C4000007F0868C0F3412009D0022805D0086859
:100C500020F4C06040F480600860002070470128E4
:100C6000FBD0086820F4C06040F4007008600A48B7
:100C70000A4A0068B0FBF2F03222504300E0401E06
:100C800010B14A695205FAD448694005E5D50320F8
:100C900070470000007000400400002040420F0038
:100CA0000248006800F4C060704700000070004017
:100CB0002DE9F0470F46050058D03E4E306800F051
:100CC0000700B84209D2306820F00700384330608E
:100CD000306800F00700B84248D12878364CC00789
:100CE0002CD06868032811D0022812D0216898B14E
:100CF000490500293ADAA16821F003010143A16006
:100D0000FFF7F0FE804641F2883910E02168890142
:100D1000EFE721688903ECE78907EAE7FFF7E2FEDE
:100D2000A0EB0801494502D90320BDE8F087A0687F
:100D3000696800F00C00B0EB810FEFD128788007D4
:100D400005D5A068A96820F0F0000843A0603068CD
:100D500000F00700B8420BD9306820F00700384394
:100D60003060306800F00700B84201D00120DCE7B5
:100D70002878400705D5A068E96820F4E0600843BA
:100D8000A0602878000706D5A068296920F4605083
:100D900040EAC100A06000F03BF8A168074AC1F337
:100DA0000311515CC840064908600020FFF7B4FEFB
:100DB0000020BAE70020024000100240A88202088A
:100DC0000400002001480068704700000400002073
:100DD0000448054900688968044AC1F30221515C4E
:100DE000C84070470400002000100240E88202085A
:100DF0000448054900688968044AC1F3C221515C6E
:100E0000C84070470400002000100240E882020839
:100E100030B52D49002318468A682C4C12F00C0F6F
:100E20004FEA640514D08A68C2F38102032A04D110
:100E3000CA6802F00302012A0AD08A68C2F381025A
:100E4000012A19D08A68C2F38102022A16D016E05C
:100E50000A68120704D4D1F89420C2F3032202E0F6
:100E60000A68C2F303121A4B53F822308A6812F050
:100E70000C0F04D1184602E0204600E028468A689C
:100E8000C2F38102032A1DD1C868CA6800F00300BA
:100E9000C2F30212521C022804D0032805D0B3FB6F
:100EA000F2F004E0B4FBF2F001E0B5FBF2F0CA6846
:100EB000C968C2F306225043C1F34161491C49008D
:100EC000B0FBF1F030BD0000001002400024F4003F
:100ED000B88202082DE9F84304007DD02078FE4D49
:100EE000C0065DD5A86810F00C0F0AD0A0690028D4
:100EF000286873D040F001002860FFF7F3FD064634
:100F000055E02868800702D5A0690028E5D0216A4D
:100F10002868000703D5286800F0F00004E0D5F841
:100F20009400F02202EA1010814216D9084601F01E
:100F3000EBF9002850D1286840F0080028602868A4
:100F4000216A20F0F000084328606868E16920F415
:100F50007F4040EA0120686015E0286840F0080002
:100F600028602868216A20F0F0000843286068683B
:100F7000E16920F47F4040EA01206860206A01F0C6
:100F8000C3F90028D6D1FFF743FFA968D34AC1F3BC
:100F90000311515CC840D24908600020FFF7BCFD36
:100FA0002CE000BFFFF79EFD801B02287ED828683A
:100FB0008007F7D5286840F0080028602868216A73
:100FC00020F0F000084328606868E16920F47F4061
:100FD00040EA0120686011E0B2E0FFE720F0010084
:100FE0002860FFF77FFD064605E000BFFFF77AFDAA
:100FF000801B0228DAD828688007F7D42078C00739
:1010000048D0A868C0F3810002281DD0A868C0F3AA
:101010008100032803D1E868C043800714D06068CA
:10102000B0F5803F17D0B0F5A02F286817D020F476
:1010300080302860286820F4802028606068E0B153
:10104000FFF750FD064614E02868800322D560684B
:10105000002875D01EE0286840F48030EDE740F4A9
:1010600080202860F7E700BFFFF73CFD801B642865
:101070009CD828688003F7D50CE0FFF733FD0646BF
:1010800005E000BFFFF72EFD801B64288ED828687E
:101090008003F7D42078800742D5A868C0F3810088
:1010A000012816D0A868C0F3810000E0CEE0032834
:1010B00004D1E86800F0030002280AD0E0680028A4
:1010C00028681DD040F480702860FFF70BFD0646AD
:1010D0000BE0286840050BD5E0680028B9D007E090
:1010E000FFF700FD801B022884D828684005F7D54B
:1010F0006868217C20F0F85040EA016068600FE0E9
:1011000020F480702860FFF7EDFC064605E000BF84
:10111000FFF7E8FC801B0228AAD828684005F7D40E
:101120002078000729D560690028D5F8940013D0ED
:1011300040F00100C5F89400FFF7D4FC064606E035
:101140001DE100BFFFF7CEFC801B02287ED8D5F83A
:1011500094008007F6D510E020F00100C5F8940057
:10116000FFF7C0FC064604E0FFF7BCFC801B02282A
:101170006CD8D5F894008007F6D42078400761D564
:10118000A86D0026C00008D4A86D40F08050A86566
:10119000A86D012600F08050009052480168C905F2
:1011A00011D40168804641F480710160FFF79AFC18
:1011B000074604E0FFF796FCC01B022846D8D8F883
:1011C0000000C005F6D5A068012815D00528D5F87F
:1011D000900016D020F00100C5F89000D5F89000DE
:1011E00020F00400C5F89000A06841F28838B8B13A
:1011F000FFF778FC07460EE0D5F8900040F00100BC
:10120000F0E740F00400C5F89000F5E7FFF76AFC4E
:10121000C11B41451AD8D5F890008007F6D50CE0DF
:10122000FFF760FC074604E0FFF75CFCC11B41458B
:101230000CD8D5F890008007F6D41EB1A86D20F028
:101240008050A8652078800629D500E089E0606A92
:101250000028D5F8980011D040F00100C5F898009A
:10126000FFF740FC064604E0FFF73CFC801B022829
:101270007DD8D5F898008007F6D510E020F0010061
:10128000C5F89800FFF72EFC064604E0FFF72AFC9D
:10129000801B02286BD8D5F898008007F6D4A06A86
:1012A000C8B1A968C1F38101032968D00228286860
:1012B00020F08070286019D02868000103D4E86805
:1012C00020F00300E860E86807490840E860FFF79D
:1012D00009FC04464EE050E000100240A8820208DB
:1012E0000400002000700040FFFFEEFEFFF7FAFB55
:1012F000064604E0FFF7F6FB801B022837D8286873
:101300008001F7D4206B54F82C1F000110380843DB
:10131000218A1C4A490802EB4151A26841EA022194
:101320000843217D4FF07E42490802EB41610843AA
:10133000217B40EAC160E860286840F08070286046
:10134000E86840F08070E860FFF7CCFB044604E0FA
:10135000FFF7C8FB001B022809D828688001F7D5D1
:101360000BE004E0FFF7BEFB001B022802D90320BC
:10137000BDE8F88328688001F4D40020F8E7012054
:10138000F6E700000000E0FF2DE9F041040005D081
:101390000025A56294F85D0018B107E00120BDE8C2
:1013A000F08184F85C50204600F044F8022384F871
:1013B0005D302068016821F040010160E0684FF471
:1013C000E066B04201D9002101E04FF48051B0F550
:1013D000706F02D0B04200D0A562276B012227B9FE
:1013E000B04201D9236300E02263D4E9010318432A
:1013F000D4E9043633431843238B03F400731843B2
:10140000E3691843236A1843A36A184323681860E2
:10141000636B606AA66918430427E36807EA164607
:1014200033431843084321684860256684F85D20EB
:101430000020B4E72DE9F043064600682D4987B047
:10144000884254D12C48016E41F480510166006EEF
:1014500001A900F480500590E020009002200024B3
:10146000032581E8310005204FF09049049069463A
:101470004846FFF763FA4FF001081520CDE9000850
:101480004746694603954846FFF758FA0122B521B9
:101490004846FFF721FB1A4D1848E5E802071020DF
:1014A000802791C5164845F81449AC61EC612C625F
:1014B000FFF7D6F918B1832112A001F074FA75650F
:1014C000AE620E48164D14382860C5E90184C5E99E
:1014D00003476C61AC61EC6128462C62FFF7C0F9F0
:1014E00018B1942107A001F05EFAB565AE6207B0AD
:1014F000BDE8F0830030014000100240300002409F
:10150000400800202E2E2F5372632F73746D3332D8
:101510006C3478785F68616C5F6D73702E63000067
:10152000880800204FF0E0210428086903D020F04B
:1015300004000861704740F00400FAE7704710B5F6
:10154000401EB0F1807F01D3012010BD4FF0E02498
:1015500060610F21601700F0ECFD0020A061072002
:101560002061002010BD10B5FFF7E8FF10BD10B5D9
:10157000040003D094F8710010B107E0012010BD01
:10158000002084F87000204600F026F8242084F81B
:1015900071002068016821F001010160204601F01E
:1015A00091F80128EBD0606A10B1204600F0F7FFF7
:1015B0002068416821F4904141602068816821F0F1
:1015C0002A0181602068016841F001010160204624
:1015D000BDE8104001F047B800B500680F4987B07A
:1015E000884218D10E48016E41F480410166006EB8
:1015F000694600F4804005904FF4C06000900220DE
:1016000001900020029003200390072004904FF0E7
:101610009040FFF793F907B000BD0000003801408B
:1016200000100240FEE700002DE9F041104F804617
:10163000002208213846FFF74FFA002140F23F13FD
:10164000EF220846FEF7D8FF00254FF4A0760024CD
:10165000404600F085FB641CB442F9D36D1CF02DAC
:10166000F5D33846BDE8F04101220821FFF734BA2E
:10167000000400482DE9FE4F161ACDE900104FF086
:1016800000085D1A47464FF0FF30002E02DD4FF094
:10169000010102E003D14FF000018B4602E08346D6
:1016A000C6F10006002D02DD4FF0010002E003D17B
:1016B0004FF00000824602E08246C5F10005AE42CE
:1016C00001DD344600E02C46601C4FF0000902901A
:1016D00015E000BFDDE9001000F08CF9B0442F44A4
:1016E000A04504DD0198A8EB040858440190A742E6
:1016F00003DD00983F1B5044009009F10109029955
:101700008945E7D900F000B81EBCBDE8E08F0000B5
:1017100008B5054A4B1C491E92680092421C401EA7
:1017200000F004F808BD0000380000202DE9F04763
:101730001F4616460C468046DDF82090FEF75CFFFB
:1017400008E0454603E0484600F00AFB6D1CB54240
:10175000F9D9641CBC42F4D9BDE8F087F0B5A34CBC
:1017600087B0206E40F480502066206E00F48050D8
:101770000590E06C40F00100E064E06C012500F0B1
:1017800001000590B520CDE9000503264FF09047F4
:10179000694603963846FFF7D1F80122B52138464D
:1017A000FFF79AF9E06C40F00200E064E06C904CC6
:1017B00000F0020005900820CDE900056946039677
:1017C0002046FFF7BBF8002208212046FFF784F9E6
:1017D000002201213846FFF77FF900220421384614
:1017E000FFF77AF91420FFF79BF80122042138460D
:1017F000FFF772F91420FFF793F8CF2000F0E4FA16
:10180000002000F0C9FAD92000F0C6FA302000F01C
:10181000C3FAED2000F0D8FA642000F0BDFA0320EE
:1018200000F0BAFA122000F0B7FA812000F0B4FA02
:10183000E82000F0C9FA852000F0AEFA102000F090
:10184000ABFA782000F0A8FACB2000F0BDFA3920DE
:1018500000F0A2FA2C2000F09FFA002000F09CFA81
:10186000342000F099FA022000F096FAF72000F0F8
:10187000ABFA202000F090FAEA2000F0A5FA002050
:1018800000F08AFA002000F087FAC02000F09CFAED
:10189000212000F081FAC12000F096FA122000F019
:1018A0007BFAC52000F090FA322000F075FA3C2057
:1018B00000F072FAC72000F087FAC12000F06CFA3D
:1018C000362000F081FA082000F066FA3A2000F095
:1018D0007BFA552000F060FAB12000F075FA002084
:1018E00000F05AFA182000F057FAB62000F06CFA0F
:1018F0000A2000F051FAA22000F04EFAF22000F087
:1019000063FA002000F048FA262000F05DFA01207A
:1019100000F042FAE02000F057FA0F2000F03CFA05
:10192000202000F039FA1E2000F036FA092000F0DD
:1019300033FA122000F030FA0B2000F02DFA50207C
:1019400000F02AFABA2000F027FA442000F024FA26
:10195000092000F021FA142000F01EFA052000F002
:101960001BFA232000F018FA212000F015FA0020BD
:1019700000F012FAE12000F027FA002000F00CFA43
:10198000192000F009FA192000F006FA002000F0F2
:1019900003FA122000F000FA072000F0FDF92D20D4
:1019A00000F0FAF9282000F0F7F93F2000F0F4F9F0
:1019B000022000F0F1F90A2000F0EEF9082000F012
:1019C000EBF9252000F0E8F92D2000F0E5F90F20D3
:1019D00000F0E2F9112000F0F7F97820FEF7A0FFFF
:1019E000292000F0F1F907B0F0BD0000001002401E
:1019F0000004004810B50B460246FEF7FDFD034803
:101A00008068BDE8104000F0ABB90000380000204D
:101A100010B50B4C08212046FFF759F800280DD1CE
:101A200008214FF09040FFF752F8002806D12046D9
:101A30000122BDE810400821FFF74EB810BD00009C
:101A4000000400482DE9F05F81462B481C4688467B
:101A5000D0F808B0B9F1E00F4CD80846B8F5987F37
:101A600048D8203AD6B200F10F0309F107024146E7
:101A70004846FEF7C1FD2148002C4FF000041FD15D
:101A8000DFF874804FEA000904EB0611002519F80D
:101A90000170F80702D0C8F808B003E0D8F80410C5
:101AA000C8F80810D8F8080000F05AF96D1C7F0833
:101AB000EDB2082DEDD3641CE4B2102CE4D316E093
:101AC0000E4804EB06110025475C08EB040AF807F2
:101AD00004D0514609EB0500FFF78CFF6D1C7F0811
:101AE000EDB2082DF3D3641CE4B2102CE8D3024904
:101AF000C1F808B000F004B838000020F0820208F5
:101B000030BCBDE8C09F00002DE9FF5F0E460446D3
:101B10009A46002208212048FEF7DEFF00202CE034
:101B2000002526E0701E06FB0503601E04FB05026F
:101B300006FB05F104FB05F0FEF75EFD002704FB44
:101B400006F813E0FEF7C1FD20B114480121017031
:101B500000F026B80E9810F817B000EB4700407858
:101B600000F01AF9584600F017F97F1CB845E9DC77
:101B70006D1C5545D6DB09F101000299814688426A
:101B8000CEDB064800210122017004B0082100F0DC
:101B90000AB80148FEF7A0BF000400483800002042
:101BA0003FBCBDE8C09F30BCBDE8C05FFFF7F1BFE0
:101BB0002DE9F04700261D469046894607463446E3
:101BC00021E0281B401EC1B20A2000F05FFFB8FBD5
:101BD000F0F00A21B0FBF1F201FB120026B9691EF8
:101BE0008C4201DA30B101263030C2B207EBC400BA
:101BF000002303E0002307EBC40020224946FFF73F
:101C000021FF641CE4B2AC42DBD3BDE8F0870000E6
:101C10002DE9F0411546124C01F10F0300F10F02BE
:101C2000FEF7EAFC04EB451600250127A4F10C0899
:101C30000024307807FA04F1084202D0D8F80800EE
:101C400001E0D8F8040000F08BF8641CE4B2082C22
:101C5000EFD36D1CEDB2761C202DE9D3BDE8F081E9
:101C6000440000202DE9F047944600FB01F21E4697
:101C7000C2F3C7070B440CEB0002144C314660461C
:101C8000521E5B1E089DFEF7B7FC05FB07460025AC
:101C9000A4F22C494FF0010813E00024317808FA2F
:101CA00004F0014202D0D9F8080001E0D9F804009C
:101CB00000F056F8641CE4B2082CEFD36D1CEDB2B2
:101CC000761CBD42E9D3BDE8F08700006404002023
:101CD0002DE9F04116460D4604464FF498774FF42F
:101CE000784812E0E02C01D900241035BD4204D917
:101CF000002425464046FFF797FC3278002329460A
:101D00002046FFF79FFE0834761C30780028E9D182
:101D1000BDE8F0812DE9F04100EB400100254FF0D6
:101D2000904841F28837C1EBC01609E00024082131
:101D30004046FEF7CCFE70B1641CBC42F7D36D1C6C
:101D4000B5EBC60FF2D3002208210448FEF7C4FE0B
:101D50000020BDE8F0810120FBE7000000040048FE
:101D600070B504464FF09045002201212846FEF749
:101D7000B3FE012210212846FEF7AEFEC4F3072071
:101D800000F03AF8E0B200F037F82846BDE87040BD
:101D900001221146FEF7A0BE70B505464FF09044F3
:101DA000002201212046FEF797FE01221021204645
:101DB000FEF792FE284600F01FF82046BDE870406E
:101DC00001221146FEF788BE70B505464FF09044DB
:101DD000002201212046FEF77FFE0022102120462E
:101DE000FEF77AFE284600F007F82046BDE870406E
:101DF00001221146FEF770BE70B5054600244FF073
:101E00009046002220213046FEF766FE280601D5C6
:101E1000012200E0002280213046FEF75DFE012213
:101E200020213046FEF758FE6806641C050EE4B219
:101E3000082CE6D370BD0000104810B50E490160B3
:101E40004FF48271416000214FF4E062C0E9021258
:101E50000122C0E904125202C0E9062101620722F0
:101E60004162C0E90A12016308214163FFF78CFA5D
:101E7000002800D0FEE710BD0030014064070020BC
:101E80000C4910B50A4AC1E900204FF08050886023
:101E900000200C22C860C1E904028861C8610862A0
:101EA00048620846FFF763FB002800D0FEE710BD3C
:101EB00000380140C80700202DE9F843DFF88C9175
:101EC000002208214846FEF707FE614C4FF6FF70DE
:101ED0004FF47846C4E90106002003462021009013
:101EE00046220846FFF7BEFE012020210090002375
:101EF00066220846FFF7B6FE02202021009000234C
:101F000086220846FFF7AEFE1F20A06051A22321C3
:101F10002820FFF7DDFE54A237210A20FFF7D8FE64
:101F20000323F02237214620FFF742FE50A237213B
:101F30008220FFF7CDFE03234FF4A0723721B42097
:101F4000FFF736FE4B250A204BA22946FFF7C0FEBD
:101F50004A484FF032080523026829464046FFF7F9
:101F600027FE822746A229463846FFF7B1FE45499B
:101F7000AA2005230A682946FFF71AFE5F250A20D2
:101F800041A22946FFF7A4FE4148052329460268DD
:101F90004046FFF70DFE3FA229463846FFF798FE60
:101FA0003E49AA2005230A682946FFF701FE4FF49F
:101FB000FC607823A060F02219460020FFF75AFB4E
:101FC0007923F02219460020FFF754FBF0217820F6
:101FD000A660FFF79DFB0A22F0217820FEF792FB16
:101FE0001422F0217820FEF78DFB1E22F0217820AC
:101FF000FEF788FB2822F0217820FEF783FB3222AF
:10200000F0217820FEF77EFB3C22F0217820FEF7BD
:1020100079FB4622F0217820FEF774FB5022F02154
:102020007820FEF76FFB1EA282213220FFF750FEC0
:1020300005231F4A82219620FFF7BAFD4846BDE8D6
:10204000F84301220821FEF747BD000000040048C4
:1020500038000020322E3820544654205350492056
:102060003234302A333230004C43445F573A000058
:102070004C43445F483A000056583A00080000209C
:1020800056793A000C0000204348583A00000000FE
:10209000100000204348593A0000000014000020BE
:1020A0004A432E59616E672D2D2D2D2D0000000005
:1020B0006A040100FEE7000010B51B4C0022082155
:1020C0002046FEF709FD19494FF6FF7048604FF4AE
:1020D00078408860A0217820FFF71AFB0A22A0210F
:1020E0007820FEF70FFB1E22A0217820FEF70AFBC6
:1020F0003222A0217820FEF705FB4622A02178207D
:10210000FEF700FB5A22A0217820FEF7FBFA6E2290
:10211000A0217820FEF7F6FA20460122BDE8104003
:102120000821FEF7D9BC0000000400483800002058
:1021300070470907090E002806DA00F00F0000F1C9
:10214000E02080F8141D704700F1E02080F80014B2
:10215000704770472DE9F0435B4D4FF090472DEDF0
:102160000A8B81B040F6E4464FF6FF789FED578B1F
:10217000A5F1200408213846FEF7A9FC84ED048B64
:1021800030B19FED549B9FED55CB9FED56AB91E049
:1021900084ED068BFEF75EFA80B354A2FA210A2082
:1021A000FFF796FD0423FA211E202A68FFF700FDA1
:1021B0004FA2FA21B420FFF78BFD0423FA21C82097
:1021C0006A68FFF7F5FC4FF490791F22494600201A
:1021D000FFF71EFD202249461046FFF719FD1D227C
:1021E0004946B020FFF714FD1E224946D020FFF7D4
:1021F0000FFD3548083003C8FFF78AFA2868B0F5A4
:10220000C86F07D26868B04204D94046FFF70CFA9D
:10221000FFF752FE286840F6B8318842AAD96868AC
:10222000B042A7D94046FFF7FFF9FFF745FFA1E706
:1022300084ED068BB0EE4CBAF0EE6CBA23E000BF32
:10224000FEF743FA88B12B490120012308702A4880
:102250001A464FF4A07100680090F020FFF754FC7C
:1022600001B000F04BB8BDE8F083B0EE490AF0EEE3
:10227000690A53EC102B94ED060B51EC100BFDF793
:10228000D5FFC4E9060194ED060B53EC1B2B51EC72
:10229000100BFEF77BF8D3D3B0EE490AF0EE690AD3
:1022A00053EC102B94ED040B51EC100BFDF7BEFF1B
:1022B000C4E9040194ED040B53EC1A2B51EC100B00
:1022C000FEF764F8B4D3CBE728000020000000003C
:1022D00000000000000000000000F03F00000000CF
:1022E000000024400000000000BDEF40583A00000C
:1022F000593A000038000020A62A0008BDEC088BDF
:10230000BDEC02CBFFF7AFBFF8B51C4D064600246D
:10231000A86DC00002D5FEF7C3FC0DE0A86D40F02B
:102320008050A865A86D00F080500090FEF7B8FCC2
:10233000A96D21F08051A965B0F5007F04D0802EF1
:1023400007D94FF003040AE0802E08D9A02E01D847
:1023500004E001D1022402E0702E00D101240848DB
:10236000016821F0070121430160006800F00700C7
:10237000A04201D00120F8BD0020F8BD00100240AD
:102380000020024070B500252C464FF090466400B6
:10239000012220213046FEF79FFB002220213046FB
:1023A000FEF79AFB40213046FEF791FB08B144F05E
:1023B00001046D1CEDB20C2DE9D3204670BD70B543
:1023C00006460D46D020FEF7E8F804469020FEF7BA
:1023D000E4F8642C01D3642801D2002070BD34607D
:1023E0002860012070BD7FB50C460546694602A8ED
:1023F000FFF7E5FF002829D001A903A8FFF7DFFFB9
:10240000002823D0DDE90223934203D803F114000E
:10241000824205D39A421BD802F11400834217D29C
:10242000DDE90001814203D801F11406B04204D372
:1024300088420DD8143081420AD2D0184008286052
:10244000DDE90001084440082060012004B070BDAF
:102450000020FBE7704710B5FEF74AFBBDE81040CF
:10246000FFF781B800B597B00220C1010391102198
:10247000049114210090CDE90C010A900721CDE9C7
:102480000E100B9010906846FEF724FD00B1FEE799
:102490000F2011900320129000201390149015909B
:1024A000042111A8FEF704FC00B1FEE74FF4007010
:1024B000FEF7C4FB00B1FEE7FEF784FC4FF47A712F
:1024C000B0FBF1F0FFF73BF80420FFF72BF80022F8
:1024D0001146501EFEF780FB17B000BD0D48016885
:1024E00041F4700101600C48016841F00101016094
:1024F000002181600268094B1A4002608214C260A8
:10250000026822F48022026081610249C00380399E
:102510000860704788ED00E000100240FFFFF6EA17
:1025200070B5114886B0C16C41F00101C164C06C46
:10253000012500F0010005900220CDE900050324EB
:102540004FF09046694603943046FEF7F7F948206D
:10255000009003940020CDE9010569463046FEF75E
:10256000EDF906B0002070BD0010024010B54FF02C
:102570009044012202212046FEF7AEFA01222021DA
:102580002046FEF7A9FA012280212046FEF7A4FA90
:1025900020460122BDE810402021FEF79DBA90F8A8
:1025A0002410C90706D001684A68836A22F4003201
:1025B0001A434A6090F82410890706D501684A68D2
:1025C000C36A22F480321A434A6090F82410490703
:1025D00006D501684A68036B22F480221A434A60D8
:1025E00090F82410090706D501684A68436B22F465
:1025F00000421A434A6090F82410C90606D50168C3
:102600008A68836B22F480521A438A6090F82410FF
:10261000890606D501688A68C36B22F400521A4302
:102620008A6090F82410490611D501684A68036C45
:1026300022F480121A434A60016CB1F5801F06D162
:1026400001684A68436C22F4C0021A434A6090F859
:102650002410090606D501684A68806C22F400221D
:1026600002434A607047F8B5002604464667FEF705
:1026700039FA0546206800686FF07E47000708D5E4
:102680002B4600224FF400112046009700F034F949
:1026900060B92068006840070AD52B4600224FF435
:1026A00080012046009700F027F908B10320F8BD0B
:1026B000202084F8710084F8720084F87060002093
:1026C000F8BD00002DE9F0410446026880682369E6
:1026D000E6691843636910250027334318437D4991
:1026E00013687D4E33400343136020684268E368FB
:1026F00022F440521A4342602268A0698A4201D003
:10270000236A1843936823F4306303439360734A46
:102710002368734893420DD1D0F8880010F003006D
:1027200006D001282AD0022826D0032829D127E064
:10273000012526E06B4A93420BD1D0F8880010F0B7
:102740000C0017D0042819D0082815D00C2818D14F
:1027500016E08B4215D1D0F8880010F4406009D003
:10276000B0F5806F0AD0B0F5006F05D0B0F5406FBE
:1027700007D105E0002504E0022502E0042500E081
:102780000825594A00264FF400408B423DD135B10F
:10279000022D07D0042D07D0082D10D107E0FEF739
:1027A00017FB03E0104602E0FEF732FBA8B36268B5
:1027B00002EB4201814202D8B0EB023F01D901276E
:1027C00075E0DFF828815DB1022D0CD0042D13D007
:1027D000082DF4D150082905401846F1000105E004
:1027E000FEF7F6FA0AE050084149F5E70023FDF745
:1027F000E9FCA0F5407156E0FEF70AFB6268010EA5
:102800000302500818187141F0E7E1694FF6EF78BC
:1028100081422FD1092DD2D200E048E0DFE805F057
:1028200006092005230505052600C8E7FEF7D0FAAE
:1028300001E0FEF7DDFA4100D4F8040001EB50019D
:10284000B1FBF0F080B2A0F110014145B7D84FF6CE
:10285000F0710140C0F3420001432068C16026E0EE
:1028600024496068EAE7FEF7D3FAE4E74FF48031E1
:102870006068E3E7092DA2D2DFE805F006091E052E
:102880002205050525009AE7FEF7A2FA01E0FEF70A
:10289000AFFA0146606801EB500100BFB1FBF0F0F8
:1028A00080B2A0F11001414589D82168C860266630
:1028B00038466666BDE8F081606802EB5001EDE7DE
:1028C000FEF7A6FAE5E7616800EB5100B0FBF1F016
:1028D000E6E7000000800040F369FFEF00380140A8
:1028E00000100240004400400024F400FFFC0F00F0
:1028F000000024F40048E8012DE9F041984617460D
:102900000E460446069D1DE0681C1BD02DB1FEF747
:10291000E9F8A0EB0800A84214D92068016821F466
:10292000D07101602068816821F001018160202060
:1029300084F8710084F87200002084F8700003208D
:10294000BDE8F0812068C06936EA000004D00020AC
:10295000B842D9D00020F3E70120F9E7FEE770B5CF
:10296000054600244FF09046224620213046FEF7CF
:10297000B3F8002220213046FEF7AEF8280601D534
:10298000012200E0002280213046FEF7A5F8012256
:1029900020213046FEF7A0F86806641C050EE4B25C
:1029A000082CE6D370BDFEE702E008C8121F08C17C
:1029B000002AFAD170477047002001E001C1121FC0
:1029C000002AFBD17047000008B5FEF799F8FFF721
:1029D00049FD022211462320FEF7FEF82648FEF7A5
:1029E00029FDFFF79DFDFFF7C1FDFFF725FAFEF773
:1029F000B5FE2248C16C41F00101C164C16C01F017
:102A000001010091816C41F001018164806C002220
:102A100000F00100009011460C20FEF7DDF80C20BC
:102A2000FEF7CEF8002211460D20FEF7D5F80D2056
:102A3000FEF7C6F8FFF700FA4FF41650FFF720FA3A
:102A40000F490020012308600E494FF6FF701A4617
:102A500008600D4800904FF4A071F020FFF754F883
:102A6000FDF733FEFFF728FAFDF72FFE0A20FFF7E8
:102A700051F9FEF7CDFFF9E764070020001002408E
:102A80003C00002040000020A62A00080246012049
:102A900000E05043491EC9B2FBD2704708214FF0F5
:102AA0009040FEF714B80A63EA5AE95AC95AC95263
:102AB000C952A952A952C952C95AEA5AC952684AB6
:102AC00027424742885288526852474A274A474A13
:102AD000484A474A474A474A474A474A484A685243
:102AE000685268526852674A674A464226422642FE
:102AF000264226424642264205420642464A474A66
:102B0000264A264A474A064A064A0642E541E54120
:102B1000E541E541064AE541E541E5410642064217
:102B2000E541E541E54126420642E541E541E53919
:102B3000E541E5410542E541E541E5410542064201
:102B40000542E541C539E541E541E541E541E5415C
:102B5000E541E539E53906420642064206420642AB
:102B60000642E641E541E641E541E541E539E53921
:102B7000E541E64106420642064226422642064218
:102B80000642E541C539E541E541E541E541E5411B
:102B900006420642064206420642064206420642F5
:102BA000E641E641E54106420642E641E641E641AC
:102BB00006420642264A264A264206420642064265
:102BC000064206420642064206420642274A474A53
:102BD000674A474A474A474A474A474A474A474A4D
:102BE000474A264A0642E6412642264A264A675274
:102BF000A85AA8526752474A8852A85A8852675220
:102C0000674A8852A95A684A684A684AEA5A6C6B05
:102C1000CA5A484AC95AA952A952EA5A2B634B6B5D
:102C20002B63EA5AA952CD7BCD7B2B630B63CE7B02
:102C3000AD736C6B708C0F846C6B8D6BEE7BAD73B6
:102C40000F7CB294D2940F84AE732F84B194508CC5
:102C5000EF7B718C34A5718CD29CB29413A5B6B560
:102C6000B5B595B537C6D6BDB6B554A575ADF6BDE7
:102C700075AD54A558C6B9CE58C6B9D61BDFDAD63D
:102C8000DAD658C633A5C952C952A952A952A95277
:102C9000C952EA5A0A5BA952A952C952C95288526A
:102CA000674A884AA952A95A8852484A474A484A14
:102CB0006852484A474A484A484A474A474A474A60
:102CC000474A274A474A674A674A674A474A464245
:102CD000464246422642264205420642464A464A65
:102CE00026422642464A064A064A064A0642E54126
:102CF000E541E5410642E541E541E541E541E54182
:102D0000E541E541E54106420542E541E539C53980
:102D1000C539E539E541C539C539E539E5410542EA
:102D2000E541E539C539E541E541E541E541E541A3
:102D3000E539E539E539E6410642064206420642F2
:102D400006420642E6410642E641E541E539E539FB
:102D5000E541E541E6410642064206422642064278
:102D60000642E541E539E641E641E541E541E54117
:102D7000E6410642064206420642264226420642F4
:102D800006420642064206420642E641E641E64166
:102D9000064206420642264A264206422642264A63
:102DA000264206420642E541E541E6410642264208
:102DB000264A264A264A474A474A474A674A674AAE
:102DC000474A474A264A0642264A264A264A474A48
:102DD00088526852474A474A675288528852474A3F
:102DE000474A6752885288528952684A8852CA5A5A
:102DF000EA5AEA5A0B63A952A9528952A952A95216
:102E0000C95AA952A952684A6C6BCD7BCE7BCD7B47
:102E10000B630B63708CEE7B4C6B6D6BCE738D6BA9
:102E2000CE7330842F84EF7BAE73CE7B708C919405
:102E300030840F84718CB6B5D29C508CD294F39CA4
:102E400030840F84D29434A5D6B5D6B5B5B5B5AD1A
:102E500034A5139DB5B558C6F6B538C6B9D6B9D69A
:102E6000DAD6DAD658C60A630A630A5BE95AA95267
:102E7000A952C952E95AC95AA952A952C952A952CA
:102E80008852A952C95AC95A88526852484A685247
:102E900068526852474A474A474A474A274A274A98
:102EA000274A274A274A2642464246424642464247
:102EB000464226420642064206420642264A264A22
:102EC00026420642264A264A264A064A0642E54144
:102ED000E541E541E641C541C541E541E641E641FF
:102EE000E641E641E6410542E541E541E539C539BE
:102EF000C539C539C439C439C439C539C539E541BD
:102F0000E541C539C539E541E541E541E539E539F1
:102F1000E539C539C539E541E54106420642064273
:102F200006420642064206420642E541E541E539CF
:102F3000E539E541E541E6410642064206420642E0
:102F400006420642E64106420642E641E541E541C7
:102F5000E541E641E64106420642264A264A264A1D
:102F6000264A264A26420642064206420642E641D2
:102F7000064206420642264226422642264A274A60
:102F8000264A06420642E641E641E641E641E6417E
:102F9000064206420642264A264A474A474A474AC6
:102FA000474A474A274A274A474A264A2642264A44
:102FB000474A474A264A264A474A67526752474A7B
:102FC000274A474A68526852684A8852684A484ABB
:102FD000C95A2B63EA5A0B63EA5ACA5AC95AC95AE0
:102FE000C95AC95AA9522742C95AEA5A4B6BAD73FA
:102FF0002B63EA5A8C730E7C8C6B6C6B8D6B8D6BB8
:10300000CE730F7CCE73CE7B8D732C63AE73919495
:103010005084AE730F84308454ADD6B5D29C0F84E7
:10302000B29413A5718CB194139DF29CD29434A5E3
:1030300074AD139DD29495AD139D54ADF7BD38C6B4
:1030400099CEDADEDADE6C6B8C6B8C6B4B630A5BD1
:10305000C952C952C95A0A5BC95AC952C95AC95A2E
:10306000A952A952A952C95A89526852484A68526B
:1030700068526852474A274A274A274A274A274A16
:10308000474A474A474A2642264246424642464225
:10309000264226420642264226422642264A264A00
:1030A000264A2642264A264A264A264A0642E64119
:1030B000E541E541E541C539C541C541E541E54148
:1030C000E641E641E641E541E541E541E541E539D5
:1030D000C539C439A439A439A439A439C539E5415D
:1030E000E541E539C539E539E539E539E539C53928
:1030F000C539C539C539C539E539E541E641064225
:1031000006420642064206420642E641E541E539EC
:10311000C539C539C539E541E54106420642064291
:10312000064206420642064206420642E641E541A2
:10313000E541E541E541064206422642264A274A44
:10314000274A264A264A264A264A26420642064256
:1031500006420642064206420642264A274A474A95
:10316000274A0642064226422642064206420642B6
:10317000064206422642064206420642264A264A9F
:10318000264A264A264A474A474A264A2642264A85
:10319000274A274A274A264A474A474A474A274A48
:1031A000264A474A6852474A27428852A95227422C
:1031B000684AC95A8852CA5AEA5AEA5A0B632B63B8
:1031C0002B630B630B630A63A9520642474A4B6B9E
:1031D0006C6B0A5B0A5BEE7B8D6B2B630B5B2B636B
:1031E000AD6BEE7BCE7B8D738D73CA5A0B632F84D0
:1031F0000F84AD7330842B638D73F29C75ADB294E4
:10320000718CF29CF39C54A534A5F29CD29413A526
:1032100074AD33A5F29CF39C918CB19474ADF6BD62
:1032200037C658C679CE2B636C6B8C6B8C6B6C6B12
:103230004B632B632B630A63CA5AC952EA5AEA5A90
:10324000CA5AC952CA5AC95A89526852684A6852F7
:1032500068526852484A474A474A484A484A484A90
:10326000484A684A684A474A674A474A4742474283
:103270004742474247422642264A274A264A264A8A
:10328000264A264A26422642264A264A064206421E
:10329000E541E539E541C539C539C539E539E54186
:1032A000E541E6410642E641E641E641E541E539D0
:1032B000C539C539C539C539A539A539C539E5393E
:1032C000E541E541C539E539C539C539C539C5399E
:1032D000C539C539C539C539C539C539E539E541B6
:1032E000E64106420642E641E641E641E541E54166
:1032F000C539C539C539E539E541E54106420642DA
:10330000064206420642064206420642E641E541C0
:10331000E541E541E541E541E641064206422642F6
:10332000264A26422642274A274A264A264A264233
:10333000064206420642064206422642264A474ABC
:10334000274A06420642274A274A264A264206427A
:10335000064206422642E64106420642064226420E
:10336000264A264A264A474A274A264A264A264ABB
:10337000264A474A474A264A474A474A474A474A07
:10338000274A474A474A474AE639474AC95A474AB5
:10339000274268526852474A684A8852A95AEA5AEC
:1033A0000A632B632B6B2B6B0A63C95AA95AEA5A1F
:1033B000EA5AEA5A2B638D736C6BEA5AA9520B5B7B
:1033C0006C6B8D6B6C6B4C638D730B5BEA5AAE73DD
:1033D000AD736D6B30840F844C6BCE73D29CF39CB9
:1033E000D29491942F84708C918CD29CF29CB19445
:1033F000B19454A5D6B5139DB194718CF29C95B53A
:10340000D6BDF6BD17C62B634B6B6C6B8C6B8C6B90
:103410006C6B4C6B4B630A5BEA5ACA5AEA5A0A5BFA
:103420000A5B0A5B0B63CA5AA952685268528852F7
:10343000895288526852685268526852685268527B
:10344000684A484A684A474A474A474246422742EA
:103450002642264226422742474A474A2642274AD0
:10346000264A274A064206422642264A2642064263
:10347000E541E541E541C539C539C539C539C539E4
:10348000E539E541E641E541E541E541E539E53923
:10349000C539C539C539C539C539A539C539C5395C
:1034A000E539C539C539C539C539C539C539C5390C
:1034B000C539C539C539C539C539C539C539C5391C
:1034C000E539E541E641E541E541E541E541E541D3
:1034D000E539C539C539C539C539E539E541E5416C
:1034E000064206420642064206420642E641E541DF
:1034F000E541E541E541E541E541E6410642064257
:10350000064206420642264A264A264A264A264AB3
:103510000642064206420642064206422642264A23
:10352000264A064206422642264A274A26420642A2
:10353000E54106420642064206422642264A264AFD
:10354000274A474A474A264A264A264A474A474A76
:10355000264A474A6752264A474A474A474A474AFD
:10356000474A474A474A8852E641064288526852CB
:103570002742684AC95A88526852684A474A474AA5
:10358000684A8852C95AA95AC95A0A630A63EA5A48
:10359000C95AC95AC95A0B636C6B2B63EA5A4C63FC
:1035A0006D6B2B63EB5AEA5A6C6B4C6B4C638D73EF
:1035B0006C6B2B638D6B508C2F84EF7BCE7B2F84B9
:1035C000F39C13A5508C0F7CEE7B708CD294708C86
:1035D0002F84918CD294139DD29450845084F29C69
:1035E00054A574ADD6B5AD738C6B6C6B6C6B6C6B9A
:1035F0006C6B4B630B632B630A630A632B632B6354
:103600000A632B634B63CA5AA95A89528952A95239
:10361000A95AA95AA95289528952885268526852A5
:1036200068526852684A474A474A674A474A474287
:103630002742064206420642274A274A06420642D7
:1036400006420642E641064206420642064206425B
:10365000E641E641E641C539C539C539C539C539FF
:10366000C539C539E641E539C539C539C539C53921
:10367000C539C539E539C539A539A439A439C5399C
:10368000C539C539A539C539C539C539C539C5396A
:10369000C539C539C539A539A539A439A439A539DC
:1036A000C539C539E539C539E539E541E541E54172
:1036B000E541C539C539C539C539C539C539E539D2
:1036C000E541E541E64106420642E641E541E54184
:1036D000E541E541E54106420642E641E541E54175
:1036E000064206422642064206422642264226421A
:1036F000064206420642064206420642064206428A
:103700002642064206420642264A474A264A0642C0
:10371000E541E6410642264A264A264A264A264AE4
:10372000274A474A474A26420642264A474A274AE4
:1037300006420642474A264A274A274A274A274A34
:10374000274A474A474A6852474A2642274A684A10
:10375000474A474A8852C95AA95A8852474A274273
:103760002742474A684A8852474A6852A95AC95A62
:10377000EA5AC95A474AA9528C6B4C6BEA5A6C6B8D
:103780008D732B630A5BCA5A0B634C6B6D6B8D7325
:103790006D6B0B63CA5ACE7B6C6B2C638D73EE7BA7
:1037A000AD73EF7BF39C33A5D294D29CF39CB19480
:1037B0009194508C8D73718CD29C508CEE7B508C7C
:1037C000B194D29413A5CD7B8C734C6B4C6B6C6B0A
:1037D0008C736C6B4B636C6B4B6B4B6B4B6B2B63DE
:1037E0000A630B634B63EA5AC95AA952A952A95AF0
:1037F000CA5ACA5AC95A685268526852685288529C
:103800008952895289528952A952A952C952A95240
:10381000884A474A27420642274227420642E64153
:103820000642E641C539E6410642064206420642E4
:10383000E641E641E641E641C539C539C539C539F4
:10384000C539C539C539C539C539A539A439A439EA
:10385000C539C539E541C539A439A431A431A439E4
:10386000A439A439A439C539C539C539C539C539CB
:10387000C539C539C539A539A439A439A431A43904
:10388000A539C539C539C539C539E539E541E541F8
:10389000E541E539C539C539C539C539C539C539F0
:1038A000C539E541E54106420642E641E541E541CB
:1038B000E541E641E64126420642E641E541E54171
:1038C00006420642264AE6410642064206420642B1
:1038D0000642E641E5410642E641E541E64106424F
:1038E0000642064206420642274A474A474A0642DD
:1038F0000642064206422642264206420642064248
:103900002642264A264A06420642264A474A264A6E
:10391000E641E641264A264A264A264A264A264AB9
:10392000264A274A274A274AA852474AE641684A70
:10393000684A06420642274A474A685288526852F5
:103940006852885288528852274A474A474A474A0B
:10395000C95A0A63EA5A684A4B6B2B63A9522B6314
:103960006C6B2B632B63EA5ACA5A0B634C6B6D6BFF
:10397000AD734C6B894A2B630F7CAD730B5BAD73DE
:103980005084CE7B4C6B8D6BCE7B9194B194718CBB
:1039900033A5B5B5139DEF7BF29CB2940F7C2F84B9
:1039A000508C508C9194CE7BCE7BAD736C6B6C6BDA
:1039B0006C6B8D6B6C6B6C6B2B632B636C6B4C6BE0
:1039C0002B632B634C6B2B632B630B63EA5AEA5A12
:1039D0000B630B63EA5AA9528952A952A952895220
:1039E000684A8952C95A8952684A474A474A684AC6
:1039F000884A8852684A6852684A474A27420742BA
:103A0000E641E641E641064206420642E539E6392C
:103A10000642E641A5390642C539C539E641E641C7
:103A2000C539C539C539C539C539C539C539A539C6
:103A3000A539A539A539A539A53984318431A539E8
:103A4000A539A539A539A439C539E539E539C539C7
:103A5000C539C539C539C539A43984318431A53949
:103A6000C539A4398431A439A539C539C539E539F1
:103A7000E539C539C539E541E539C539C539C539EE
:103A8000C539E541E641E539E64106420642E541F0
:103A9000E539E539E541E541E541E539E539E5391E
:103AA000E541E541E641064206420642064206423B
:103AB0000642E641E541E541E541E541E539E541BB
:103AC000E6410642064206422642264A264A264247
:103AD000064206420642E641E641064206420642E8
:103AE0002642264A264A274A274A274A274A274A59
:103AF000264A26420642474A474A274A274A274A31
:103B0000274A474A474A274A274A274A274A474ACD
:103B1000474A274A274A274A0642274A8852A95A2B
:103B20006852474A474A474A674A6852474A474A9B
:103B30006852A952EA5A4B6BA952EA5A0A63A9522F
:103B40002B638D6B8952CA52CA5AEA5A0B636C6B4B
:103B5000AD734C63A9522B63AD73CE734C632B636F
:103B6000CE7B508C708CEE7BAD73AD73CE738D734A
:103B70008D73308433A5B294919491949194708C08
:103B80000F7CAE73AD73EE7B0F7CEE7BCE73AD73AB
:103B9000CE7BCE7BAD738D736C6B4C6B4C6B4C637F
:103BA0000B630B634C636C6B6C6B2B63EA5AEA5AC6
:103BB0000B630B630B63EA5ACA5AA952CA5ACA5A10
:103BC000A9528952A952A9528952884A684A684A18
:103BD000684A684A684A684A484A474A274A274A18
:103BE0000742074207420642274227420642E63979
:103BF000E6410642E539E641C539C539E6410642A6
:103C0000C539C539C539C539C539C539C539C539C4
:103C1000A539A539A539A539A539A539A5398431DD
:103C2000843184318431A431A539C539C539C539C8
:103C3000A439A439A539A539A439A431A431A439AA
:103C4000A439A4318431A439A539C539C539E53938
:103C5000E539C539C539E541C539C539C539C5392C
:103C6000C539C539E539C539E54106420642E54160
:103C7000E539E541E541E541E541E541E539E5392C
:103C8000E539E541E5410642064226422642264202
:103C90002642064206420642E641E541E541E5414B
:103CA000E6410642064206420642064226420642D5
:103CB00006420642E64106420642064206420642E5
:103CC00006422642264A264A274A274A274A274AA0
:103CD000264A26422642264A2642064206420642F4
:103CE00006422642264A274A0642274A274A274AA8
:103CF000274A274A0642474A274A274A6852885293
:103D00006852474A68526752674A474A474A474A91
:103D1000474A474A474A8852684A0A632B63684AB7
:103D2000CA5A6C6BEA5AA952CA52CA5A0B5B4C6304
:103D30006C6B2B63A952A9524C6BCE7B8D730B63BA
:103D40002B63AD732F840F84AE73AE733084919464
:103D5000508CEF7BAE7330849194D29491943084E4
:103D6000EF7BAE736C6BCE7BEF7B0F7CEE7BEE7BE1
:103D70000F7CEF7BCE7BEE7BAE738D6B6D6B4C6BF4
:103D80002C634C634C6BAE73AD736D6B2C632B6308
:103D90004C634C632B634C630B5BCA5AEA5AEB5A75
:103DA000CA5AA9528952CA52CA52A952A952894A18
:103DB000684A684A684A484A484A484A484A284A33
:103DC000284A284A474A0642274A474A2742E641A4
:103DD000E639E641E6410642E641C539E639E639CB
:103DE000C539C539C539A539C539C539C539C53903
:103DF000A539A539A539A539A539A539A539A539D3
:103E000084318431643184318431A539C539A43990
:103E1000A43184318431A439A439A439A439A4311A
:103E200084318431A439A439A539C539C539C53996
:103E3000C539C539C539E539C539C539A539A439B3
:103E4000A439C539C539C539C539E541E541E5412B
:103E5000E539E541E541E641E641E541E539C53968
:103E6000C539C539E5390642064206422642264A88
:103E7000264A264226420642064206420642E641BB
:103E800006420642064206420642064206420642F2
:103E900006420642064206420642064206420642E2
:103EA000064206420642264A264A264A274A264A09
:103EB000264A264A2642264206420642E641E64174
:103EC000064206422642264A264A2642264A264AD2
:103ED000264A264206426752474A264A474A474AE6
:103EE000474A67528852A85A88528852885AA85A14
:103EF000A8526852274A2742274AC95AEA5A484ACA
:103F000089522B630A5B8852A952CA5AEA5A0A5B41
:103F10000B63EA5AC952C95AEA5A2B636C6B6C6B31
:103F20004B632B634C6B718C3084CE7BAE73CE7B3A
:103F30000F849194D29CB2948D738D73F3A475AD5C
:103F4000508C6C6B8D73AE73EE7B0F840F840F847B
:103F50002F840F84EF7B0F84EF7BCE7BCE73AD730A
:103F60008D738D738D73CE73CE73AD736D6B6C6B00
:103F70006D6B6C6B4C634C6B2B630B632B632B6314
:103F8000EB5ACA52AA52CA5AEA5AEA5ACA5AA95209
:103F9000894A89528952684A684A484A484A484A7E
:103FA000484A484A484A0742274A274A274206427F
:103FB000E639C539C539274A0642C539A539A53973
:103FC000A539C539C539C539C539C539A539A53961
:103FD000A539A5398431A539A539C539C539C539BA
:103FE000A5398431843184318431A439A539A43987
:103FF000A431843184318431A439C539A439843160
:1040000084318431A439A439A439A539C539C539D5
:10401000C539C539C539C539C539A539A439A4311A
:10402000A431A431A439A439A539C539C539C53954
:10403000E539E541E5410642E641E541E539C53965
:10404000C539C539C539C539E539E54106420642A4
:1040500006420642064226422642064206420642E0
:104060000642E641E6410642064206422642264212
:10407000264206420642264A264206420642064298
:1040800006420642064226422642264A264A264A38
:10409000264A264A264A274A264A06420642064217
:1040A0000642264A274A474A264A264A264A264A96
:1040B000264A26420642474A274A264A264A264A8E
:1040C000474A474A67528852885AA85AC95AE95AF1
:1040D000E962C95AA95A684A2742684A8852684A16
:1040E000A9520A63C952884AA952CA5ACA5AC95A15
:1040F000C952C95AC95A0A5BCA5ACA5A0B636C6B6D
:104100008C6B4B63EA5A8D73EF7B2F84EE7B8D7340
:104110006D6B6D6B6D73EE7BEF7BAE738D73508C3F
:1041200013A5718C4C6BEE7B0F84308430845084EB
:10413000508C508C2F840F7C0F840F840F7CEF7B6E
:10414000EE7BCE7BAE73AD73AE73CE73AD73AD73DA
:10415000AE738D736C6B4C6B4C6B6C6B6D6B4C6B93
:104160000B5BEB5A0B63EA5A0B5B0B630B5BCA5A94
:10417000CA52CA5ACA5A89528952895289526952B4
:104180006952484A484A484A27422742274227421A
:10419000E63985314429A531A531A531A531C53987
:1041A000C639C639A539C539C539C539A539A5397D
:1041B00085318431843184318531A539A539A539DA
:1041C000A539A539843184318431A439A439A5397C
:1041D000A439843184318431A439C539A439843176
:1041E00084318431A439A439A439A439A439A43937
:1041F000A539C539C539C539C539A439A439A4315A
:104200008431843184318431A431A439C539C5392C
:10421000C539C539C5390642E641E541C539C53913
:10422000C539C539C539C539C539E539E54106420C
:1042300006420642064226422642064206420642FE
:104240000642E641E541064206422642264A264A01
:10425000264A264A2642264A264A2642064206423E
:104260000642E641E641064206422642264A264AE0
:10427000264A264A264A474A274A264A26422642AC
:10428000264A274A474A474A274A264A264A274A69
:10429000274A264A064A064A264A264A064A064A1D
:1042A000264A264A264A064A264A475267526852F2
:1042B0008852A95AC95AA852684A684A6852684A34
:1042C0008852C95AC95A8852A952CA5ACA5AA952B6
:1042D000A952A952EA5AA9522B634B63EA5AC9520E
:1042E0002B636C6B4C6B0B634C6BAE73EF7B0F846F
:1042F0000F84AE732C6BAD7330840F844C6B0B63E7
:10430000CE7B508C3084EF7B0F842F842F842F84BE
:10431000508C508C2F84EE7B0F842F840F840F845D
:104320000F84EF7BCE7BAD73CE73CE7BCE7BCE7B0B
:10433000EE7BCE7B8D734C6B6D6BAD73AE738D6B03
:104340002C632B634C6B0B632B632B630B630B6333
:104350000B5B0B630B63CA5ACA5ACA5AAA5AAA5AA7
:104360008952695269528952484A2742474A474A04
:10437000E6394429E218C118022144298531C5399A
:10438000E639C639A531E641C639C539C539A53939
:10439000A53984318431643184318431853185316A
:1043A000853184318431A539A431A431A439A439AB
:1043B000A439A43984318431A439A439A431843195
:1043C0008431843184318431843184318431843145
:1043D000A431A439A539A439A439A439A439A43104
:1043E000A43184318431843184318431A439C53994
:1043F000C539C539C539E541E541E539C539C5395D
:10440000C539C539C539C539C539E541E641064221
:10441000064206420642064206420642064206425C
:10442000E641E541E541E641064206422642264A8A
:10443000264A264A264A264A264A26420642064254
:104440000642E641E641064206420642264A264A1E
:10445000264A264A264A264A264A264A264A264ADC
:10446000264A264A264A474A274A264A264A274AA9
:10447000274A274A264A0642264A274A264A064A01
:10448000064A264A06420642264A264A264A264A1C
:10449000274A6852885268528852A95A8852474A15
:1044A0002742684AEA5AA952A952C95ACA5AA95275
:1044B0008852A952CA5AA9522B630B63884A684A88
:1044C0002B636C6B2B632C634C6B6C6B4C6B4C6B6E
:1044D0008D730F849194508CAE7BEF7BB194508C94
:1044E0006C6B6D73718C0F842F842F840F7C0F7C09
:1044F0002F8430842F840F84308430842F840F8461
:104500002F840F84EF7BCE7BEE7BEE7BCE7BEE7B2E
:104510000F7CEF7BCE7BAD73AD73CE7BEE7BCE7B22
:104520008D736C6B6C6B6D6B4C6B2C632C632C63A1
:104530002C632C632C63EB62EB62EB62EB62EB624D
:10454000CA5AAA5AAA5AA95A684A684A8852484A6C
:10455000A5310321C1188010A110E21802214329BE
:10456000A531C539A531E641E641E641C639C5392F
:10457000C539C539C53985318531853185318531B3
:10458000843184318431A539A43184318431A4311A
:10459000A439A439A431A439A43184318431A4319B
:1045A000A431843184318431843164316431843183
:1045B00084318431A439A439A439A439A439A43963
:1045C000A439A431A431843184318431A431A53992
:1045D000C539A539A431E539E539C539C539C539F4
:1045E000C539C539E539C539C539C539E541E5416B
:1045F000E541E541E541E641064206420642064202
:10460000E641E541E539E539E541E6410642064244
:10461000064206420642264A264A0642064206420A
:104620000642064206420642064206422642264A02
:10463000264A274A274A2642264A264A274A274AFE
:10464000264A264A2642264A264A064A064A264A32
:10465000264A264A264A064A474A474A264A0642E0
:10466000264A264A064A475247524752474A474A2D
:10467000474A474A6752474A685288528852885286
:10468000474A684AC95AA952A952C952CA5AA95294
:10469000884A884AC9520A5B0A5BA952684AA952E9
:1046A0000A632B63EA5ACA5A2C6BAD73AE7B0B6359
:1046B000695289520B636D73EF830F84EF83308CE3
:1046C0009194308C6C6B708C708C50842F842F8400
:1046D0005084508C508C508C708C508C2F842F8434
:1046E000508450840F840F840F84EF7BCE7BCE7B6D
:1046F0000F840F84EF7BEF7BCE7BCE7B0F840F8408
:10470000CE7B8D6B4C6BAD736D6B4C632C634C6BC4
:104710004C6B4C6B2C6B2C632C632C6B2C6B0B63DA
:10472000EB62EB62EA5AA952A952A952A952484A2D
:104730008531E218A110C218A11081104008A11003
:104740002321A531C539C639E639E639E641E641C6
:10475000E64106420642C539C539C539A539A539EC
:10476000A531A531A531A539853164316431843154
:104770008431A5398431A539843184318431A43917
:10478000A43984316331643163316331633163311E
:10479000843184318431A431A431A439A439A439B9
:1047A000A439A439A4398431843184318431A439C1
:1047B000C539A4398431C539C539C539C539C53973
:1047C000C539E539E541A439A439C539C539C539F3
:1047D000C539C539C539E541E541064206420642BB
:1047E000E641E541E539C539C539E541E6410642CD
:1047F000064206420642264A264206420642064231
:10480000064206420642E641064206422642264A41
:10481000274A274A274A264A264A474A474A474AB2
:10482000474A264A264A264A064A06420642064A77
:10483000264A264A264A264A67524752064A0642CE
:10484000264A474A264A8852675247524752685278
:104850006852674A474A474A274A0642474AEA5A3D
:10486000C95A684A684AA9528852A952C95AA952D3
:10487000684A684AA952A952EA5A2B630A638852C5
:10488000684AA9522B63EA5ACA5A2B63CE7B0F841B
:104890008D732B632B630B632C6B0B63EA5A0B63D7
:1048A000AE73308C508C50847084918C918C508479
:1048B0000F7C308491949194918C918C718C718C3B
:1048C000718C718C718C508C30840F840F840F84A8
:1048D0000F840F840F842F840F840F7C0F840F8428
:1048E0000F7CCE7BAE73CE73AE73AD738D738D7351
:1048F0008D738D738D738D738D6B6D6B4C6B4C6B7A
:104900002C632B630B630B63AA52A952CA5A684AE1
:104910006529C218A210A110A11081108110A11048
:10492000C210E218E3188431A531E6390642E639AF
:10493000E63906422742E639E639E639E639C5392D
:10494000C539A531C53965318539A639A639A639A4
:10495000A53985316431A5396431643184318431BC
:1049600063316331A4398439843163316331633114
:104970008431843184398431843184318439843977
:10498000A439A439A439833184318431A431A431C8
:10499000A431A431A431A439C539E539C539A439C4
:1049A000A439C439E539A539C539C539A539A4397A
:1049B000A439A539C539E54106422642274A274A86
:1049C000264A0642E641E539C539C539C539E541CA
:1049D00006420642264206422642264A264A064207
:1049E00006420642264A064206420642064206425F
:1049F000264A474A474A06422642264A264A264A25
:104A000006420642064206420642264A264A274AED
:104A1000474A474A474A264A474A674A474A264A30
:104A20002642264A474A264A67528852474A474AF8
:104A3000474A674A474A264A264A274A474A474A30
:104A400068528852A9526852684AA852EA62E95AE2
:104A50006852674AA852A952C95AC95AA95A8852D3
:104A60008852A95AE95AA95AA95AA95AEA626C73F2
:104A7000CE7BAD732B636C6B8D73CE7BCE7BAD73B6
:104A80008D738D73AE735084B18CD294918C3084BD
:104A90005084708C708C50845084508C508C708CEE
:104AA000718C918C9194508C50842F840F840F843E
:104AB0000F840F840F7C0F843084508C30840F84DB
:104AC000EE7BEE7BEF7B0F84EE7BCE7BAE73AD7324
:104AD0008D738D738D738D738D738D738D6B6D6B06
:104AE0004C6B4C6B4C632C63EB5ACA5ACA5A484AFB
:104AF0006429C218C218C218C210A210A210A210B3
:104B0000A210C218C218E2184321A531E639274283
:104B1000274227420742E639E639E639063A074294
:104B20000642E639A531A639A639C641C641A6399D
:104B3000853965316431E641A539A439A439A439F0
:104B40008331A439C43984318431633163316331B1
:104B500063318431843984318431843984398439AE
:104B6000A439A439A439843184318431A431A431E5
:104B7000A431843184318431A439C539C539A4398B
:104B8000A439C439C539A539A539A539A439A439F9
:104B9000A439A539C539E541E64106420642064237
:104BA000064206420642E641E541E541E539E5397E
:104BB000E541E641064206422642264A2642064290
:104BC00006420642264A0642E641E641E6410642E0
:104BD0000642264A264A274A274A474A474A474A18
:104BE000474A274A274A0642064226422642264A82
:104BF000264A274A274A264A474A6752674A274A87
:104C0000264A264A474A264A67526852474A474A2E
:104C1000675268526752885268526752674A674AB9
:104C2000474A474A474A6852674A8852E95AC95A26
:104C300068526752A85AA85AC95AC95AA95AA852BA
:104C4000A852C95AEA62C95AC95AA95AA95AEA6263
:104C50004B6B8C736C6B0A632B636C6B8D6B8D73FE
:104C6000AD73CE73EE7B5084F294139D918C50847F
:104C7000918C918C5084718C718C718C718C718C35
:104C8000708C708C508C708C508C508C5084308414
:104C90002F840F84EF7B0F84508C9194708C0F8441
:104CA000EE7B0F843084508C30840F7CCE7BCE7BA7
:104CB000AE73AD738D73AD73AD73AD73AD73AD7313
:104CC0008D736D6B6D6B6D6B2C630B63CA5A2742D2
:104CD0004421C218E318E318E218C218A210A21067
:104CE000A210A210A210A110C11003218429E6393C
:104CF0002742274227422742063AE639E639274229
:104D00002742063AC639E741C741C741C641A639DD
:104D1000A53985398439E641C539A439A43984399E
:104D200083318331A43984318431843163316331F7
:104D300084318431843184318431843984398439B3
:104D4000A439A439A439843184318431A431843123
:104D500084318431843184318431A439A439A4313B
:104D6000A431A539C539A539A539A439A439A4393F
:104D7000A439A539A539E539E539C539C539C53964
:104D8000E539E541E64106420642E641E541E539BD
:104D9000C539C539C539E6410642264A264206428A
:104DA00006420642264A0642E641E541E541E54122
:104DB000E64106420642274A274A474A474A474AA7
:104DC000474A474A474A264A264A26420642064258
:104DD0002642264A264A474A675268526752474A3D
:104DE000274A274A474A264A474A6752474A474A74
:104DF000675288526852A85AA852885288526752FD
:104E0000474A474A264A6852474A6852A95AA85A06
:104E100068528852A95AC95AC95AC95AA85A8852B6
:104E20008852A95AE95AC95AEA62EA62C95AA95A81
:104E3000EA624B6B8C732B632B632B630B630B63EB
:104E40000B630B632B63918C139D139DB194708C3A
:104E5000918CB18C718CB194B194B194B1949194C2
:104E60009194918C718C9194918C718C718C718CCA
:104E7000508C30840F840F84508C918C508C0F8414
:104E80000F845084708C718C508C2F840F7CEF7B3E
:104E9000EE7BCE7BAE73AE73CE73CE7BCE7BCE7B02
:104EA000AE73AD738D738D736D6B4C6BEB5A0742A4
:104EB0002421C218E318E318E318C218C210A21084
:104EC000A210A210A110A110A110A110E21823217C
:104ED0008531E6392742684A47420642063A063A91
:104EE000074207420742C641C741C641C641C641C3
:104EF000C639C639C639C641A539A5398439843180
:104F000084318439A43984398439843184318431B9
:104F100084318431843184318431843184318439E1
:104F200084398439843984318431A431A431843181
:104F3000843184316431633184318431A4318431EA
:104F4000A431A439C539A539A439A431A431A4396F
:104F5000A439A439A439C539C539C539C539C539C4
:104F6000C539E539E54106420642E641E541E53904
:104F7000C539C539C539E5410642064206420642F1
:104F8000E6410642264A06420642E641E541E5413F
:104F9000E64106420642064226422642264A264A62
:104FA000474A474A474A474A474A264A064206422C
:104FB0002642264A274A674A675288526752474A1A
:104FC000474A474A474A474A474A474A474A474A59
:104FD000674A67526752885288528852885288526C
:104FE0008852675267526852474A675288528852BD
:104FF00088528852C95AC95AC95AA95AA8528852BD
:1050000068528852A85A6852A95AEA62EA62C95A92
:10501000C95A0A632B6BAD738D736C6B6C6B6C6BC5
:105020008D738D738D73F294F294139DF29CB294F0
:10503000918C918CD294708C708C918C9194B29450
:10504000D29CF29CF39CB194B194B194B194B1947C
:10505000918C508C30840F843084508C2F842F841A
:10506000508C918C718C708C508C2F842F84308458
:105070002F840F84EE7BCE7BCE7BEE7BEE7BEE7BB4
:10508000CE7BCE7BCE7BAE73AD736D6BEB5A07429E
:105090002421C218C218E318E218C218C218C2109C
:1050A000A210A210A210A110C110A1108110A11075
:1050B000E2186429C531484A684A684A684A274262
:1050C0002742274227420742E741E741C741C63905
:1050D000C639C639C639C639C539C539A539A5391C
:1050E000C539E539E541A439A439A431A431A43145
:1050F0008431843184318431843184318431843108
:1051000084318431843184318431843184318431F7
:105110008431843164316331643184318431843148
:105120008431A439A539A539A43984318431A4390D
:10513000A439A439A431A439A539C539C539C5392B
:10514000C539C539C539E541E541E541E541E541A7
:10515000E539C539C539E539E64106420642064218
:10516000E6410642264A26420642064206420642D8
:105170000642064206420642064206422642264AA7
:10518000474A474A474A6752474A474A264A264AB1
:10519000264A474A474A674A6752685267526752E7
:1051A000674A474A474A6752674A474A474A474A0F
:1051B000474A474A474A474A674A6852885288528C
:1051C000A852A852885288526752674A6852885239
:1051D0008852A852A95AA95AA85AA85A885288523D
:1051E0008852A85AA95A474A6752A95AC95AC95A4D
:1051F000A95AA95AC95A0A630A630B634B638D6B98
:10520000CE73EE7B0F7C139DF294F294139DD29497
:10521000918CB194F39C718C718C718C9194B1943C
:10522000B294D29CF29CB294B294B294B294B294DE
:10523000B194918C708C2F8430842F840F7C3084B7
:105240009194B194718C508C508C3084508C718CB2
:10525000718C508C0F840F840F840F7CEF7BEF7B5D
:10526000EF7BEF7BEF7BCE7BCE7B8D6BEA5AE73912
:105270002421C218C218E218E218C218C218C218B3
:10528000C218C210C210A110C110C218C1108110E2
:105290008110C2180221A53107428852C952A95271
:1052A000684A47422742484A284A284A0742E74173
:1052B000E741C641C639C539C539C539A539C539EA
:1052C000E541E641E541A539A539A539A539A53915
:1052D000A4398431843184318431843184318431FE
:1052E0008431843184318431843184318431843116
:1052F0008431843184316431643184318431843146
:105300008431A431A439A539A43184318431A43144
:10531000A439A4398431A431A439C539C539C53972
:10532000C539C539C539E539E539E541E541E541D5
:10533000E541E539C539C539E54106420642E64150
:10534000E6410642264A264A2642064206420642CE
:1053500006422642264206422642264A474A474AF3
:10536000474A474A474A6752674A474A474A474A6D
:10537000474A474A474A474A674A6752675267520D
:1053800067526752675288526752474A474A474AAC
:10539000474A474A474A674A675268528852885282
:1053A0008852A852A852885268526752675288524F
:1053B0008852A85AA85AA85AA85AA85AA85AA95A04
:1053C000C95AE962EA62A95A88528852A95AC95A46
:1053D000C95AC95AEA62C95AC95AC95AC952CA5A93
:1053E000EA5A0B5B0B63139D139D139DF294D294A9
:1053F000D294F29CF39CD294B1949194718C718C60
:10540000918C9194B194B294B294B194B294B294B8
:10541000B2949194918C3084508C30840F7C2F8482
:105420009194B194718C708C508C708C9194D294B6
:10543000B294718C3084508C30842F840F840F840C
:105440000F840F842F842F84EF7B6D6BAA52C63993
:105450002321E218E318E318E318E318E218C2184E
:10546000C218C210A210A110C218E218C218C210AD
:10547000A11081108110E2184429E639484A895266
:105480008952894A8952895269526952484A284A3E
:10549000074A07420742C539E641E641C539C539E1
:1054A000E641E641C539C539C539C539C539C539BA
:1054B000A539A539843184318431843184318431F2
:1054C0008431843184316431643184318431843174
:1054D0008431843184318431843164318431843144
:1054E000843184318431A539843164318431A431EB
:1054F000A439A4318431A439A439A439A439A539F3
:10550000C539C539E539E539E539E541E541E541D3
:10551000E539C539C539C539E539E6410642E641BF
:10552000E6410642264A264A2642064206420642EC
:105530000642264A264A0642264A474A674A675290
:10554000674A474A474A474A474A474A474A474AB3
:10555000474A474A474A474A474A474A674A67527B
:10556000685268526752A85A6752474A674A675258
:10557000474A474A6752685268526852685288528E
:10558000885288528852A85288526852685288526B
:10559000A85AA85AA852C95AC95AA95AA85AC95A9F
:1055A000C95AE962E9620A63C95AA95AC95AC95A69
:1055B000C95AE95A0A636C6B6C6B4B6B2A63CA5A03
:1055C000A952A952A952F29454A5339DB18C918C41
:1055D000139D339DF29CB194B194918C718C718C1C
:1055E0009194B294D29CB194B1949194B194B294A8
:1055F000B19491949194508C718C708C0F842F8401
:105600009194B194718C718C708C918CB294F29C49
:10561000F29C9194508C718C708C50842F840F84E8
:105620002F8430845084508CEF7B4C6B694AA531B9
:105630000321E318E318E318E318E318E318C2188A
:10564000C210A210A210C218C218C210C218C218EA
:10565000C218A11081108108A1102321A531274271
:105660008952CA52CA5A8952695269526952695258
:105670004852484A484AE641274A274A06420642D3
:10568000274A0642E641C539C539C639C639C53942
:10569000C539A539A539A539A539A539A539A539FA
:1056A000A539A539A5396431643164318431843137
:1056B0008431843184318431843184318431843142
:1056C000843184318431A539843164318431A43109
:1056D000A439A4318431A539A43984318431843189
:1056E000A439C539E541E541E541E541E541E541FB
:1056F000C539C539A539C539C539E641E641E54160
:10570000E6410642264A0642064206420642064252
:105710000642264A264A06422642474A67526752AE
:10572000474A274A264A274A274A474A474A474A72
:10573000474A474A474A274A274A474A474A6752F9
:10574000885288526852A85A6752474A675288520C
:10575000685268528852685268526752675268525B
:1057600088528852A852A85AA85288528852885201
:10577000A85AA85A88520A63E95AC95AA85AA85A74
:10578000A85AA85AA85AC95AA85AA85AC95AA95AC6
:1057900088528852A95AEA5A0A632A630A5BEA5A6B
:1057A000C95AEA5A2B6354A5139DF294F29C139D97
:1057B000F29CF29CF39CD294B194D29CD29C918C9A
:1057C0009194B2949194F29CF29CD29CF29CF29CA3
:1057D000F29CD29CD294B194918C508C508C708C51
:1057E000718C708C508CB294B294B19491949194C9
:1057F000B194718C3084B294918C508C30845084EC
:10580000508430842F8430840F7C6C6B484A652927
:105810000321032123210321E218E218032103219C
:10582000E218C218E318E218C218C210C210C2105F
:10583000C218C210A210A210A110A210E21844298E
:10584000073AA9520B63CA5AA9528952A9528952DE
:10585000484A484A8952484A484A6852684A484A27
:10586000474A274A274AE641E639C639E641074210
:105870000742E639A539C639A539A539C639C63929
:1058800085318531A539A539A539A539A539A53978
:10589000A539843164316431643184318431A5396E
:1058A000A539A5398431A4398431843184318431D6
:1058B00084318431643184318431A439A439A431F0
:1058C0008431A439A539C539C539C539E539E5412A
:1058D000E64106420642A539C539C539C539E54113
:1058E00006420642264A274A264206420642064207
:1058F00026420642E5410642064206422642274A21
:10590000474A675288526852675267526752474AFD
:10591000474A264A264A274A474A474A6752685210
:105920008852885268526852885288526752675229
:10593000885288526852885267528852A95AA95A86
:1059400088528852A85AA85288528852685288525F
:105950008852A95AC95AE962C95AA95AA95AC95AB0
:10596000C95AC95AA95AC95A88528852C95AC95AD1
:105970008852A852E95A674AC9524B638C6B2B6311
:10598000A952A952EA5A54A5139DF294F29C139D70
:10599000139D139D339DD29CD294F29CF29C9194C2
:1059A000918CB194918CB294D29CF29CF29CD29C3A
:1059B000D294D294D29CD294B194918C718C708CEC
:1059C000708C708C508C718CB294D29CB1949194E8
:1059D00091949194918CD29C9194708C508C508C19
:1059E000508C30842F842F84EF7B4C6B484A652980
:1059F0000321032103212421031903192421242134
:105A0000E318E318E3180319E318C218C218C21800
:105A1000C218C218C218C218C218A210A110C21807
:105A20004429073A8952CA5ACA5AAA5A8952AA5AC2
:105A3000EB62CA5A8952684A685269526852684A87
:105A4000484A484A684A2742074206420742274ACC
:105A50002742E641C639E639C539C539E639C6397E
:105A6000A539A531A539A539A539A539A539C5392E
:105A7000C539A5398431843184318431643164314C
:105A8000843184318431A439A43184318431843126
:105A9000A431843184318431A431A439A439A439A6
:105AA000A431A439A539C539C539C539C539E53950
:105AB000E539E541E541C539C539C539C539E5415E
:105AC000E64106420642274A264206420642264A46
:105AD000264A064206420642064206422642264A16
