:020000040800F2
:10000000301300207D0200084B230008FF1B00086E
:1000100049230008890400086D3000080000000032
:10002000000000000000000000000000A101000826
:100030000105000800000000F5010008AB270008DA
:10004000970200089702000897020008970200082C
:10005000970200089702000897020008970200081C
:10006000970200089702000897020008970200080C
:10007000E9040008F5040008970200089702000848
:1000800097020008970200089702000897020008EC
:1000900097020008970200089702000897020008DC
:1000A00097020008970200089702000897020008CC
:1000B00075280008000000000000000097020008FA
:1000C00097020008000000000000000085270008DB
:1000D00000000000613000089702000800000000E6
:1000E00097020008970200080000000000000000CE
:1000F0000000000000000000000000000000000000
:10010000000000000000000000000000970200084E
:10011000000000000000000097020008970200089D
:10012000970200089702000897020008970200084B
:10013000970200080000000000000000000000001E
:10014000970200089702000897020008970200082B
:10015000970200089702000897020008970200081B
:1001600097020008970200089702000800000000AC
:10017000970200089702000800000000000000003D
:10018000970200089702000897020008DFF80CD0D9
:1001900000F0ECF800480047D93000083013002088
:1001A0002B4B1968086800F058B880F30988BFF332
:1001B0006F8F4FF0000080F311887047000000003F
:1001C00006480068006880F3088862B661B6BFF32D
:1001D0004F8FBFF36F8F00DF00BF00BF08ED00E05F
:1001E000DFF80C00016841F470010160704700BF46
:1001F00088ED00E0EFF30980BFF36F8F144B1A68AE
:100200001EF0100F08BF20ED108A20E9F04F10609B
:1002100008B44FF0500080F31188BFF34F8FBFF345
:100220006F8F03F06BFB4FF0000080F3118808BC68
:100230001968086800F016B81EF0100F08BF00F02B
:1002400016B880F30988BFF36F8F704700BF00BFF7
:100250003C000020EFF30580704730C8B0E8C04F85
:10026000FFF7A3BF30C8B0E8C04FFFF7E5BFB0EC61
:10027000088AB0EC08CAFFF7E4BF000006488047D0
:1002800006480047FEE7FEE7FEE7FEE7FEE7FEE77B
:10029000FEE7FEE7FEE7FEE7312800088D010008D3
:1002A0002DE9F05F0546002092469B4688460646AB
:1002B000814640241BE0284641464746224600F03E
:1002C00044F853465A46C01A914110D31146184675
:1002D000224600F02BF82D1A67EB01084F46224604
:1002E0000120002100F022F817EB00094E41201EEA
:1002F000A4F10104DFDC484631462A46434600F0BB
:1003000000B830BCBDE8C09F40EA01039B0703D0A2
:1003100009E008C9121F08C0042AFAD203E011F844
:10032000013B00F8013B521EF9D27047202A04DB42
:10033000203A00FA02F1002070479140C2F12003F8
:1003400020FA03F3194390407047202A04DB203A37
:1003500021FA02F00021704721FA02F3D040C2F1E5
:10036000200291400843194670470000064C074D93
:1003700006E0E06840F0010394E807009847103475
:10038000AC42F6D3FFF706FFC0CB0208E0CB020871
:1003900070B504464FF0904500220221284600F037
:1003A0007BFA204602F063FE01222021284600F05D
:1003B00073FA00222021284600F06EFA02F0C2F8FB
:1003C000044601220221284600F066FA204670BD4C
:1003D00070B590B0064600256C463046FFF7D8FF52
:1003E00044F825006D1C0F2DF7D30020012101E0FA
:1003F000411C0AE054F8202054F821309A4203D9D5
:1004000044F8203044F82120491C0F29F2D3401C25
:100410000E28EDD30021052054F82020401C114463
:100420000A28F9D30520B1FBF0F010B070BD2DE91A
:10043000F04107461C4615460E462A2001F08CFE68
:10044000C7F3072001F070FEF8B201F06DFEC5F3AE
:10045000072001F069FEE8B201F066FE2B2001F0F2
:100460007BFEC6F3072001F05FFEF0B201F05CFEF8
:10047000C4F3072001F058FEE0B201F055FEBDE8DC
:10048000F0412C2001F068BEFEE7000070B5154C6D
:100490000025211D204602F086F800B3A4F11401C6
:1004A0002068CA680125904201D9801A00E0101A1C
:1004B0004FF47A7250434A680A4BB0FBF2F00833AB
:1004C000186060680A69904201D9801A00E0101A29
:1004D0004FF47A7289685043B0FBF1F058602846B7
:1004E00070BD000020000020014800F03BB8000073
:1004F00040020020014800F035B80000F80100205B
:10050000704710B503F0DCF808B1002010BD01F011
:100510002DFF012010BD10B590F8251000240229F0
:1005200003D00421C16301241AE001680A6822F0A3
:100530000E020A6001680A6822F001020A6090F85F
:100540004410036C01F01C02012101FA02F25A600E
:1005500080F82510002180F82410816B01B18847B4
:10056000204610BDF0B4016C0C6801680D6890F86D
:10057000442002F01C06042202FA06F3234211D0A2
:100580006B070FD50B689B0603D40B6823F004039D
:100590000B6090F8441001F01C018A40016C4A6025
:1005A000016B1DE0022303FA06F727424FF0000C0F
:1005B0004FF0010218D0AF0716D50C68A40605D479
:1005C0000C6824F00A040C6080F8252090F8441090
:1005D00001F01C018B40016C4B6080F824C0C16AA3
:1005E00000291AD0F0BC08470823B340234214D096
:1005F0002B0712D50B6823F00E030B6090F8441004
:10060000036C01F01C0102FA01F15960C26380F829
:10061000252080F824C0416BE2E7F0BC7047000061
:1006200070B568B12B4C036814212B4AA34209D240
:100630002A4C1C44B4FBF1F18900C0E910210BE005
:10064000012070BD234C64421C44B4FBF1F18900CD
:100650004164204908390164022180F825101C6892
:1006600047F6F0718C43D0E902152943D0E90456CE
:100670003543294385692943C5692943056A2943C7
:10068000214319608168B1F5804F19D0036C0F21A7
:10069000934202D152F8A83F02E00E4AA0321368FA
:1006A00090F8444004F01C04A1408B43136090F880
:1006B0004430416803F01C039940136819431160EA
:1006C0000021C163012280F8252080F8241008460B
:1006D00070BD00000804024000000240F8FFFDBFAA
:1006E00070B5044600F0DEF80546601C00D0641CBE
:1006F00000F0D8F8401BA042FAD370BD2DE9F84FA6
:10070000DFF870B1002301274FF0030A4FF00F0903
:100710000BF1040EA7E000BF07FA03F6324070D0D9
:100720004C68022C01D0122C10D1DC0800EB84089C
:10073000D8F820405D074FEAD56C09FA0CF5AC43B8
:100740000D6905FA0CF52543C8F82050D0F8008053
:100750005D0091F804C00AFA05F40CF0030C28EAD5
:1007600004080CFA05FC4CEA080CC0F800C0D1F8EB
:1007700004C0BCF1010F08D0BCF1020F05D0BCF1E0
:10078000110F02D0BCF1120F16D1D0F808C0D1F869
:100790000C802CEA040C08FA05F848EA0C08C0F8AA
:1007A0000880D0F804C02CEA060C0E79C6F30016B7
:1007B0009E4046EA0C064660C668A6438C68AC407C
:1007C0003443C4604C68E4004CD52B4C256E45F096
:1007D00001052566246E23F0030504F0010400944E
:1007E000264C2E19B4689D074FEA157C09FA0CF5C2
:1007F000AC43B0F1904F05D0214DA84204D1012562
:1008000008E02FE0002505E01E4DA84201D1022599
:1008100000E0072505FA0CF52543B560DBF800403C
:100820005D464E689443F60300D514432C60DEF811
:10083000004075464E689443B60300D514432C60BF
:100840000C4D08352C684E689443F60200D51443CD
:100850002C60084D0C352C684E689443B60200D5C8
:1008600014432C605B1C0A6832FA03F47FF454AF23
:1008700000F00AB8000401400010024000000140EE
:10088000000400480008004818BCBDE8E08F00697B
:10089000084000D0012070470AB181617047816231
:1008A0007047000001480068704700000400002005
:1008B00002480168491C01607047000004000020E4
:1008C00010B5032000F088F8002000F005F800F0D3
:1008D00017F8002010BD000010B5044607484FF47B
:1008E0007A710068B0FBF1F000F071FD0022214642
:1008F000501E00F051F8002010BD0000080000203C
:100900001E4808B5016E41F001010166016E01F05B
:1009100001010091816D41F080518165806D00F091
:1009200080500090032000F057F8002211466FF02D
:100930000B0000F031F8002211466FF00A0000F0C1
:100940002BF8002211466FF0090000F025F8002274
:100950001146501F00F020F800221146101F00F031
:100960001BF800221146901E00F016F80022BDE888
:1009700008401146501E00F00FB800000010024061
:1009800000F01F02012191404009800000F1E020A9
:10099000C0F8001170470000F0B40E4B1B680C4605
:1009A000C3F30223C3F10705042D00D90425191D43
:1009B000072901D2002300E0DB1E012606FA05F11B
:1009C000491E214099409E40761E16403143F0BC9E
:1009D00001F0BCBC0CED00E0064900F0070208681D
:1009E0004FF6FF03184040EA0220034A1043086014
:1009F000704700000CED00E00000FA051549B0F565
:100A0000007F0868C0F3412009D0022805D008689B
:100A100020F4C06040F48060086000207047012826
:100A2000FBD0086820F4C06040F4007008600A48F9
:100A30000A4A0068B0FBF2F03222504300E0401E48
:100A400010B14A695205FAD448694005E5D503203A
:100A500070470000007000400800002040420F0076
:100A60000248006800F4C060704700000070004059
:100A70002DE9F0470F46050058D03E4E306800F093
:100A80000700B84209D2306820F0070038433060D0
:100A9000306800F00700B84248D12878364CC007CB
:100AA0002CD06868032811D0022812D0216898B190
:100AB000490500293ADAA16821F003010143A16048
:100AC000FFF7F0FE804641F2883910E02168890185
:100AD000EFE721688903ECE78907EAE7FFF7E2FE21
:100AE000A0EB0801494502D90320BDE8F087A068C2
:100AF000696800F00C00B0EB810FEFD12878800717
:100B000005D5A068A96820F0F0000843A06030680F
:100B100000F00700B8420BD9306820F007003843D6
:100B20003060306800F00700B84201D00120DCE7F7
:100B30002878400705D5A068E96820F4E0600843FC
:100B4000A0602878000706D5A068296920F46050C5
:100B500040EAC100A06000F03BF8A168074AC1F379
:100B60000311515CC840064908600020FFF7B4FE3D
:100B70000020BAE70020024000100240349402082E
:100B800008000020014800687047000008000020AD
:100B90000448054900688968044AC1F30221515C90
:100BA000C8407047080000200010024074940208FA
:100BB0000448054900688968044AC1F3C221515CB0
:100BC000C8407047080000200010024074940208DA
:100BD00030B52D49002318468A682C4C12F00C0FB2
:100BE0004FEA640514D08A68C2F38102032A04D153
:100BF000CA6802F00302012A0AD08A68C2F381029D
:100C0000012A19D08A68C2F38102022A16D016E09E
:100C10000A68120704D4D1F89420C2F3032202E038
:100C20000A68C2F303121A4B53F822308A6812F092
:100C30000C0F04D1184602E0204600E028468A68DE
:100C4000C2F38102032A1DD1C868CA6800F00300FC
:100C5000C2F30212521C022804D0032805D0B3FBB1
:100C6000F2F004E0B4FBF2F001E0B5FBF2F0CA6888
:100C7000C968C2F306225043C1F34161491C4900CF
:100C8000B0FBF1F030BD0000001002400024F40081
:100C9000449402082DE9F84304007DD02078FE4DED
:100CA000C0065DD5A86810F00C0F0AD0A069002816
:100CB000286873D040F001002860FFF7F3FD064676
:100CC00055E02868800702D5A0690028E5D0216A90
:100CD0002868000703D5286800F0F00004E0D5F884
:100CE0009400F02202EA1010814216D9084601F061
:100CF000EBFB002850D1286840F0080028602868E5
:100D0000216A20F0F000084328606868E16920F457
:100D10007F4040EA0120686015E0286840F0080044
:100D200028602868216A20F0F0000843286068687D
:100D3000E16920F47F4040EA01206860206A01F008
:100D4000C3FB0028D6D1FFF743FFA968D34AC1F3FC
:100D50000311515CC840D24908600020FFF7BCFD78
:100D60002CE000BFFFF79EFD801B02287ED828687C
:100D70008007F7D5286840F0080028602868216AB5
:100D800020F0F000084328606868E16920F47F40A3
:100D900040EA0120686011E0B2E0FFE720F00100C6
:100DA0002860FFF77FFD064605E000BFFFF77AFDEC
:100DB000801B0228DAD828688007F7D42078C0077B
:100DC00048D0A868C0F3810002281DD0A868C0F3ED
:100DD0008100032803D1E868C043800714D060680D
:100DE000B0F5803F17D0B0F5A02F286817D020F4B9
:100DF00080302860286820F4802028606068E0B196
:100E0000FFF750FD064614E02868800322D560688D
:100E1000002875D01EE0286840F48030EDE740F4EB
:100E200080202860F7E700BFFFF73CFD801B6428A7
:100E30009CD828688003F7D50CE0FFF733FD064601
:100E400005E000BFFFF72EFD801B64288ED82868C0
:100E50008003F7D42078800742D5A868C0F38100CA
:100E6000012816D0A868C0F3810000E0CEE0032876
:100E700004D1E86800F0030002280AD0E0680028E6
:100E800028681DD040F480702860FFF70BFD0646EF
:100E90000BE0286840050BD5E0680028B9D007E0D2
:100EA000FFF700FD801B022884D828684005F7D58D
:100EB0006868217C20F0F85040EA016068600FE02B
:100EC00020F480702860FFF7EDFC064605E000BFC7
:100ED000FFF7E8FC801B0228AAD828684005F7D451
:100EE0002078000729D560690028D5F8940013D030
:100EF00040F00100C5F89400FFF7D4FC064606E078
:100F00001DE100BFFFF7CEFC801B02287ED8D5F87C
:100F100094008007F6D510E020F00100C5F8940099
:100F2000FFF7C0FC064604E0FFF7BCFC801B02286C
:100F30006CD8D5F894008007F6D42078400761D5A6
:100F4000A86D0026C00008D4A86D40F08050A865A8
:100F5000A86D012600F08050009052480168C90534
:100F600011D40168804641F480710160FFF79AFC5A
:100F7000074604E0FFF796FCC01B022846D8D8F8C5
:100F80000000C005F6D5A068012815D00528D5F8C1
:100F9000900016D020F00100C5F89000D5F8900020
:100FA00020F00400C5F89000A06841F28838B8B17C
:100FB000FFF778FC07460EE0D5F8900040F00100FE
:100FC000F0E740F00400C5F89000F5E7FFF76AFC91
:100FD000C11B41451AD8D5F890008007F6D50CE022
:100FE000FFF760FC074604E0FFF75CFCC11B4145CE
:100FF0000CD8D5F890008007F6D41EB1A86D20F06B
:101000008050A8652078800629D500E089E0606AD4
:101010000028D5F8980011D040F00100C5F89800DC
:10102000FFF740FC064604E0FFF73CFC801B02286B
:101030007DD8D5F898008007F6D510E020F00100A3
:10104000C5F89800FFF72EFC064604E0FFF72AFCDF
:10105000801B02286BD8D5F898008007F6D4A06AC8
:10106000C8B1A968C1F38101032968D002282868A2
:1010700020F08070286019D02868000103D4E86847
:1010800020F00300E860E86807490840E860FFF7DF
:1010900009FC04464EE050E000100240349402087F
:1010A0000800002000700040FFFFEEFEFFF7FAFB93
:1010B000064604E0FFF7F6FB801B022837D82868B5
:1010C0008001F7D4206B54F82C1F0001103808431E
:1010D000218A1C4A490802EB4151A26841EA0221D7
:1010E0000843217D4FF07E42490802EB41610843ED
:1010F000217B40EAC160E860286840F08070286089
:10110000E86840F08070E860FFF7CCFB044604E03C
:10111000FFF7C8FB001B022809D828688001F7D513
:101120000BE004E0FFF7BEFB001B022802D90320FE
:10113000BDE8F88328688001F4D40020F8E7012096
:10114000F6E700000000E0FF7047000038B50446F5
:101150000068426881684B0605D4CB0703D053066C
:1011600001D5E16C04E08B0707D5130605D5216D89
:1011700001B02046BDE83040084711F4B07F4AD0A6
:10118000930648D54B060AD594F85D30032B3FD023
:10119000236E43F004032366C368836800938B06C1
:1011A00009D5236E43F00103236683680093036827
:1011B00023F040030360C80506D5206E40F0080008
:1011C0002066206880680090206E002823D0206868
:1011D000416821F0E0014160012084F85D00900742
:1011E00001D4D00718D02068416821F00301416084
:1011F0000B4DA06D18B18563A06DFFF78CF9606D84
:10120000002808D08563606DBDE83840FFF783B9DA
:10121000C1688068009038BD2046FFF795FF38BD53
:10122000912700082DE9F041040005D00025A562B2
:1012300094F85D0018B107E00120BDE8F08184F862
:101240005C50204600F044F8022384F85D302068AA
:10125000016821F040010160E0684FF4E066B042AF
:1012600001D9002101E04FF48051B0F5706F02D038
:10127000B04200D0A562276B012227B9B04201D944
:10128000236300E02263D4E901031843D4E9043660
:1012900033431843238B03F400731843E369184363
:1012A000236A1843A36A184323681860636B606A53
:1012B000A66918430427E36807EA16463343184330
:1012C000084321684860256684F85D200020B4E763
:1012D0002DE9F041064600682A4986B088424ED181
:1012E0002948016E41F480510166006E002400F42B
:1012F00080500590E02000900220CDE901040320F9
:1013000003900520049069464FF09040FFF7F6F9EE
:101310001F4D1E480127E5E8020710204FF0800806
:10132000A5E811011A4845F81449AC61EC612C623A
:10133000FFF776F918B17A2116A001F0BCFE7565A9
:10134000AE6212481A4D14382860C5E90174C5E927
:1013500003486C61AC61EC6128462C62FFF760F9D0
:1013600018B18B210BA001F0A6FEB5650022072164
:101370002320AE62FFF710FB2320FFF701FB06B02E
:10138000BDE8F08100300140001002403000024012
:10139000F80100202E2E2F5372632F73746D333299
:1013A0006C3478785F68616C5F6D73702E630000D9
:1013B000400200204FF0E0210428086903D020F00B
:1013C00004000861704740F00400FAE7704710B568
:1013D000401EB0F1807F01D3012010BD4FF0E0240A
:1013E00060610F21601700F0B1FF0020A0610720AD
:1013F0002061002010BD10B5FFF7E8FF10BD704759
:101400007047704730B590F83C20012A37D0012250
:1014100080F83C20CA688C6822F4407222434C68F1
:1014200022F4806222430C6822F4006222430C6999
:1014300022F4805222434C6922F4005222438C6AE7
:1014400022F4804222430C8B22F4702242EA0442AE
:101450000C4D04680023AC420CD18D8C22F4700238
:1014600042EA0552CD6922F080722A43096A22F0CD
:1014700000720A43626480F83C30002030BD0220D4
:1014800030BD0000002C014070B590F83C20012ACE
:1014900021D0012480F83C40022280F83D200368DE
:1014A0005A689D680D4EB34203D122F470064A6813
:1014B000324322F070060A688968324325F08005BD
:1014C00029435A600268916080F83D40002180F80D
:1014D0003C10084670BD022070BD0000002C014089
:1014E00010B5040003D094F83D0010B107E00120CE
:1014F00010BD002084F83C00204600F00DF80220CA
:1015000084F83D00211D206801F0BAF9012084F81B
:101510003D00002010BD000008B50C4A01680C48D1
:10152000914207D1016E41F400610166006E00F442
:10153000006009E0B1F1804F07D1816D41F00101F8
:101540008165806D00F00100009008BD002C014015
:10155000001002400168CA6842F00102CA600068D7
:10156000826807490A40062A08D082680A40B2F514
:10157000803F03D0016841F0010101600020704705
:101580000700010070B5044690F83C00012817D010
:10159000012584F83C50022084F83D0020688268D0
:1015A000324E324022F47F4282600868502839D09F
:1015B0000DDC202855D005DC98B3102843D150E02D
:1015C000022070BD30284CD040283CD141E060283A
:1015D00030D070280CD0B0F5805F03D0B0F5005F3C
:1015E00031D112E020688168204A7032114016E043
:1015F000CB68D1E90121206801F085F9216888686C
:10160000304040F0770088601DE0CB68D1E90121CF
:10161000206801F078F92068816841F48041816098
:1016200011E01EE0CA684968206801F0BDFA502147
:10163000206806E0CA684968206801F0C6FA60219F
:10164000206801F06AF984F83D50002084F83C00DD
:1016500070BDCA684968206801F0A6FA4021206878
:10166000EFE7226801461046EBE7000088FFFEFF27
:10167000704770B50446006801694FF00005C94322
:10168000890715D4C168C943890711D4E91E0161CE
:1016900001202077206880698007204602D0FFF76C
:1016A000E7FF04E000F0C0F8204600F06EF925776F
:1016B00020680169C943490717D4C168C94349076C
:1016C00013D46FF004010161022020772068806943
:1016D00010F4407F204602D0FFF7CAFF04E000F07C
:1016E000A3F8204600F051F9257720680169C94325
:1016F000090716D4C168C943090712D46FF008015D
:101700000161042020772068C0698007204602D04C
:10171000FFF7AEFF04E000F087F8204600F035F94F
:10172000257720680169C943C90617D4C168C94330
:10173000C90613D46FF010010161082020772068DA
:10174000C06910F4407F204602D0FFF791FF04E00B
:1017500000F06AF8204600F018F925772068016942
:10176000C943C90708D1C168C943C90704D1891E43
:101770000161204600F038F920680169C943090673
:1017800009D4C168C943090605D46FF0800101611D
:101790002046FFF735FE20680169C943C90509D411
:1017A000C168C943090605D46FF480710161204600
:1017B000FFF725FE20680169C943490609D4C168BD
:1017C000C943490605D46FF040010161204600F08D
:1017D0000CF920680169C94389060BD4C168C94363
:1017E000890607D46FF0200101612046BDE87040F2
:1017F000FFF707BE70BD000000B50068094985B05D
:1018000088420DD1801500900220019000200290A6
:1018100003900120049069464FF09040FEF76EFF60
:1018200005B000BD002C0140704770B5044690F82B
:101830003C000D4601280ED0012684F83C600220B1
:1018400084F83D000C2A45D007DC5AB1042A1BD08D
:10185000082A78D12CE0022070BD102A4ED0142A1C
:1018600071D15DE0206801F061F82068816941F084
:10187000080181612068816921F00401816120688B
:1018800081692A69114311E0206801F08BF8206812
:10189000816941F4006181612068816921F480617E
:1018A0008161206881692A6941EA022181614AE0F7
:1018B000206801F0B3F82068C16941F00801C161F6
:1018C0002068C16921F00401C1612068C1692A69E9
:1018D000114311E0206801F0DBF82068C16941F490
:1018E0000061C1612068C16921F48061C161206823
:1018F000C1692A6941EA0221C16124E0206801F03E
:10190000F7F82068416D41F0080141652068416D9C
:1019100021F0040141652068416D2A69114311E0FD
:10192000206801F013F92068416D41F400614165C0
:101930002068416D21F4806141652068416D2A690C
:1019400041EA0221416584F83D60002084F83C00B2
:1019500070BD10B5040003D094F83D0010B107E04D
:10196000012010BD002084F83C00204600F00CF857
:10197000022084F83D00211D206800F081FF012035
:1019800084F83D00002010BD7047704710B5044634
:101990000068012200F0AAFF0F482168814205D0AB
:1019A0000E48814202D00E48814203D1486C40F477
:1019B00000404864206882680A490A40062A08D024
:1019C00082680A40B2F5803F03D0016841F001010E
:1019D0000160002010BD0000002C014000400140CB
:1019E000004401400700010070477047704770478E
:1019F0002DE9F04102680446D0691168936810F03F
:101A00000F0F4FF000055BD003F0010601F4907753
:101A1000374369D0C70707D0CF0505D5012717621F
:101A2000626F42F001026267820708D5DA0706D0CA
:101A3000276802223A62626F42F00402626742073C
:101A400008D5DA0706D0236804221A62626F42F0D2
:101A50000202626702070AD501F02002324306D073
:101A6000236808221A62626F42F008026267626F9E
:101A7000002A32D0800605D5880603D5216E09B12B
:101A800020468847606F000703D4206880684006BE
:101A900025D5204601F087F920688168490619D5C7
:101AA000816821F040018160E06E98B12049816336
:101AB000E06EFEF730FD00280FD0E06E816B06E08F
:101AC000860611D58E060FD5216E1EE02046BDE894
:101AD000F04108472046FFF78AFFBDE8F081204625
:101AE000FFF785FF6567F8E7C60209D55B0207D5F2
:101AF0004FF4801010622046BDE8F041FFF776BF3A
:101B0000030605D50B0603D5616E0029DED1E4E797
:101B10004006E2D54806E0D51168204621F0400194
:101B20001160202184F87110656600F067F8D4E731
:101B3000932D000810B5040003D094F8710010B183
:101B400007E0012010BD002084F87000204600F05E
:101B500027F8242084F871002068016821F0010131
:101B60000160204601F030F90128EBD0606A10B125
:101B7000204601F07CF82068416821F490414160E2
:101B80002068816821F02A0181602068016841F0A5
:101B9000010101602046BDE8104001F0CCB8000012
:101BA00000B50068134987B0884220D11248016E01
:101BB00041F480410166006E694600F48040059062
:101BC0004FF4C0600090022001900020029003209A
:101BD0000390072004904FF09040FEF78FFD002205
:101BE00006212520FEF7D8FE2520FEF7C9FE07B006
:101BF00000BD000000380140001002407047FEE7C1
:101C00002DE9F0418046002422464FF480714FF0C8
:101C10009040FEF741FE00211148FFF7B7FE00217A
:101C200040F23F13EF220846FEF701FC00264FF476
:101C3000A0770025404600F05BFA6D1CBD42F9D349
:101C4000761CF02EF5D3064D4FF49676641C28686A
:101C500044630120FEF744FDB442F7D3BDE8F081B0
:101C600000010020F0B5A34C87B0206E40F48050F6
:101C70002066206E00F480500590E06C40F001007A
:101C8000E064E06C012500F001000590B520CDE98D
:101C9000000503264FF09047694603963846FEF745
:101CA0002DFD0122B5213846FEF7F6FDE06C40F02F
:101CB0000200E064E06C904C00F002000590082007
:101CC000CDE90005694603962046FEF717FD002280
:101CD00008212046FEF7E0FD002201213846FEF7EC
:101CE000DBFD002204213846FEF7D6FD1420FEF766
:101CF000F7FC012204213846FEF7CEFD1420FEF742
:101D0000EFFCCF2000F028FA002000F00DFAD920D7
:101D100000F00AFA302000F007FAED2000F01CFA7B
:101D2000642000F001FA032000F0FEF9122000F018
:101D3000FBF9812000F0F8F9E82000F00DFA852089
:101D400000F0F2F9102000F0EFF9782000F0ECF943
:101D5000CB2000F001FA392000F0E6F92C2000F049
:101D6000E3F9002000F0E0F9342000F0DDF9022072
:101D700000F0DAF9F72000F0EFF9202000F0D4F9B4
:101D8000EA2000F0E9F9002000F0CEF9002000F090
:101D9000CBF9C02000F0E0F9212000F0C5F9C12006
:101DA00000F0DAF9122000F0BFF9C52000F0D4F9F4
:101DB000322000F0B9F93C2000F0B6F9C72000F05D
:101DC000CBF9C12000F0B0F9362000F0C5F90820A9
:101DD00000F0AAF93A2000F0BFF9552000F0A4F96C
:101DE000B12000F0B9F9002000F09EF9182000F0B1
:101DF0009BF9B62000F0B0F90A2000F095F9A22076
:101E000000F092F9F22000F0A7F9002000F08CF920
:101E1000262000F0A1F9012000F086F9E02000F072
:101E20009BF90F2000F080F9202000F07DF91E20A2
:101E300000F07AF9092000F077F9122000F074F927
:101E40000B2000F071F9502000F06EF9BA2000F07C
:101E50006BF9442000F068F9092000F065F91420BE
:101E600000F062F9052000F05FF9232000F05CF932
:101E7000212000F059F9002000F056F9E12000F08F
:101E80006BF9002000F050F9192000F04DF91920ED
:101E900000F04AF9002000F047F9122000F044F960
:101EA000072000F041F92D2000F03EF9282000F035
:101EB0003BF93F2000F038F9022000F035F90A2004
:101EC00000F032F9082000F02FF9252000F02CF95D
:101ED0002D2000F029F90F2000F026F9112000F044
:101EE0003BF97820FEF7FCFB292000F035F907B01C
:101EF000F0BD000000100240000400482DE9FF4F33
:101F00008846054681B04FF4967400224FF48071E4
:101F10004FF09040FEF7C0FC2C4E641EB346306874
:101F200044630120FEF7DCFB002CF6D1002032E0F8
:101F300000262BE0A8F1010008FB0603681E05FB44
:101F4000060208FB06F105FB06F0FEF770FA002713
:101F500005FB08F917E000BFFEF7D3FA28B11C48CB
:101F60000121017005B000F037B80E9810F8170085
:101F700000900E9800EB4700407800F0D5F80098EC
:101F800000F0D2F87F1CB945E6DC761C0498864246
:101F9000D0DB0AF10100039982468842C8DB0C4875
:101FA00000214FF4967601705D46641C28684463F6
:101FB0000120FEF795FBB442F7D305B0012200F0F3
:101FC0000EB808210348FEF767BC0000000100209E
:101FD000300000200004004830BCBDE8C08F30BC99
:101FE000BDE8C04FFFF7EDBF2DE9F0411546124C9B
:101FF00001F13F0300F11F02FEF719FA0026DFF896
:102000003C8004EB852501275FF00004286807FA6F
:1020100004F1084202D0D8F8080001E0D8F8040022
:1020200000F066F8641C082CF0D32D1D761CFF2EE2
:10203000EAD9BDE8F0810000449802083000002091
:102040002DE9F0411546124C01F10F0300F10F028A
:10205000FEF7EDF904EB45160025DFF8388001277F
:102060000024307807FA04F1084202D0D8F80800BA
:1020700001E0D8F8040000F03BF8641CE4B2082C3E
:10208000EFD36D1CEDB2761C202DE9D3BDE8F081B5
:10209000C4970208300000202DE9F0411546124C8B
:1020A00001F11F0300F11F02FEF7C1F904EBC51691
:1020B0000025DFF8388001270024307807FA04F182
:1020C000084202D0D8F8080001E0D8F8040000F077
:1020D0000FF8641CE4B2082CEFD36D1CEDB2761C33
:1020E000802DE9D3BDE8F08144C002083000002013
:1020F00070B504464FF09045002201212846FEF7B6
:10210000CBFB012210212846FEF7C6FBC4F30720B3
:1021100000F03AF8E0B200F037F82846BDE8704029
:1021200001221146FEF7B8BB70B505464FF090444A
:10213000002201212046FEF7AFFB0122102120469C
:10214000FEF7AAFB284600F01FF82046BDE87040C5
:1021500001221146FEF7A0BB70B505464FF0904432
:10216000002201212046FEF797FB00221021204685
:10217000FEF792FB284600F007F82046BDE87040C5
:1021800001221146FEF788BB70B5054600244FF0CA
:102190009046002220213046FEF77EFB280601D51E
:1021A000012200E0002280213046FEF775FB01226B
:1021B00020213046FEF770FB6806641C050EE4B271
:1021C000082CE6D370BD0000104810B50E49016020
:1021D0004FF48271416000214FF4E062C0E90212C5
:1021E0000122C0E904125202C0E90621016207225D
:1021F0004162C0E90A12016308214163FFF712F846
:10220000002800D0FEE710BD003001409C000020F7
:1022100010B529489AB027490024C0E9001440F2BB
:102220008F11C0E90241046144618461FFF758F9EC
:1022300000B1FEE74FF48050159015A91E48FFF736
:10224000A1F900B1FEE71C48FFF783FB00B1FEE7F0
:102250001294139412A918481494FFF715F900B1B9
:10226000FEE76020CDE90B040420CDE90E400D947B
:10227000109400220BA910481194FFF7D6FA00B170
:10228000FEE700944FF40050CDE90440019402941D
:10229000039400030694CDE9074009946946064873
:1022A0000A94FFF7AFF800B1FEE70348FFF7A4FA7E
:1022B0001AB010BD002C01400001002010B51348D9
:1022C00088B04FF08041016041F63F710024C0E9C1
:1022D00001140421C0E903148461FFF701F900B17E
:1022E000FEE74FF48050039003A90848FFF74AF92E
:1022F00000B1FEE70094694604480294FFF7C4F871
:10230000002800D0FEE708B010BD0000400100200A
:102310000C4910B50A4AC1E900204FF0805088608E
:1023200000200C22C860C1E904028861C86108620B
:1023300048620846FFF7FEFB002800D0FEE710BD0C
:102340000038014080010020FEE770470907090EB0
:10235000002806DA00F00F0000F1E02080F8141DDC
:10236000704700F1E02080F8001470472DE9F84F25
:102370004D494FF6FF704E4C08604C4948F21F40E3
:102380000A274FF42F7B40F24B4640F6B83804F151
:10239000140940F6AC5A08602078102801D21020A9
:1023A00002E01E2801D91E202070C0B2B0FBF7F158
:1023B00007FB1105B0FBF7F0C2B278214A20FFF706
:1023C00013FEEAB278216E20FFF70EFE08214FF0CF
:1023D0009040FEF75CFA0028DED1FEF757F8D9F8F6
:1023E00000004D46A0F21550B0420BD26868584527
:1023F00008D9B0F5AF6F05D22078401C2070962028
:10240000FEF76EF92868A0F21550B0420ED2686847
:1024100040F6FC01884209D940F65431884205D281
:102420002078401E20709620FEF75AF9296840F661
:10243000C410814207D96868584504D2207860707A
:10244000C820FEF74DF92868B0F57A7F03D2696895
:10245000B1F5487F25D3A0F29111B1420FD269683E
:1024600041450CD951450AD2124801231A46006849
:1024700000904FF4A071F020FFF740FD0CE040F217
:10248000E731A0F6C510884286D26868404583D9F6
:10249000504581D200F0BEF800F00EB80A20FEF7D9
:1024A0001FB900F00EB800003400002038000020F2
:1024B0000C000020203C000818BCBDE8E04FFFF7EE
:1024C000EDBF18BCBDE8E08FF8B51C4D06460024F2
:1024D000A86DC00002D5FEF7C3FA0DE0A86D40F06C
:1024E0008050A865A86D00F080500090FEF7B8FA03
:1024F000A96D21F08051A965B0F5007F04D0802E30
:1025000007D94FF003040AE0802E08D9A02E01D885
:1025100004E001D1022402E0702E00D10124084819
:10252000016821F0070121430160006800F0070005
:10253000A04201D00120F8BD0020F8BD00100240EB
:102540000020024070B500252C464FF090466400F4
:10255000012220213046FEF79FF90022202130463B
:10256000FEF79AF940213046FEF791F908B144F0A0
:1025700001046D1CEDB20C2DE9D3204670BD70B581
:1025800006460D46D020FDF723FF04469020FDF7B8
:102590001FFF642C01D3642801D2002070BD346079
:1025A0002860012070BD7FB50C460546694602A82B
:1025B000FFF7E5FF002829D001A903A8FFF7DFFFF7
:1025C000002823D0DDE90223934203D803F114004D
:1025D000824205D39A421BD802F11400834217D2DB
:1025E000DDE90001814203D801F11406B04204D3B1
:1025F00088420DD8143081420AD2D0184008286091
:10260000DDE90001084440082060012004B070BDED
:102610000020FBE75A4910B546F2CA2008603C2169
:1026200003220846FFF738FD0A223C215C20FFF711
:1026300033FD0A223C216C20FFF72EFD04223C21B1
:102640008C20FFF729FD00225C214C20FFF7F8FCCD
:102650000A225A215C20FFF71FFD0A225A21782006
:10266000FFF71AFD03226E213C20FFF715FD0A2219
:102670006E215C20FFF710FD0A226E216C20FFF70F
:102680000BFD05226E218C20FFF706FD0A226E212C
:10269000AC20FFF701FD00228E214B20FFF7D0FC7C
:1026A0000A228E215B20FFF7F7FC0A228E217B2075
:1026B000FFF7F2FC0A228E219B20FFF7EDFC00229F
:1026C00090215020FFF7BCFC0A228C21B420FFF798
:1026D000E3FC0622A0213C20FFF7DEFC0A22A02119
:1026E0005C20FFF7D9FC0A22A0216C20FFF7D4FC64
:1026F0000722A0218C20FFF7CFFC0A22A021AC20CA
:10270000FFF7CAFC0A22A021CC20FFF7C5FC00225B
:10271000BE215020FFF794FC0A22BE215C20FFF767
:10272000BBFC0A22BE216C20FFF7B6FC0022C221AE
:102730004620FFF785FC0022C2215620FFF780FCCF
:102740000022C2218C20FFF77BFC0822D2213C20F2
:10275000FFF7A2FC0A22D2215C20FFF79DFC0A228F
:10276000D2216C20FFF798FC0922D2218C20FFF7A0
:1027700093FC0022F021BDE810406420FFF760BC0C
:10278000380000200148FEF7E1BC00009C0000205A
:1027900010B5806A0021A0F84610C187FEF7D4FC6E
:1027A00010BD012000F04AFDFBE710B5FEF780F8F0
:1027B000BDE81040FEF71FBE00B597B00220C10172
:1027C00003911021049114210090CDE90C010A908D
:1027D0000721CDE90E100B9010906846FEF75AFACB
:1027E00000B1FEE70F2011900320129000201390FB
:1027F00014901590042111A8FEF73AF900B1FEE7F4
:102800004FF40070FEF7FAF800B1FEE7FEF7BAF9F0
:102810004FF47A71B0FBF1F0FEF7D9FD0420FEF71A
:10282000C9FD00221146501EFEF7B6F817B000BDD4
:102830000D48016841F4700101600C48016841F0E5
:1028400001010160002181600268094B1A400260A9
:102850008214C260026822F480220260816102490F
:10286000C00380390860704788ED00E00010024026
:10287000FFFFF6EA0148FEF7FCBE00004001002021
:1028800070B50268164B4FF08046984201D0B042B6
:1028900003D122F070044A682243124C124D984230
:1028A00005D0B04203D0A04201D0A84203D122F407
:1028B0004076CA6832434E6922F080023243026099
:1028C0008A68C2620A688262984203D0A04201D03C
:1028D000A84201D1096901630121416170BD000075
:1028E000002C0140004001400044014010B501F0BF
:1028F0001F030121046A99408C430462016A9A40D3
:102900001143016210BD10B5846842EA032224F429
:102910007F440A432243826010BD826822F0700225
:102920000A4342F00701816070470000F0B5026A77
:1029300022F001020262056A43688269154C25F0A3
:10294000020522400C6822F0030214438A68134EE9
:102950002A43114D124FA84203D0B04201D0B842D1
:1029600006D122F0080CCA6842EA0C0222F00402E6
:10297000A84203D0B04201D0B84205D14D6923F43A
:1029800040731D438B692B434360846149684163F5
:102990000262F0BD8FFFFEFF002C014000400140AD
:1029A0000044014030B5026A22F010020262046A5B
:1029B00042688369154D2B400D6823F4407343EA48
:1029C000052524F020038C6843EA0413104CA04230
:1029D00007D1CC6823F0800343EA041323F04003BB
:1029E00005E00C4CA04202D00B4CA04207D14C6930
:1029F00022F4406242EA84028C6942EA8402426024
:102A0000856149688163036230BD0000FF8FFFFE6E
:102A1000002C0140004001400044014030B5026AF2
:102A200022F480720262046A4268C369144D2B402A
:102A30000D6823F003031D4324F400738C6843EAFC
:102A40000423104CA04207D1CC6823F4006343EA6E
:102A5000042323F4806305E00B4CA04202D00B4C0E
:102A6000A04207D14C6922F4405242EA04128C6918
:102A700042EA04124260C5614968C163036230BD25
:102A80008FFFFEFF002C0140004001400044014048
:102A900030B5026A22F480520262046A4268C36955
:102AA0000F4D24F400542B400D6823F4407343EA87
:102AB00005238D6844EA05340A4DA84205D00A4D25
:102AC000A84202D0094DA84204D14D6922F48042A7
:102AD00042EA85124260C36149680164046230BD04
:102AE000FF8FFFFE002C01400040014000440140E8
:102AF00030B5026A22F480320262046A4268436D91
:102B00000E4D2B400D681D4324F400330C8943EA1D
:102B100004430B4CA04205D00A4CA04202D00A4C00
:102B2000A04204D14C6922F4803242EA042242607D
:102B3000456549688165036230BD00008FFFFEFF77
:102B4000002C0140004001400044014030B5026AC1
:102B500022F480120262046A4268436D0E4D24F42E
:102B600000142B400D6843EA05230D8944EA0554FF
:102B70000A4DA84205D00A4DA84202D0094DA842EC
:102B800004D14D6922F4802242EA852242604365E5
:102B90004968C165046230BDFF8FFFFE002C014013
:102BA000004001400044014010B5036A046A24F06B
:102BB00001040462846924F0F00444EA021423F05E
:102BC0000A020A438461026210BD10B5036A23F051
:102BD000100303628369046A23F4704343EA0232F8
:102BE00024F0A00343EA01118261016210BD0000DC
:102BF00070B5114886B0C16C41F00101C164C06C70
:102C0000012500F0010005900220CDE90005032414
:102C10004FF09046694603943046FDF76FFD48201B
:102C2000009003940020CDE9010569463046FDF788
:102C300065FD06B0002070BD0010024010B54FF0D9
:102C40009044012202212046FDF726FE0122202188
:102C50002046FDF721FE012280212046FDF71CFEC3
:102C600020460122BDE810402021FDF715BE90F856
:102C70002410C90706D001684A68836A22F400322A
:102C80001A434A6090F82410890706D501684A68FB
:102C9000C36A22F480321A434A6090F8241049072C
:102CA00006D501684A68036B22F480221A434A6001
:102CB00090F82410090706D501684A68436B22F48E
:102CC00000421A434A6090F82410C90606D50168EC
:102CD0008A68836B22F480521A438A6090F8241029
:102CE000890606D501688A68C36B22F400521A432C
:102CF0008A6090F82410490611D501684A68036C6F
:102D000022F480121A434A60016CB1F5801F06D18B
:102D100001684A68436C22F4C0021A434A6090F882
:102D20002410090606D501684A68806C22F4002246
:102D300002434A607047F8B5002604464667FDF72F
:102D4000B1FD0546206800686FF07E47000708D592
:102D50002B4600224FF400112046009700F04EF958
:102D600060B92068006840070AD52B4600224FF45E
:102D700080012046009700F041F908B10320F8BD1A
:102D8000202084F8710084F8720084F870600020BC
:102D9000F8BD10B5806A0021A0F85A10A0F85210B2
:102DA000FEF725FE10BD01680A6822F490720A60E1
:102DB00001688A6822F001028A60202180F872107E
:102DC00000210166704700002DE9F04104460268C9
:102DD00080682369E6691843636910250027334337
:102DE00018437D4913687D4E3340034313602068C8
:102DF0004268E36822F440521A4342602268A069A4
:102E00008A4201D0236A1843936823F43063034352
:102E10009360734A2368734893420DD1D0F88800B9
:102E200010F0030006D001282AD0022826D003285B
:102E300029D127E0012526E06B4A93420BD1D0F837
:102E4000880010F00C0017D0042819D0082815D0DD
:102E50000C2818D116E08B4215D1D0F8880010F458
:102E6000406009D0B0F5806F0AD0B0F5006F05D092
:102E7000B0F5406F07D105E0002504E0022502E02F
:102E8000042500E00825594A00264FF400408B42F3
:102E90003DD135B1022D07D0042D07D0082D10D11A
:102EA00007E0FDF775FE03E0104602E0FDF790FE37
:102EB000A8B3626802EB4201814202D8B0EB023F44
:102EC00001D9012775E0DFF828815DB1022D0CD012
:102ED000042D13D0082DF4D150082905401846F1CF
:102EE000000105E0FDF754FE0AE050084149F5E70E
:102EF0000023FDF7D5F9A0F5407156E0FDF768FE17
:102F00006268010E0302500818187141F0E7E16988
:102F10004FF6EF7881422FD1092DD2D200E048E060
:102F2000DFE805F006092005230505052600C8E7AA
:102F3000FDF72EFE01E0FDF73BFE4100D4F8040052
:102F400001EB5001B1FBF0F080B2A0F1100141455E
:102F5000B7D84FF6F0710140C0F34200014320683A
:102F6000C16026E024496068EAE7FDF731FEE4E746
:102F70004FF480316068E3E7092DA2D2DFE805F065
:102F800006091E052205050525009AE7FDF700FE46
:102F900001E0FDF70DFE0146606801EB500100BF46
:102FA000B1FBF0F080B2A0F11001414589D8216851
:102FB000C860266638466666BDE8F081606802EB48
:102FC0005001EDE7FDF704FEE5E7616800EB510015
:102FD000B0FBF1F0E6E7000000800040F369FFEF8E
:102FE0000038014000100240004400400024F4007A
:102FF000FFFC0F00000024F40048E8012DE9F04137
:10300000984617460E460446069D1DE0681C1BD0D8
:103010002DB1FDF747FCA0EB0800A84214D92068A9
:10302000016821F4D07101602068816821F00101FC
:103030008160202084F8710084F87200002084F8F8
:1030400070000320BDE8F0812068C06936EA000006
:1030500004D00020B842D9D00020F3E70120F9E7DE
:103060000148FEF7C5BC000080010020FEE770B5F6
:10307000054600244FF09046224620213046FDF7B9
:103080000BFC002220213046FDF706FC280601D566
:10309000012200E0002280213046FDF7FDFB0122E5
:1030A00020213046FDF7F8FB6806641C050EE4B2EB
:1030B000082CE6D370BDFEE702E008C8121F08C165
:1030C000002AFAD170477047002001E001C1121FA9
:1030D000002AFBD17047000086B0FDF7F1FBFFF737
:1030E0006BFB022211462320FDF756FC4948FEF7F0
:1030F000EFF8FFF77DFDFFF7A1FDFFF765F8FEF79D
:10310000B1FD4548C16C41F00101C164C16C01F0E1
:1031100001010091816C41F001018164806C002209
:1031200000F00100009011460C20FDF735FC0C204A
:10313000FDF726FC002211460D20FDF72DFC0D2089
:10314000FDF71EFCFFF740F84FF41650FFF7E0F8CC
:10315000FFF75EF8FFF7B2F8002211460C20FDF7EA
:103160001BFC0C20FDF70CFC002211460D20FDF786
:1031700013FC0D20FDF704FC002205211C20FDF7A7
:103180000BFC1C20FDF7FCFB244845F25844244965
:1031900004604FF6FF7008601E48A430FEF7DAF9AD
:1031A0001C486430FEF7D6F92046FEF729FD0022C0
:1031B00091214120FEF770FF012291216920FEF745
:1031C0006BFF912102220846FEF766FFFDF799F991
:1031D0001422144901A8FDF797F8002101A800F076
:1031E00039F81149086000F030F8104C4FF0904564
:1031F0004FF4A07608212846FDF749FB0028F9D1B5
:1032000001231A463146F0200094FEF777FEFFF7BF
:10321000ADF8EFE79C0000200010024034000020D1
:10322000380000202094020800000020203C000804
:1032300001460020842900D0C81C704710B500B991
:10324000012000F0F9FA002010BD10B500F01AFBC3
:10325000002010BD3EB504460D46B0F90800FFF74A
:10326000E7FF02A9CDE90001208A2B4682B2D4E90A
:10327000001000F0E1FB012801D000203EBD0298C3
:103280003EBD00002DE9F041184C0F460546E668AA
:103290002068001D00F019FA38B9206890F82C1049
:1032A00001208840216981432161681C07D137B121
:1032B0002168BDE8F0410E48091D00F03EBA2068C3
:1032C0003544B5424560216805D2A06BBDE8F041A8
:1032D000091D00F01ABA606B091D00F016FAA06A09
:1032E000854200D2A562BDE8F08100003C000020CC
:1032F000640300202DE9F041054600F02BFA2E4C26
:10330000A068401CA06020682C4F10B1606940B3D9
:103310002DE02560A068012829D1002606EB860053
:1033200007EB800000F0E3F9761C072EF6D3234864
:103330008C3000F0DCF92148A03000F0D8F91F48AB
:10334000B43000F0D4F91D48C83000F0D0F91B4863
:10335000DC3000F0CCF919488C3060631430A06385
:1033600005E02068E96AC06A884200D82560606A82
:10337000401C6062E96A0120226988401043206194
:1033800001EB810007EB8000291D00F0D6F900F069
:1033900001FA606900280CD02068E96AC06A884296
:1033A00007D207494FF080500860BFF34F8FBFF33B
:1033B0006F8FBDE8F08100003C00002088020020F3
:1033C00004ED00E070B5114E114C17E000F08EFADC
:1033D0003068B8B100F0C2FB00F0BCF9F068C56815
:1033E000281D00F072F9A068401EA0606068401EB1
:1033F000606000F0CFF9284600F00CF86068002803
:10340000E4D170BD00F0AAFBF8E7000050030020F3
:103410003C00002010B50446006B00F0CFF92046B8
:10342000BDE8104000F0CAB90F4840F6B831420775
:1034300005D0C01D0C4A20F00700821A891A0B4AD9
:1034400000230144C2E900030839103A21F00701C2
:1034500011604B600B600B1AC0E9001393604FF0D2
:1034600000405360D060704778030020880000203F
:10347000074C4FF08056074DFFF7A4FF2068012846
:10348000FAD92E60BFF34F8FBFF36F8FF4E70000C0
:103490008802002004ED00E02DE9F0479A46DDE9BE
:1034A000098481466FF00303206B03EB8202104412
:1034B000089D20F00706700707D0502080F3118880
:1034C000BFF34F8FBFF36F8FFEE723180A5C83F8BB
:1034D00034200A5C12B1401C1028F6D3002784F86F
:1034E0004370072D00D30625E562C4E91157201D5E
:1034F00000F008F904F1180000F004F92461C5F1A6
:1035000007006462A061E76484F85070524649463F
:10351000304600F0BFF82060B8F1000F01D0C8F8C5
:103520000040BDE8F087000030B5114900E01146C9
:103530000A688242FBD34B685C18844203D140681E
:1035400018444860084643681C18944209D1084C46
:10355000103C2468A24209D052681A4442600A68AA
:1035600012680260814200D0086030BD0460F9E753
:10357000880000200648416B096829B1416BC96881
:10358000C9684968816270474FF0FF31FAE700006F
:103590003C00002008484068401C4FF0500080F379
:1035A000118804D0BFF34F8FBFF36F8FFEE7BFF3D7
:1035B0004F8FBFF36F8FFEE7900000202DE9F041A1
:1035C0000546002700F092F9314E306808B9FFF740
:1035D0002BFFF06805424BD1C5B3083568070ED004
:1035E00005F00700C0F108000544680707D0502027
:1035F00080F31188BFF34F8FBFF36F8FFEE72DB3BA
:103600007068854234D82248103001460C6801E0C9
:1036100020460C466168A94202D221680029F7D1F0
:1036200031688C4224D007682168016060680837DF
:10363000411B10290FD96019420708D0502080F390
:103640001188BFF34F8FBFF36F8FFEE710E041602B
:103650006560FFF769FF61687068401A7060B26862
:10366000904200D2B060F06801430020C4E900013C
:1036700000F074FA780707D0502080F31188BFF368
:103680004F8FBFF36F8FFEE73846BDE8F081000033
:103690007800002010B5031F4FF080741C601B1FC2
:1036A00021F001011960191F044B0B6014390A60E5
:1036B000091F6FF0020244380A6010BD95350008FA
:1036C00008214FF09040FDF7E2B8D0E901320169DE
:1036D0009A60D0E901235A604A68824201D1826827
:1036E0004A60002202610868401E0860704700F1CD
:1036F00008014FF0FF32C0E90112C16001610021F1
:103700000160704700210161704730B50B685A1C99
:1037100002D000F1080202E0026904E02246546887
:1037200025689D42FAD953684B6099608A60516060
:1037300008610168491C016030BD42684A609368B5
:103740008B6093685960916008610168491C016051
:1037500070470000502080F31188BFF34F8FBFF3F4
:103760006F8F0A494868401C486001280CD10848FE
:10377000006810F0FF0F07D0502080F31188BFF3CE
:103780004F8FBFF36F8FFEE770470000900000205F
:1037900004ED00E00849486828B1401E486001D1A6
:1037A00080F311887047502080F31188BFF34F8F4A
:1037B000BFF36F8FFEE700009000002070B5002877
:1037C00027D0144DA0F108046168E868014207D1D0
:1037D000502080F31188BFF34F8FBFF36F8FFEE748
:1037E00022683AB1502080F31188BFF34F8FBFF3A6
:1037F0006F8FFEE78143616000F078F86068696868
:10380000084468602046FFF78FFEBDE8704000F076
:10381000A5B970BD7800002006484FF47A710068A1
:10382000B0FBF1F14FF0E020491E41610721016139
:10383000704700000800002010B5020014D00F48A7
:10384000006B38B1502080F31188BFF34F8FBFF366
:103850006F8FFEE700F04AF800211046FFF712FDD7
:1038600000F07CF9002807D105494FF0805008602E
:10387000BFF34F8FBFF36F8F10BD00003C000020DF
:1038800004ED00E01CB515480024CDE900402346B6
:10389000802213A1144800F0CFF8012809D0401C61
:1038A0001AD1502080F31188BFF34F8FBFF36F8F71
:1038B000FEE7502080F31188BFF34F8FBFF36F8F67
:1038C00006484FF0FF312C38816201214161C4600C
:1038D000BDE81C4000F040B81CBD0000680000209E
:1038E00049444C4500000000713400080248016B57
:1038F000491C0163704700003C0000201448016B24
:1039000011B10121C16170470021C1610169B1FAA2
:1039100081F1C1F11F0101EB81020E4951F8223002
:103920006BB101EB820101F108034A6852684A60F9
:103930009A4201D152684A60D168016070475020B4
:1039400080F31188BFF34F8FBFF36F8FFEE7000046
:103950003C000020880200201CB532480168324A31
:10396000914207D1502080F31188BFF34F8FBFF3EE
:103970006F8FFEE700682C49491E884207D150200E
:1039800080F31188BFF34F8FBFF36F8FFEE7274996
:1039900008780190FF20087008788DF800009DF8E5
:1039A00000009DF8002000F0F000904207D0502069
:1039B00080F31188BFF34F8FBFF36F8FFEE79DF841
:1039C00000001B4A00F0500010700720906005E0D6
:1039D0009DF800305B008DF80030401E9DF80030EF
:1039E0001B06F5D4000200F4E060906001980870B6
:1039F0000C482030016841F470010160016841F019
:103A000070410160FFF708FF00205060FCF7E8FB01
:103A10000848016841F040410160FCF7D1FB0020FB
:103A20001CBD000000ED00E071C20F4100E400E0A9
:103A30009000002034EF00E02DE9FF5F8346DDE9D0
:103A40000E87994616468A469000FFF7B7FD050097
:103A50001AD05420FFF7B2FD040012D025630021D4
:103A6000CDE90241CDE900874B46324651465846E2
:103A7000FFF712FD2046FFF73DFC012004B000F0E7
:103A800006B82846FFF79AFE4FF0FF30F6E730BC45
:103A9000BDE8C09F2DE9F0412E4C0027206B40B1BE
:103AA000A069401CA061E06900B101273846BDE86B
:103AB000F081E668761CE66013D1606B006838B16F
:103AC000502080F31188BFF34F8FBFF36F8FFEE755
:103AD000606BA16B6163A063206A401C2062FFF7EA
:103AE00049FDA06ADFF87080864209D3606B0068E8
:103AF00080B1606BC068C568686886420DD2A062FC
:103B00002068C06A00EB800158F821000128CAD95A
:103B10000127C8E74FF0FF30F1E7281DFFF7D5FD7B
:103B2000A86A18B105F11800FFF7CFFDE86A012176
:103B3000226981401143216100EB800108EB810083
:103B4000291DFFF7FAFDE86A2168C96A8842CDD3CA
:103B50000127CBE73C000020880200202DE9F04738
:103B60002C4D00242746286B38B1FFF7F3FD286B56
:103B7000401E2863286B40B146E0502080F3118836
:103B8000BFF34F8FBFF36F8FFEE7A968224E01206E
:103B9000D1B3A6F1B40980463068E8B1F068C468D2
:103BA00004F11800FFF791FD201DFFF78EFDE06A7C
:103BB0002A6908FA00F11143296100EB800109EB41
:103BC0008100211DFFF7B9FDE06A2968C96A8842B2
:103BD000E2D3C5F81C80DFE70CB1FFF7CBFCAC6982
:103BE00044B14646FFF756FF00B1EE61641EF9D1BD
:103BF0000020A861E86938B1084901273807086042
:103C0000BFF34F8FBFF36F8FFFF7C4FD3846BDE89A
:103C1000F08700003C0000203C03002004ED00E0A1
:103C2000FFFFFFFFFFFFFFFFFFFFFFFFFFFFFFFFA4
:103C3000FFFFFFFFFFFFFFFFFFFFFFFFFFFFFFFF94
:103C4000FFFFFFFFFFFFFFFFFFFFFFFFFFFFFFFF84
:103C5000FFFFFFFFFFFFFFFFFFFFFFFFFFFFFFFF74
:104B3000DFFFFFFFFFFFFFFFFFFFFFFFDFFFFFFFC5
:104B4000FFFFBEF7FBDE59CE9EF7FFFFBEF7FFFF6C
:104B5000FFFFFFFFFFFFFFFFFFFFFFFFFFFFFFFF65
:104B6000FFFFFFFFFFFFFFFFFFFFFFFFFFFFFFFF55
:104B7000FFFFFFFFFFFFFFFFFFFFFFFFFFFFFFFF45
:104B8000FFFFFFFFFFFFFFFFFFFFFFFFFFFFFFFF35
:104B9000FFFFFFFFFFFFFFFFFFFFFFFFFFFFFFFF25
:104BA000FFFFFFFFFFFFFFFFFFFFFFFFFFFFFFFF15
:104BB000FFFFFFFFFFFFFFFFFFFFFFFFFFFFFFFF05
:104BC000FFFFFFFFFFFFFFFFFFFFFFFFFFFFFFFFF5
:104BD000FFFFFFFFFFFFFFFFFFFFFFFFFFFFFFFFE5
:104BE000FFFFFFFFFFFFFFFFFFFFFFFFFFFFFFFFD5
:104BF000FFFFFFFFFFFFFFFFFFFFFFFFFFFFFFFFC5
:104C0000FFFFFFFFFFFFFFFFFFFFFFFFFFFFFFFFB4
:104C1000FFFFFFFFFFFFFFFFFFFFFFFFFFFFFFFFA4
:104C2000FFFFFFFFFFFFFFFFFFFFFFFFFFFFFFFF94
:104C3000FFFFFFFFFFFFFFFFFFFFFFFFFFFFFFFF84
:104C4000FFFFFFFFFFFFFFFFFFFFFFFFFFFFFFFF74
:104C5000FFFFFFFFFFFFFFFFFFFFFFFFFFFFFFFF64
:104C6000FFFFFFFFFFFFFFFFFFFFFFFFFFFFFFFF54
:104C7000FFFFFFFFFFFFFFFFFFFFFFFFFFFFFFFF44
:104C8000FFFFFFFFFFFFFFFFFFFFFFFFFFFFFFFF34
:104C9000FFFFFFFFFFFFFFFFFFFFFFFFFFFFFFFF24
:104CA000FFFFFFFFFFFFFFFFFFFFFFFFFFFFFFFF14
:104CB000FFFFFFFFFFFFFFFFFFFFFFFFFFFFFFFF04
:104CC000FFFFFFFFFFFFFFFFFFFFFFFFFFFFFFFFF4
:104CD000FFFFFFFFFFFFFFFFFFFFFFFFFFFFFFFFE4
:104CE000FFFFFFFFFFFFFFFFFFFFFFFFFFFFFFFFD4
:104CF000FFFFFFFFFFFFFFFFFFFFFFFFFFFFFFFFC4
:104D0000FFFFFFFFFFFFFFFFFFFFFFFFFFFFFFFFB3
:104D1000BEF7FFFFFFFFFFFFDFFFDFFFDFFFFFFF4C
:104D20005DEF9EF79EF79AD67DEFFFFFFFFFFFFF37
:104D3000FFFFFFFFFFFFFFFFFFFFFFFFFFFFFFFF83
:104D4000FFFFFFFFFFFFDFFFFFFFFFFFFFFFFFFF93
:104D5000FFFFFFFFFFFFFFFFFFFFFFFFFFFFFFFF63
:104D6000FFFFFFFFFFFFFFFFFFFFFFFFFFFFFFFF53
:104D7000FFFFFFFFFFFFFFFFFFFFFFFFFFFFFFFF43
:104D8000FFFFFFFFFFFFFFFFFFFFFFFFFFFFFFFF33
:104D9000FFFFFFFFFFFFFFFFFFFFFFFFFFFFFFFF23
:104DA000FFFFFFFFFFFFFFFFFFFFFFFFFFFFFFFF13
:104DB000FFFFFFFFFFFFFFFFFFFFFFFFFFFFFFFF03
:104DC000FFFFFFFFFFFFFFFFFFFFFFFFFFFFFFFFF3
:104DD000FFFFFFFFFFFFFFFFFFFFFFFFFFFFFFFFE3
:104DE000FFFFFFFFFFFFFFFFFFFFFFFFFFFFFFFFD3
:104DF000FFFFFFFFFFFFFFFFFFFFFFFFFFFFFFFFC3
:104E0000FFFFFFFFFFFFFFFFFFFFFFFFFFFFFFFFB2
:104E1000FFFFFFFFFFFFFFFFFFFFFFFFFFFFFFFFA2
:104E2000FFFFFFFFFFFFFFFFFFFFFFFFFFFFFFFF92
:104E3000FFFFFFFFFFFFFFFFFFFFFFFFFFFFFFFF82
:104E4000FFFFFFFFFFFFFFFFFFFFFFFFFFFFFFFF72
:104E5000FFFFFFFFFFFFFFFFFFFFFFFFFFFFFFFF62
:104E6000FFFFFFFFFFFFFFFFFFFFFFFFFFFFFFFF52
:104E7000FFFFFFFFFFFFFFFFFFFFFFFFFFFFFFFF42
:104E8000FFFFFFFFFFFFFFFFFFFFFFFFFFFFFFFF32
:104E9000FFFFFFFFFFFFFFFFFFFFFFFFFFFFFFFF22
:104EA000FFFFFFFFFFFFFFFFFFFFFFFFFFFFFFFF12
:104EB000FFFFFFFFFFFFFFFFFFFFFFFFFFFFFFFF02
:104EC000FFFFFFFFFFFFFFFFFFFFFFFFFFFFFFFFF2
:104ED000FFFFFFFFFFFFFFFFFFFFFFFFFFFFFFFFE2
:104EE000FFFFFFFFFFFFFFFFFFFFFFFFFFFFFFFFD2
:104EF000FFFFFFFFFFFFDFFFFFFFFFFFBEF77DEFBD
:104F0000DBDEBEF7DFFF79CEFBDEDFFFDFFFDFFF9B
:104F1000FFFFFFFFFFFFFFFFFFFFFFFFFFFFFFFFA1
:104F2000FFFFFFFFDFFFDFFFFFFFFFFFFFFFFFFFD1
:104F3000FFFFFFFFFFFFFFFFFFFFFFFFFFFFDFFFA1
:104F4000FFFFFFFFFFFFFFFFFFFFFFFFFFFFFFFF71
:104F5000FFFFFFFFFFFFFFFFFFFFFFFFFFFFFFFF61
:104F6000FFFFFFFFFFFFFFFFFFFFFFFFFFFFFFFF51
:104F7000FFFFFFFFFFFFFFFFFFFFFFFFFFFFFFFF41
:104F8000FFFFFFFFFFFFFFFFFFFFFFFFFFFFFFFF31
:104F9000FFFFFFFFFFFFFFFFFFFFFFFFFFFFFFFF21
:104FA000FFFFFFFFFFFFFFFFFFFFFFFFFFFFFFFF11
:104FB000FFFFFFFFFFFFFFFFFFFFFFFFFFFFFFFF01
:104FC000FFFFFFFFFFFFFFFFFFFFFFFFFFFFFFFFF1
:104FD000FFFFFFFFFFFFFFFFFFFFFFFFFFFFFFFFE1
:104FE000FFFFFFFFFFFFFFFFFFFFFFFFFFFFFFFFD1
:104FF000FFFFFFFFFFFFFFFFFFFFFFFFFFFFFFFFC1
:10500000FFFFFFFFFFFFFFFFFFFFFFFFFFFFFFFFB0
:10501000FFFFFFFFFFFFFFFFFFFFFFFFFFFFFFFFA0
:10502000FFFFFFFFFFFFFFFFFFFFFFFFFFFFFFFF90
:10503000FFFFFFFFFFFFFFFFDFFFDFFFFFFFFFFFC0
:10504000FFFFFFFFFFFFFFFFFFFFFFFFFFFFFFFF70
:10505000FFFFFFFFFFFFFFFFFFFFFFFFFFFFFFFF60
:10506000FFFFFFFFFFFFFFFFFFFFFFFFFFFFFFFF50
:10507000FFFFFFFFFFFFFFFFFFFFFFFFFFFFFFFF40
:10508000FFFFFFFFFFFFFFFFFFFFFFFFFFFFFFFF30
:10509000FFFFFFFFFFFFFFFFFFFFFFFFFFFFFFFF20
:1050A000FFFFFFFFFFFFFFFFFFFFFFFFFFFFFFFF10
:1050B000FFFFFFFFFFFFFFFFFFFFFFFFFFFFFFFF00
:1050C000FFFFFFFFFFFFFFFFFFFFFFFFFFFFFFFFF0
:1050D000FFFFDFFFBEF7FFFFFFFFBEF75DEF7DEFD6
:1050E000DFFFFFFFFFFF79CEDBDEDFFFFFFF9EF775
:1050F000DFFFDFFFDFFFFFFFFFFFFFFFFFFFFFFF20
:10510000FFFFFFFFFFFFFFFFFFFFDFFFFFFFFFFFCF
:10511000FFFFFFFFFFFFFFFFFFFFFFFFFFFFFFFF9F
:10512000FFFFFFFFFFFFFFFFFFFFFFFFFFFFFFFF8F
:10513000FFFFFFFFFFFFFFFFFFFFFFFFFFFFFFFF7F
:10514000FFFFFFFFFFFFFFFFFFFFFFFFFFFFFFFF6F
:10515000FFFFFFFFFFFFFFFFFFFFFFFFFFFFFFFF5F
:10516000FFFFFFFFFFFFFFFFFFFFFFFFFFFFFFFF4F
:10517000FFFFFFFFFFFFFFFFFFFFFFFFFFFFFFFF3F
:10518000FFFFFFFFFFFFFFFFFFFFFFFFFFFFFFFF2F
:10519000FFFFFFFFFFFFFFFFFFFFFFFFFFFFFFFF1F
:1051A000FFFFFFFFFFFFFFFFFFFFFFFFFFFFFFFF0F
:1051B000FFFFFFFFFFFFFFFFFFFFFFFFFFFFFFFFFF
:1051C000FFFFFFFFFFFFFFFFFFFFFFFFFFFFFFFFEF
:1051D000FFFFFFFFFFFFFFFFFFFFFFFFFFFFFFFFDF
:1051E000FFFFFFFFFFFFFFFFFFFFFFFFFFFFFFFFCF
:1051F000FFFFFFFFFFFFFFFFFFFFFFFFFFFFFFFFBF
:10520000FFFFFFFFFFFFFFFFFFFFFFFFFFFFFFFFAE
:10521000FFFFFFFFFFFFFFFFFFFFDFFFFFFFFFFFBE
:10522000FFFFFFFFFFFFFFFFFFFFFFFFFFFFFFFF8E
:10523000FFFFFFFFFFFFFFFFFFFFFFFFFFFFFFFF7E
:10524000FFFFFFFFFFFFFFFFFFFFFFFFFFFFFFFF6E
:10525000FFFFFFFFFFFFFFFFFFFFFFFFFFFFFFFF5E
:10526000FFFFFFFFFFFFFFFFFFFFFFFFFFFFFFFF4E
:10527000FFFFFFFFFFFFFFFFFFFFFFFFFFFFFFFF3E
:10528000FFFFFFFFFFFFFFFFFFFFFFFFFFFFFFFF2E
:10529000FFFFFFFFFFFFFFFFFFFFFFFFFFFFFFFF1E
:1052A000FFFFFFFFFFFFFFFFFFFFFFFFFFFFFFFF0E
:1052B000DFFFFFFFFFFFFFFF7DEF3CE79EF7FFFFF4
:1052C000FFFFFFFFFFFF79CE79CE3CE77DEF5DEF7B
:1052D0009EF7BEF7BEF7BEF7BEF7DFFFDFFFDFFFCB
:1052E000FFFFFFFFFFFFFFFFFFFFFFFFFFFFFFFFCE
:1052F000FFFFFFFFFFFFFFFFFFFFFFFFFFFFFFFFBE
:10530000FFFFFFFFFFFFFFFFFFFFFFFFFFFFFFFFAD
:10531000FFFFFFFFFFFFFFFFFFFFFFFFFFFFFFFF9D
:10532000FFFFFFFFFFFFFFFFFFFFFFFFFFFFFFFF8D
:10533000FFFFFFFFFFFFFFFFFFFFFFFFFFFFFFFF7D
:10534000FFFFFFFFFFFFFFFFFFFFFFFFFFFFFFFF6D
:10535000FFFFFFFFFFFFFFFFFFFFFFFFFFFFFFFF5D
:10536000FFFFFFFFFFFFFFFFFFFFFFFFFFFFFFFF4D
:10537000FFFFFFFFFFFFFFFFFFFFFFFFFFFFFFFF3D
:10538000FFFFFFFFFFFFFFFFFFFFFFFFFFFFFFFF2D
:10539000FFFFFFFFFFFFFFFFFFFFFFFFFFFFFFFF1D
:1053A000FFFFFFFFFFFFFFFFFFFFFFFFFFFFFFFF0D
:1053B000FFFFFFFFFFFFFFFFFFFFFFFFFFFFFFFFFD
:1053C000FFFFFFFFFFFFFFFFFFFFFFFFFFFFFFFFED
:1053D000FFFFFFFFFFFFFFFFFFFFFFFFFFFFFFFFDD
:1053E000FFFFFFFFFFFFFFFFFFFFFFFFFFFFFFFFCD
:1053F000FFFFFFFFFFFFFFFFFFFFFFFFFFFFFFFFBD
:10540000FFFFFFFFFFFFFFFFFFFFFFFFFFFFFFFFAC
:10541000FFFFFFFFFFFFFFFFFFFFFFFFFFFFFFFF9C
:10542000FFFFFFFFFFFFFFFFFFFFFFFFFFFFFFFF8C
:10543000FFFFFFFFFFFFFFFFFFFFFFFFFFFFFFFF7C
:10544000FFFFFFFFFFFFFFFFFFFFFFFFFFFFFFFF6C
:10545000FFFFFFFFFFFFFFFFFFFFFFFFFFFFFFFF5C
:10546000FFFFFFFFFFFFFFFFFFFFFFFFFFFFFFFF4C
:10547000FFFFFFFFFFFFFFFFFFFFFFFFFFFFFFFF3C
:10548000FFFFFFFFFFFFFFFFFFFFFFFFFFFFFFFF2C
:10549000FFFFFFFFFFFF5DEF1CE77DEFFFFFFFFF5B
:1054A0009EF7DFFFFFFF1CE7DBDE1CE73CE77DEF3D
:1054B0005DEF5DEF5DEF7DEF7DEF7DEF7DEF7DEFEC
:1054C000DBDE9AD679CEDBDE5DEFDFFFFFFFFFFF8D
:1054D000FFFFFFFFFFFFFFFFFFFFFFFFFFFFFFFFDC
:1054E000FFFFFFFFFFFFFFFFFFFFFFFFFFFFFFFFCC
:1054F000FFFFFFFFFFFFFFFFFFFFFFFFFFFFFFFFBC
:10550000FFFFFFFFFFFFFFFFFFFFFFFFFFFFFFFFAB
:10551000FFFFFFFFFFFFFFFFFFFFFFFFFFFFFFFF9B
:10552000FFFFFFFFFFFFFFFFFFFFFFFFFFFFFFFF8B
:10553000FFFFFFFFFFFFFFFFFFFFFFFFFFFFFFFF7B
:10554000FFFFFFFFFFFFFFFFFFFFFFFFFFFFFFFF6B
:10555000FFFFFFFFFFFFFFFFFFFFFFFFFFFFFFFF5B
:10556000FFFFFFFFFFFFFFFFFFFFFFFFFFFFFFFF4B
:10557000FFFFFFFFFFFFFFFFFFFFFFFFFFFFFFFF3B
:10558000FFFFFFFFFFFFFFFFFFFFFFFFFFFFFFFF2B
:10559000FFFFFFFFFFFFFFFFFFFFFFFFFFFFFFFF1B
:1055A000FFFFFFFFFFFFFFFFFFFFFFFFFFFFFFFF0B
:1055B000FFFFFFFFFFFFFFFFFFFFFFFFFFFFFFFFFB
:1055C000FFFFFFFFFFFFFFFFFFFFFFFFFFFFFFFFEB
:1055D000FFFFFFFFFFFFFFFFFFFFFFFFFFFFFFFFDB
:1055E000FFFFFFFFFFFFFFFFFFFFFFFFFFFFFFFFCB
:1055F000FFFFFFFFFFFFFFFFFFFFFFFFFFFFFFFFBB
:10560000FFFFFFFFFFFFFFFFFFFFFFFFFFFFFFFFAA
:10561000FFFFFFFFFFFFFFFFFFFFFFFFFFFFFFFF9A
:10562000FFFFFFFFFFFFFFFFFFFFFFFFFFFFFFFF8A
:10563000FFFFFFFFFFFFFFFFFFFFFFFFFFFFFFFF7A
:10564000FFFFFFFFFFFFFFFFFFFFFFFFFFFFFFFF6A
:10565000FFFFFFFFFFFFFFFFFFFFFFFFFFFFFFFF5A
:10566000FFFFFFFFFFFFFFFFFFFFFFFFFFFFFFFF4A
:10567000FFFFBEF77DEF5DEF7DEFFFFFFFFFDFFF79
:10568000FFFFFFFFFFFFFFFFDFFFDFFFDFFFFFFF8A
:10569000FFFFFFFFFFFFFFFFFFFFFFFFFFFFFFFF1A
:1056A000DFFFFFFFFFFFDFFF5DEFFBDE1CE77DEFAE
:1056B0007DEFBEF7FFFFFFFFFFFFFFFFFFFFFFFFD5
:1056C000FFFFFFFFFFFFFFFFFFFFFFFFFFFFFFFFEA
:1056D000FFFFFFFFFFFFFFFFFFFFFFFFFFFFFFFFDA
:1056E000FFFFFFFFFFFFFFFFFFFFFFFFFFFFFFFFCA
:1056F000FFFFFFFFFFFFFFFFFFFFFFFFFFFFFFFFBA
:10570000FFFFFFFFFFFFFFFFFFFFFFFFFFFFFFFFA9
:10571000FFFFFFFFFFFFFFFFFFFFFFFFFFFFFFFF99
:10572000FFFFFFFFFFFFFFFFFFFFFFFFFFFFFFFF89
:10573000FFFFFFFFFFFFFFFFFFFFFFFFFFFFFFFF79
:10574000FFFFFFFFFFFFFFFFFFFFFFFFFFFFFFFF69
:10575000FFFFFFFFFFFFFFFFFFFFFFFFFFFFFFFF59
:10576000FFFFFFFFFFFFFFFFFFFFFFFFFFFFFFFF49
:10577000FFFFFFFFFFFFFFFFFFFFFFFFFFFFFFFF39
:10578000FFFFFFFFFFFFFFFFFFFFFFFFFFFFFFFF29
:10579000FFFFFFFFFFFFFFFFFFFFFFFFFFFFFFFF19
:1057A000FFFFFFFFFFFFFFFFFFFFFFFFFFFFFFFF09
:1057B000FFFFFFFFDFFFBEF7DFFFFFFFFFFFFFFF82
:1057C000FFFFFFFFFFFFFFFFFFFFFFFFFFFFFFFFE9
:1057D000FFFFFFFFFFFFFFFFFFFFFFFFFFFFFFFFD9
:1057E000FFFFFFFFFFFFFFFFFFFFFFFFFFFFFFFFC9
:1057F000FFFFFFFFFFFFFFFFFFFFFFFFFFFFFFFFB9
:10580000FFFFFFFFFFFFFFFFFFFFFFFFFFFFFFFFA8
:10581000FFFFFFFFFFFFFFFFFFFFFFFFFFFFFFFF98
:10582000FFFFFFFFFFFFFFFFFFFFFFFFFFFFFFFF88
:10583000FFFFFFFFFFFFFFFFFFFFFFFFFFFFFFFF78
:10584000FFFFFFFFFFFFFFFFFFFFFFFFFFFFFFFF68
:10585000DFFF1CE75DEFFFFFFFFFFFFFFFFFDFFF45
:10586000FFFF9EF7DFFFBEF7FFFFFFFFDFFFDFFF5A
:10587000DFFFDFFFDFFFDFFFDFFFDFFFDFFFDFFF38
:10588000DFFFDFFFDFFFFFFFFFFFDFFF5DEFFBDE7F
:105890001CE77DEFDFFFFFFFFFFFDFFFDFFFFFFF05
:1058A000FFFFFFFFFFFFFFFFFFFFFFFFFFFFFFFF08
:1058B000FFFFFFFFFFFFFFFFFFFFFFFFFFFFFFFFF8
:1058C000FFFFFFFFFFFFFFFFFFFFFFFFFFFFFFFFE8
:1058D000FFFFFFFFFFFFFFFFFFFFFFFFFFFFFFFFD8
:1058E000FFFFFFFFFFFFFFFFFFFFFFFFFFFFFFFFC8
:1058F000FFFFFFFFFFFFFFFFFFFFFFFFFFFFFFFFB8
:10590000FFFFFFFFFFFFFFFFFFFFFFFFFFFFFFFFA7
:10591000FFFFFFFFFFFFFFFFFFFFFFFFFFFFFFFF97
:10592000FFFFFFFFFFFFFFFFFFFFFFFFFFFFFFFF87
:10593000FFFFFFFFFFFFFFFFFFFFFFFFFFFFFFFF77
:10594000FFFFFFFFFFFFFFFFFFFFFFFFFFFFFFFF67
:10595000FFFFFFFFFFFFFFFFFFFFFFFFFFFFFFFF57
:10596000FFFFFFFFFFFFFFFFFFFFFFFFFFFFFFFF47
:10597000FFFFFFFFFFFFFFFFFFFFFFFFFFFFFFFF37
:10598000FFFFFFFFFFFFFFFFFFFFFFFFFFFFFFFF27
:10599000FFFFFFFF9EF77DEFBEF7FFFFFFFFFFFF5B
:1059A000FFFFFFFFFFFFFFFFFFFFFFFFFFFFFFFF07
:1059B000FFFFFFFFFFFFFFFFFFFFFFFFFFFFFFFFF7
:1059C000FFFFFFFFFFFFFFFFFFFFFFFFFFFFFFFFE7
:1059D000FFFFFFFFFFFFFFFFFFFFFFFFFFFFFFFFD7
:1059E000FFFFFFFFFFFFFFFFFFFFFFFFFFFFFFFFC7
:1059F000FFFFFFFFFFFFFFFFFFFFFFFFFFFFFFFFB7
:105A0000FFFFFFFFFFFFFFFFFFFFFFFFFFFFFFFFA6
:105A1000FFFFFFFFFFFFFFFFFFFFFFFFFFFFFFFF96
:105A2000FFFFFFFFFFFFFFFFFFFFFFFFDFFF9EF70F
:105A3000FBDEFFFFFFFFBEF7DFFFFFFFFFFFDFFF24
:105A4000FFFFFFFFFFFFBEF7DFFFBEF79EF7FFFF81
:105A5000DFFFDFFFDFFFDFFFDFFFDFFFDFFFDFFF56
:105A6000DFFFDFFFDFFFBEF79EF79EF7BEF7FFFF0A
:105A7000FFFFF7BD5DEFDFFFBEF7FFFFBEF7DFFF04
:105A8000FFFFFFFFFFFFFFFFFFFFFFFFFFFFFFFF26
:105A9000FFFFFFFFFFFFFFFFFFFFFFFFFFFFFFFF16
:105AA000FFFFFFFFFFFFFFFFFFFFFFFFFFFFFFFF06
:105AB000FFFFFFFFFFFFFFFFFFFFFFFFFFFFFFFFF6
:105AC000FFFFFFFFFFFFFFFFFFFFFFFFFFFFFFFFE6
:105AD000FFFFFFFFFFFFFFFFFFFFFFFFFFFFFFFFD6
:105AE000FFFFFFFFFFFFFFFFFFFFFFFFFFFFFFFFC6
:105AF000FFFFFFFFFFFFFFFFFFFFFFFFFFFFFFFFB6
:105B0000FFFFFFFFFFFFFFFFFFFFFFFFFFFFFFFFA5
:105B1000FFFFFFFFFFFFFFFFFFFFFFFFFFFFFFFF95
:105B2000FFFFFFFFFFFFFFFFFFFFFFFFFFFFFFFF85
:105B3000FFFFFFFFFFFFFFFFFFFFFFFFFFFFFFFF75
:105B4000FFFFFFFFFFFFFFFFFFFFFFFFFFFFFFFF65
:105B5000FFFFFFFFFFFFFFFFFFFFFFFFFFFFFFFF55
:105B6000DFFFBEF7FFFFFFFFDFFFFFFFFFFFDFFFEE
:105B7000FFFFDFFF9AD628428E737DEFDFFFFFFF26
:105B8000FFFFDFFFDFFFFFFFFFFFFFFFFFFFFFFF65
:105B9000FFFFFFFFFFFFFFFFFFFFFFFFFFFFFFFF15
:105BA000FFFFFFFFDFFFFFFFFFFFFFFFFFFFFFFF25
:105BB000FFFFFFFFFFFFBEF7FFFF9EF7FFFFFFFFA7
:105BC000DFFFFFFFFFFFFFFFFFFFFFFFFFFFFFFF05
:105BD000FFFFFFFFFFFFFFFFFFFFFFFFFFFFFFFFD5
:105BE000FFFFFFFFFFFFFFFFFFFFFFFFFFFFFFFFC5
:105BF000FFFFFFFFFFFFFFFFFFFFFFFFFFFFFFFFB5
:105C0000FFFFFFFFFFFFFFFFFFFFDFFF7DEF5DEF08
:105C1000DFFFFFFFFFFFFFFFFFFFDFFFFFFFFFFFD4
:105C2000BEF7DFFFBEF7BEF7FFFFFFFFDFFFFFFF9F
:105C3000DFFFDFFFDFFFDFFFBEF7BEF7BEF7BEF718
:105C4000BEF7DFFFBEF7BEF7BEF79EF7BEF7BEF7A3
:105C5000BEF7BEF7BAD6DBDE9EF77DEFFFFFBEF7DD
:105C6000FFFFFFFFFFFFFFFFFFFFFFFFFFFFFFFF44
:105C7000FFFFFFFFFFFFFFFFFFFFFFFFFFFFFFFF34
:105C8000FFFFFFFFFFFFFFFFFFFFFFFFFFFFFFFF24
:105C9000FFFFFFFFFFFFFFFFFFFFFFFFFFFFFFFF14
:105CA000FFFFFFFFFFFFFFFFFFFFFFFFFFFFFFFF04
:105CB000FFFFFFFFFFFFFFFFFFFFFFFFFFFFFFFFF4
:105CC000FFFFFFFFFFFFFFFFFFFFFFFFFFFFFFFFE4
:105CD000FFFFFFFFFFFFFFFFFFFFFFFFFFFFFFFFD4
:105CE000FFFFFFFFFFFFFFFFFFFFFFFFFFFFFFFFC4
:105CF000FFFFFFFFFFFFFFFFFFFFFFFFFFFFFFFFB4
:105D0000FFFFFFFFFFFFFFFFFFFFFFFFFFFFFFFFA3
:105D1000FFFFFFFFFFFFFFFFFFFFFFFFFFFFFFFF93
:105D2000FFFFFFFFFFFFFFFFFFFFFFFFFFFFFFFF83
:105D3000FFFFFFFFFFFFFFFFFFFFFFFFFFFFFFFF73
:105D4000FFFFFFFFBEF7BEF7FFFFFFFFBEF7FFFF3E
:105D50007DEFFFFFBAD66529694A1CE7FFFFFFFF09
:105D6000DFFFFFFFFFFFDFFFDFFFFFFFFFFFFFFFA3
:105D7000FFFFFFFFFFFFFFFFFFFFFFFFFFFFFFFF33
:105D8000FFFFBEF7FFFFFFFFFFFFFFFFF7BDE73994
:105D9000494A8E73FFFFFFFFDFFFFFFFBEF7FFFFE4
:105DA000FFFFFFFFDFFFFFFFDFFFBEF7FFFFFFFF8C
:105DB000FFFFFFFFFFFFFFFFFFFFFFFFFFFFFFFFF3
:105DC000FFFFFFFFFFFFFFFFFFFFFFFFFFFFFFFFE3
:105DD000FFFFFFFFFFFFFFFFFFFFFFFFFFFFFFFFD3
:105DE000DFFFFFFFFFFFFFFFFFFFDFFF7DEF3CE770
:105DF000FFFFFFFFDFFFDFFFFFFFFFFFFFFFFFFFF3
:105E0000DFFFDFFFBEF7BEF7FFFFFFFFBEF7BEF706
:105E1000DFFFBEF7BEF7BEF7BEF7BEF7BEF7BEF7B1
:105E2000BEF7BEF7BEF7BEF7BEF7BEF79EF79EF70A
:105E3000BEF7FFFF7DEF79CEDBDE5DEF7DEFDFFFAD
:105E4000DFFFDFFFFFFFFFFFFFFFFFFFFFFFFFFFA2
:105E5000FFFFFFFFFFFFFFFFFFFFFFFFFFFFFFFF52
:105E6000FFFFFFFFFFFFFFFFFFFFFFFFFFFFFFFF42
:105E7000FFFFFFFFFFFFFFFFFFFFFFFFFFFFFFFF32
:105E8000FFFFFFFFFFFFFFFFFFFFFFFFFFFFFFFF22
:105E9000FFFFFFFFFFFFFFFFFFFFFFFFFFFFFFFF12
:105EA000FFFFFFFFFFFFFFFFFFFFFFFFFFFFFFFF02
:105EB000FFFFFFFFFFFFFFFFFFFFFFFFFFFFFFFFF2
:105EC000FFFFFFFFFFFFFFFFFFFFFFFFFFFFFFFFE2
:105ED000FFFFFFFFFFFFFFFFFFFFFFFFFFFFFFFFD2
:105EE000FFFFFFFFFFFFFFFFFFFFFFFFFFFFFFFFC2
:105EF000FFFFFFFFFFFFFFFFFFFFFFFFFFFFFFFFB2
:105F0000FFFFFFFFFFFFFFFFFFFFFFFFFFFFFFFFA1
:105F1000FFFFFFFFFFFFFFFFFFFFFFFFFFFFFFFF91
:105F20007DEFFFFFFFFFFFFFFFFF7DEFDBDEBEF733
:105F3000FFFF3CE7AE73C739518C3CE7D7BD96B540
:105F400055AD3CE7FFFFDFFFDFFFFFFFDFFFFFFF98
:105F5000FFFFFFFFFFFFFFFFFFFFFFFFFFFFFFFF51
:105F6000FFFFFFFFFFFFFFFFBEF7FFFFBEF730841D
:105F7000C739C739BAD6DFFFBEF7BEF7FFFFFFFF4D
:105F8000FFFF9EF7BEF7FFFFFFFFDFFFFFFFDFFF13
:105F9000FFFFFFFFFFFFFFFFFFFFFFFFFFFFFFFF11
:105FA000FFFFFFFFFFFFFFFFFFFFFFFFFFFFFFFF01
:105FB000FFFFFFFFFFFFFFFFFFFFFFFFFFFFFFFFF1
:105FC000FFFFFFFFFFFFFFFFFFFFBEF75DEF1CE7D7
:105FD0005DEFFFFFFFFFDFFFBEF7FFFFFFFFBEF735
:105FE000FFFFFFFFFFFFDFFFDFFFDFFFDFFFFFFF41
:105FF000DFFFDFFFDFFFBEF7BEF7BEF7BEF7BEF77E
:10600000BEF7BEF79EF7BEF7BEF7BEF79EF77DEF71
:106010009EF75DEFFFFF7DEF59CEBAD6FBDE7DEF39
:106020009EF7BEF7DFFFFFFFFFFFFFFFFFFFFFFF52
:10603000FFFFFFFFFFFFFFFFFFFFFFFFFFFFFFFF70
:10604000FFFFFFFFFFFFFFFFFFFFFFFFFFFFFFFF60
:10605000FFFFFFFFFFFFFFFFFFFFFFFFFFFFFFFF50
:10606000FFFFFFFFFFFFFFFFFFFFFFFFFFFFFFFF40
:10607000FFFFFFFFFFFFFFFFFFFFFFFFFFFFFFFF30
:10608000FFFFFFFFFFFFFFFFFFFFFFFFFFFFFFFF20
:10609000FFFFFFFFFFFFFFFFFFFFFFFFFFFFFFFF10
:1060A000FFFFFFFFFFFFFFFFFFFFFFFFFFFFFFFF00
:1060B000FFFFFFFFFFFFFFFFFFFFFFFFFFFFFFFFF0
:1060C000FFFFFFFFFFFFFFFFFFFFFFFFFFFFFFFFE0
:1060D000FFFFFFFFFFFFFFFFFFFFFFFFFFFFFFFFD0
:1060E000FFFFFFFFFFFFFFFFFFFFFFFFFFFFFFFFC0
:1060F000FFFFFFFFFFFFFFFFFFFFFFFFFFFFFFFFB0
:10610000FFFFBEF73CE718C614A54D6B0842AE73FF
:10611000FFFF59CE494AE739CB5AAE7308422842AD
:10612000EB5AD7BD9EF7BEF7DFFFFFFFDFFFFFFF94
:10613000FFFFFFFFFFFFFFFFFFFFFFFFFFFFFFFF6F
:106140009EF7FFFF9EF7FFFFFFFF7DEFFFFF9EF72C
:106150009294AA52FBDED7BD518C518C1084FBDE89
:10616000BEF7FFFFFFFFFFFFFFFFFFFFFFFFFFFF88
:10617000FFFFFFFFFFFFFFFFFFFFFFFFFFFFFFFF2F
:10618000FFFFFFFFFFFFFFFFFFFFFFFFFFFFFFFF1F
:10619000FFFFFFFFFFFFFFFFFFFFFFFFFFFFFFFF0F
:1061A000FFFFFFFFFFFFFFFFFFFFFFFFBEF79EF7B1
:1061B0009AD63CE7FFFFFFFFDFFFBEF7BEF7DFFF2A
:1061C000FFFFDFFFBEF7BEF7BEF7BEF7DFFFBEF78C
:1061D000BEF7BEF7BEF7BEF7BEF79EF79EF79EF777
:1061E000DFFFBEF79EF79EF79EF7BEF79EF79EF77E
:1061F0005DEFBEF79EF7FFFF3CE7F7BDBAD6DBDEEB
:106200005DEF9EF7DFFFFFFFFFFFFFFFFFFFFFFFD9
:10621000FFFFFFFFFFFFFFFFFFFFFFFFFFFFFFFF8E
:10622000FFFFFFFFFFFFFFFFFFFFFFFFFFFFFFFF7E
:10623000FFFFFFFFFFFFFFFFFFFFFFFFFFFFFFFF6E
:10624000FFFFFFFFFFFFFFFFFFFFFFFFFFFFFFFF5E
:10625000FFFFFFFFFFFFFFFFFFFFFFFFFFFFFFFF4E
:10626000FFFFFFFFFFFFFFFFFFFFFFFFFFFFFFFF3E
:10627000FFFFFFFFFFFFFFFFFFFFFFFFFFFFFFFF2E
:10628000FFFFFFFFFFFFFFFFFFFFFFFFFFFFFFFF1E
:10629000FFFFFFFFFFFFFFFFFFFFFFFFFFFFFFFF0E
:1062A000FFFFFFFFFFFFFFFFFFFFFFFFFFFFFFFFFE
:1062B000FFFFFFFFFFFFFFFFFFFFFFFFFFFFFFFFEE
:1062C000FFFFFFFFFFFFFFFFFFFFFFFFFFFFFFFFDE
:1062D000FFFFFFFFFFFFFFFFFFFFFFFFFFFFFFFFCE
:1062E00075AD694AE739652908424D6BAE7318C62A
:1062F0007DEFEF7BE73996B579CEF39C694A8A52F8
:10630000929479CE7DEF7DEFBEF79EF77DEFFFFF94
:10631000FFFFFFFFFFFFFFFFFFFFFFFFFFFFFFFF8D
:10632000FFFFFBDECB5A14A5FFFF7DEF3CE779CEE4
:106330001084AA52694A8A52AE73AA52494AE7396E
:10634000B2949EF7FFFF7DEFFFFFFFFFFFFFFFFF10
:10635000FFFFFFFFFFFFFFFFFFFFFFFFFFFFFFFF4D
:10636000FFFFFFFFFFFFFFFFFFFFFFFFFFFFFFFF3D
:10637000FFFFFFFFFFFFFFFFFFFFFFFFFFFFFFFF2D
:10638000FFFFFFFFFFFFFFFFFFFFFFFFDFFFBEF786
:106390005DEF79CEDBDEBEF7FFFFFFFFBEF7DFFF6D
:1063A000DFFF9EF79EF7DFFFFFFFFFFFDFFF7DEFC1
:1063B000DFFFDFFFBEF7BEF7BEF7BEF7BEF7BEF7E3
:1063C000BEF7BEF79EF79EF79EF79EF79EF79EF7E5
:1063D0009EF7DFFF3CE77DEFFFFFBAD675ADBAD67B
:1063E000FBDE5DEF9EF7DFFFFFFFFFFFFFFFFFFF1D
:1063F000FFFFFFFFFFFFFFFFFFFFFFFFFFFFFFFFAD
:10640000FFFFFFFFFFFFFFFFFFFFFFFFFFFFFFFF9C
:10641000FFFFFFFFFFFFFFFFFFFFFFFFFFFFFFFF8C
:10642000FFFFFFFFFFFFFFFFFFFFFFFFFFFFFFFF7C
:10643000FFFFFFFFFFFFFFFFFFFFFFFFFFFFFFFF6C
:10644000FFFFFFFFFFFFFFFFFFFFFFFFFFFFFFFF5C
:10645000FFFFFFFFFFFFFFFFFFFFFFFFFFFFFFFF4C
:10646000FFFFFFFFFFFFFFFFFFFFFFFFFFFFFFFF3C
:10647000FFFFFFFFFFFFFFFFFFFFFFFFFFFFFFFF2C
:10648000FFFFFFFFFFFFFFFFFFFFFFFFFFFFFFFF1C
:10649000FFFFFFFFFFFFFFFFFFFFFFFFFFFFFFFF0C
:1064A000FFFFFFFFFFFFFFFFFFFFFFFFFFFFFFFFFC
:1064B000FFFFFFFFFFFFFFFFFFFFFFFFFFFFFFFFEC
:1064C000BEF7F7BD718CC739EB5A1CE7DFFFDFFF62
:1064D000F39CCB5ACF7BDFFFBAD64D6BEB5A75AD31
:1064E0009AD61CE71CE71CE79EF7BEF79EF7DFFF76
:1064F000DFFFDFFFFFFFFFFFFFFFFFFFFFFFFFFFEC
:10650000FFFFB6B565290842494A2842AE73EF7BC2
:1065100075AD75AD5DEF7DEF5DEF1084C739694AEC
:10652000CB5A9AD69EF77DEFFFFFDFFFBEF7DFFF66
:10653000FFFFFFFFFFFFFFFFFFFFFFFFFFFFFFFF6B
:10654000FFFFFFFFFFFFFFFFFFFFFFFFFFFFFFFF5B
:10655000FFFFFFFFFFFFFFFFFFFFFFFFFFFFFFFF4B
:10656000FFFFFFFFFFFFFFFFFFFFFFFFDFFFDFFF7B
:10657000DFFF9AD618C679CE3CE7FFFFFFFF9EF7F4
:10658000DFFFDFFFFFFFFFFFDFFFFFFFFFFFFFFF7B
:10659000FFFFFFFFFFFFFFFFFFFFFFFFFFFFFFFF0B
:1065A0009EF79EF7BEF79EF79EF79EF77DEF9EF74C
:1065B000DFFF7DEF9EF7FBDEFFFFFFFFF39C38C69A
:1065C0009AD6FBDE5DEFBEF7BEF7DFFFFFFFFFFFF2
:1065D000FFFFFFFFFFFFFFFFFFFFFFFFFFFFFFFFCB
:1065E000FFFFFFFFFFFFFFFFFFFFFFFFFFFFFFFFBB
:1065F000FFFFFFFFFFFFFFFFFFFFFFFFFFFFFFFFAB
:10660000FFFFFFFFFFFFFFFFFFFFFFFFFFFFFFFF9A
:10661000FFFFFFFFFFFFFFFFFFFFFFFFFFFFFFFF8A
:10662000FFFFFFFFFFFFFFFFFFFFFFFFFFFFFFFF7A
:10663000FFFFFFFFFFFFFFFFFFFFFFFFFFFFFFFF6A
:10664000FFFFFFFFFFFFFFFFFFFFFFFFFFFFFFFF5A
:10665000FFFFFFFFFFFFFFFFFFFFFFFFFFFFFFFF4A
:10666000FFFFFFFFFFFFFFFFFFFFFFFFFFFFFFFF3A
:10667000FFFFFFFFFFFFFFFFFFFFFFFFFFFFFFFF2A
:10668000FFFFFFFFFFFFFFFFFFFFFFFFFFFFFFFF1A
:10669000FFFFFFFFFFFFFFFFFFFFFFFFFFFFFFFF0A
:1066A000FFFFFFFF55AD86316D6B9EF77DEF34A583
:1066B000494A9294FBDEDBDE718C8A52EB5A3084BD
:1066C00075AD18C69AD6DBDE3CE77DEF9EF79EF7E8
:1066D000DFFFDFFFDFFFFFFFFFFFFFFFFFFFFFFF2A
:1066E000BEF74D6B86319294F7BD1CE7DFFF3CE7A8
:1066F0003CE73CE7FBDEFBDEB6B528426D6B14A53C
:1067000096B59EF7BEF77DEF9EF77DEFFFFFFFFF8B
:10671000FFFFFFFFFFFFFFFFFFFFFFFFFFFFFFFF89
:10672000FFFFFFFFFFFFFFFFFFFFFFFFFFFFFFFF79
:10673000FFFFFFFFFFFFFFFFFFFFFFFFFFFFFFFF69
:10674000FFFFFFFFFFFFFFFFFFFFFFFFBEF79EF70B
:106750003CE71CE79AD675AD75AD5DEFFFFFDFFF37
:10676000DFFFBEF79EF759CE9294AE731084718C02
:10677000518C518C518C518C518C518C518C518C31
:106780005DEF9EF7BEF7BEF79EF77DEF7DEF7DEFE5
:106790007DEF9EF79EF77DEFBEF7DFFFF7BD34A5D7
:1067A00059CEBAD63CE77DEF9EF7BEF7DFFFFFFF7D
:1067B000FFFFFFFFFFFFFFFFFFFFFFFFFFFFFFFFE9
:1067C000FFFFFFFFFFFFFFFFFFFFFFFFFFFFFFFFD9
:1067D000FFFFFFFFFFFFFFFFFFFFFFFFFFFFFFFFC9
:1067E000FFFFFFFFFFFFFFFFFFFFFFFFFFFFFFFFB9
:1067F000FFFFFFFFFFFFFFFFFFFFFFFFFFFFFFFFA9
:10680000FFFFFFFFFFFFFFFFFFFFFFFFFFFFFFFF98
:10681000FFFFFFFFFFFFFFFFFFFFFFFFFFFFFFFF88
:10682000FFFFFFFFFFFFFFFFFFFFFFFFFFFFFFFF78
:10683000FFFFFFFFFFFFFFFFFFFFFFFFFFFFFFFF68
:10684000FFFFFFFFFFFFFFFFFFFFFFFFFFFFFFFF58
:10685000FFFFFFFFFFFFFFFFFFFFFFFFFFFFFFFF48
:10686000FFFFFFFFFFFFFFFFFFFFFFFFFFFFFFFF38
:10687000FFFFFFFFFFFFFFFFFFFFFFFFFFFFFFFF28
:10688000FFFFBEF70C63C73975AD9EF73CE796B5C1
:1068900034A559CE18C64D6B8A528A520C63EB5AF6
:1068A000AA523084F7BD9AD69AD6FBDE7DEF9EF7CA
:1068B000DFFFDFFFDFFFFFFFFFFFFFFFFFFFFFFF48
:1068C00059CE0421A63179CE9EF7DFFF3CE75DEF7C
:1068D0007DEFF7BDF7BDD7BD38C696B5BAD6DBDEBE
:1068E000DBDE1CE7FBDE7DEF5DEF5DEFFFFF9EF77C
:1068F000FFFFFFFFFFFFFFFFFFFFFFFFFFFFFFFFA8
:10690000FFFFFFFFFFFFFFFFFFFFFFFFFFFFFFFF97
:10691000FFFFFFFFFFFFFFFFFFFFFFFFFFFFFFFF87
:10692000FFFFFFFFFFFFFFFFFFFFDFFFBEF7BEF729
:106930001CE7BAD679CED7BDF39C9294F7BDDFFFA2
:10694000FFFF9EF7FFFF75AD08422842494A2842E3
:106950002842494A494A694A694A694A694A694A28
:10696000494A3084DFFFFFFF3CE79EF79EF79EF722
:106970009EF75DEFBEF77DEF9EF79EF75DEF718CA2
:1069800096B518C6BAD63CE77DEF9EF7BEF7FFFF77
:10699000DFFFFFFFFFFFFFFFFFFFFFFFFFFFFFFF27
:1069A000FFFFFFFFFFFFFFFFFFFFFFFFFFFFFFFFF7
