:020000040800F2
:10000000380A0020A1010008FF180008C70F0008E7
:10001000FD1800083F030008451C00080000000010
:100020000000000000000000000000002B1B000882
:100030009D03000800000000211900082D1B000886
:10004000BB010008BB010008BB010008BB010008A0
:10005000BB010008BB010008BB010008BB01000890
:10006000BB010008BB010008BB010008BB01000880
:10007000BB010008BB010008BB010008BB01000870
:10008000BB010008BB010008BB010008BB01000860
:10009000BB010008BB010008BB010008BB01000850
:1000A000BB010008BB010008BB010008BB01000840
:1000B000BB0100080000000000000000BB010008B8
:1000C000BB0100080000000000000000BB010008A8
:1000D00000000000BB010008BB0100080000000098
:1000E000BB010008BB010008000000000000000088
:1000F0000000000000000000000000000000000000
:10010000000000000000000000000000BB0100082B
:100110000000000000000000BB010008BB01000857
:10012000BB010008BB010008BB010008BB010008BF
:10013000BB010008000000000000000000000000FB
:10014000BB010008BB010008BB010008BB0100089F
:10015000BB010008BB010008BB010008BB0100088F
:10016000BB010008BB010008BB0100080000000043
:10017000BB010008BB0100080000000000000000F7
:10018000BB010008BB010008BB010008DFF80CD070
:1001900000F018F800480047AD1C0008380A00209D
:1001A0000648804706480047FEE7FEE7FEE7FEE711
:1001B000FEE7FEE7FEE7FEE7FEE7FEE7B51B000809
:1001C0008D010008064C074D06E0E06840F0010391
:1001D00094E8070098471034AC42F6D3FFF7DAFFF3
:1001E000887B0208A87B020870B58D1810F8014BB7
:1001F00014F0030201D110F8012B231106D110F8DD
:10020000013B03E010F8016B01F8016B521EF9D1BC
:10021000ABB110F8012B04F00C048A1A0C2C03D09B
:10022000A2EB84129B1C08E010F8014BA2EB042205
:10023000F8E712F8014B01F8014B5B1EF9D5A94212
:10024000D4D3002070BD70B504464FF09045002215
:100250000221284600F0ECF9204601F0F4FC0122CE
:100260002021284600F0E4F900222021284600F051
:10027000DFF901F0D9FB044601220221284600F0F3
:10028000D7F9204670BD70B590B0064600256C4683
:100290003046FFF7D8FF44F825006D1C0F2DF7D32B
:1002A0000020012101E0411C0AE054F8202054F80C
:1002B00021309A4203D944F8203044F82120491CC7
:1002C0000F29F2D3401C0E28EDD30021052054F84D
:1002D0002020401C11440A28F9D30520B1FBF0F07E
:1002E00010B070BD2DE9F04107461C4615460E467C
:1002F0002A2001F0B7F9C7F3072001F09BF9F8B203
:1003000001F098F9C5F3072001F094F9E8B201F083
:1003100091F92B2001F0A6F9C6F3072001F08AF924
:10032000F0B201F087F9C4F3072001F083F9E0B2DD
:1003300001F080F9BDE8F0412C2001F093B9FEE70F
:1003400070B5154C0025211D204601F09EFB00B321
:10035000A4F1100120688A680125904201D9801A11
:1003600000E0101A4FF47A7250430A680A4BB0FB4F
:10037000F2F0083318606068CA68904201D9801AA8
:1003800000E0101A4FF47A7249685043B0FBF1F064
:100390005860284670BD000018000020704710B556
:1003A00001F0D4FC08B1002010BD00F003F80120DA
:1003B00010BD000010B54FF6FF74204600F004FE9B
:1003C00004484FF47841C0E90141BDE8104001F014
:1003D000A9BA0000280000202DE9FC5F074600258F
:1003E000144603200E46A0EB44083EE0711B381B68
:1003F0008946824600F050FE38194946834600F08F
:100400004BFE3119781BCDE9001000F045FE49463E
:10041000504600F041FE311B8946019800F03CFE39
:1004200071195846019100F037FE49467819814606
:1004300000F032FE4846009900F02EFE5046019929
:1004400000F02AFE6D1CB8F1000F04DA08EB8500FD
:1004500000F1060805E0291B08EB810000F10A08FD
:10046000641E3119781900F017FEA542BEDD00F0B8
:1004700000B83CBCBDE8C09F70B5044600F0DEF893
:100480000546601C00D0641C00F0D8F8401BA04258
:10049000FAD370BD2DE9F84FDFF870B100230127C2
:1004A0004FF0030A4FF00F090BF1040EA7E000BF55
:1004B00007FA03F6324070D04C68022C01D0122C9F
:1004C00010D1DC0800EB8408D8F820405D074FEA23
:1004D000D56C09FA0CF5AC430D6905FA0CF525430A
:1004E000C8F82050D0F800805D0091F804C00AFAE6
:1004F00005F40CF0030C28EA04080CFA05FC4CEA9D
:10050000080CC0F800C0D1F804C0BCF1010F08D03D
:10051000BCF1020F05D0BCF1110F02D0BCF1120FDB
:1005200016D1D0F808C0D1F80C802CEA040C08FAD7
:1005300005F848EA0C08C0F80880D0F804C02CEA96
:10054000060C0E79C6F300169E4046EA0C0646607D
:10055000C668A6438C68AC403443C4604C68E40071
:100560004CD52B4C256E45F001052566246E23F0F5
:10057000030504F001040094264C2E19B4689D076D
:100580004FEA157C09FA0CF5AC43B0F1904F05D059
:10059000214DA84204D1012508E02FE0002505E007
:1005A0001E4DA84201D1022500E0072505FA0CF5F1
:1005B0002543B560DBF800405D464E689443F60382
:1005C00000D514432C60DEF8004075464E68944315
:1005D000B60300D514432C600C4D08352C684E68CA
:1005E0009443F60200D514432C60084D0C352C685A
:1005F0004E689443B60200D514432C605B1C0A6815
:1006000032FA03F47FF454AF00F00AB8000401405A
:1006100000100240000001400004004800080048AB
:1006200018BCBDE8E08F0069084000D00120704789
:100630000AB181617047816270470000014800681B
:10064000704700000000002002480168491C01605A
:10065000704700000000002010B5032000F07CF877
:10066000002000F005F800F017F8002010BD000091
:1006700010B5044607484FF47A710068B0FBF1F0FA
:1006800000F089FC00222146501E00F045F80020B1
:1006900010BD0000040000201E4808B5016E41F0A6
:1006A00001010166016E01F001010091816D41F0CF
:1006B00080518165806D00F080500090052000F031
:1006C0004BF8002211466FF00B0000F025F80022D5
:1006D00011466FF00A0000F01FF8002211466FF07B
:1006E000090000F019F800221146501F00F014F81C
:1006F00000221146101F00F00FF800221146901E34
:1007000000F00AF80022BDE808401146501E00F033
:1007100003B8000000100240F0B40E4B1B680C46FA
:10072000C3F30223C3F10705042D00D90425191DC5
:10073000072901D2002300E0DB1E012606FA05F19D
:10074000491E214099409E40761E16403143F0BC20
:1007500001F0D6B80CED00E0064900F00702086889
:100760004FF6FF03184040EA0220034A1043086096
:10077000704700000CED00E00000FA051549B0F5E7
:10078000007F0868C0F3412009D0022805D008681E
:1007900020F4C06040F480600860002070470128A9
:1007A000FBD0086820F4C06040F4007008600A487C
:1007B0000A4A0068B0FBF2F03222504300E0401ECB
:1007C00010B14A695205FAD448694005E5D50320BD
:1007D00070470000007000400400002040420F00FD
:1007E0000248006800F4C0607047000000700040DC
:1007F0002DE9F0470F46050058D03E4E306800F016
:100800000700B84209D2306820F007003843306052
:10081000306800F00700B84248D12878364CC0074D
:100820002CD06868032811D0022812D0216898B112
:10083000490500293ADAA16821F003010143A160CA
:10084000FFF7FCFE804641F2883910E021688901FB
:10085000EFE721688903ECE78907EAE7FFF7EEFE97
:10086000A0EB0801494502D90320BDE8F087A06844
:10087000696800F00C00B0EB810FEFD12878800799
:1008800005D5A068A96820F0F0000843A060306892
:1008900000F00700B8420BD9306820F00700384359
:1008A0003060306800F00700B84201D00120DCE77A
:1008B0002878400705D5A068E96820F4E06008437F
:1008C000A0602878000706D5A068296920F4605048
:1008D00040EAC100A06000F01BF8A168074AC1F31C
:1008E0000311515CC840064908600020FFF7C0FEB4
:1008F0000020BAE7002002400010024058750208AC
:100900000400002001480068704700000400002037
:1009100030B52D49002318468A682C4C12F00C0F74
:100920004FEA640514D08A68C2F38102032A04D115
:10093000CA6802F00302012A0AD08A68C2F381025F
:10094000012A19D08A68C2F38102022A16D016E061
:100950000A68120704D4D1F89420C2F3032202E0FB
:100960000A68C2F303121A4B53F822308A6812F055
:100970000C0F04D1184602E0204600E028468A68A1
:10098000C2F38102032A1DD1C868CA6800F00300BF
:10099000C2F30212521C022804D0032805D0B3FB74
:1009A000F2F004E0B4FBF2F001E0B5FBF2F0CA684B
:1009B000C968C2F306225043C1F34161491C490092
:1009C000B0FBF1F030BD0000001002400024F40044
:1009D000687502082DE9F84304007DD02078FE4DAB
:1009E000C0065DD5A86810F00C0F0AD0A0690028D9
:1009F000286873D040F001002860FFF71FFE06460C
:100A000055E02868800702D5A0690028E5D0216A52
:100A10002868000703D5286800F0F00004E0D5F846
:100A20009400F02202EA1010814216D9084600F024
:100A3000BDFF002850D1286840F0080028602868D1
:100A4000216A20F0F000084328606868E16920F41A
:100A50007F4040EA0120686015E0286840F0080007
:100A600028602868216A20F0F00008432860686840
:100A7000E16920F47F4040EA01206860206A00F0CC
:100A800095FF0028D6D1FFF743FFA968D34AC1F3E9
:100A90000311515CC840D24908600020FFF7E8FD0F
:100AA0002CE000BFFFF7CAFD801B02287ED8286813
:100AB0008007F7D5286840F0080028602868216A78
:100AC00020F0F000084328606868E16920F47F4066
:100AD00040EA0120686011E0B2E0FFE720F0010089
:100AE0002860FFF7ABFD064605E000BFFFF7A6FD57
:100AF000801B0228DAD828688007F7D42078C0073E
:100B000048D0A868C0F3810002281DD0A868C0F3AF
:100B10008100032803D1E868C043800714D06068CF
:100B2000B0F5803F17D0B0F5A02F286817D020F47B
:100B300080302860286820F4802028606068E0B158
:100B4000FFF77CFD064614E02868800322D5606824
:100B5000002875D01EE0286840F48030EDE740F4AE
:100B600080202860F7E700BFFFF768FD801B64283E
:100B70009CD828688003F7D50CE0FFF75FFD064698
:100B800005E000BFFFF75AFD801B64288ED8286857
:100B90008003F7D42078800742D5A868C0F381008D
:100BA000012816D0A868C0F3810000E0CEE0032839
:100BB00004D1E86800F0030002280AD0E0680028A9
:100BC00028681DD040F480702860FFF737FD064686
:100BD0000BE0286840050BD5E0680028B9D007E095
:100BE000FFF72CFD801B022884D828684005F7D524
:100BF0006868217C20F0F85040EA016068600FE0EE
:100C000020F480702860FFF719FD064605E000BF5C
:100C1000FFF714FD801B0228AAD828684005F7D4E6
:100C20002078000729D560690028D5F8940013D0F2
:100C300040F00100C5F89400FFF700FD064606E00D
:100C40001DE100BFFFF7FAFC801B02287ED8D5F813
:100C500094008007F6D510E020F00100C5F894005C
:100C6000FFF7ECFC064604E0FFF7E8FC801B0228D7
:100C70006CD8D5F894008007F6D42078400761D569
:100C8000A86D0026C00008D4A86D40F08050A8656B
:100C9000A86D012600F08050009052480168C905F7
:100CA00011D40168804641F480710160FFF7C6FCF1
:100CB000074604E0FFF7C2FCC01B022846D8D8F85C
:100CC0000000C005F6D5A068012815D00528D5F884
:100CD000900016D020F00100C5F89000D5F89000E3
:100CE00020F00400C5F89000A06841F28838B8B13F
:100CF000FFF7A4FC07460EE0D5F8900040F0010095
:100D0000F0E740F00400C5F89000F5E7FFF796FC27
:100D1000C11B41451AD8D5F890008007F6D50CE0E4
:100D2000FFF78CFC074604E0FFF788FCC11B414538
:100D30000CD8D5F890008007F6D41EB1A86D20F02D
:100D40008050A8652078800629D500E089E0606A97
:100D50000028D5F8980011D040F00100C5F898009F
:100D6000FFF76CFC064604E0FFF768FC801B0228D6
:100D70007DD8D5F898008007F6D510E020F0010066
:100D8000C5F89800FFF75AFC064604E0FFF756FC4A
:100D9000801B02286BD8D5F898008007F6D4A06A8B
:100DA000C8B1A968C1F38101032968D00228286865
:100DB00020F08070286019D02868000103D4E8680A
:100DC00020F00300E860E86807490840E860FFF7A2
:100DD00035FC04464EE050E0001002405875020811
:100DE0000400002000700040FFFFEEFEFFF726FC2D
:100DF000064604E0FFF722FC801B022837D828684B
:100E00008001F7D4206B54F82C1F000110380843E0
:100E1000218A1C4A490802EB4151A26841EA022199
:100E20000843217D4FF07E42490802EB41610843AF
:100E3000217B40EAC160E860286840F0807028604B
:100E4000E86840F08070E860FFF7F8FB044604E0D3
:100E5000FFF7F4FB001B022809D828688001F7D5AA
:100E60000BE004E0FFF7EAFB001B022802D9032095
:100E7000BDE8F88328688001F4D40020F8E7012059
:100E8000F6E700000000E0FF2DE9F041040005D086
:100E90000025A56294F85D0018B107E00120BDE8C7
:100EA000F08184F85C50204600F044F8022384F876
:100EB0005D302068016821F040010160E0684FF476
:100EC000E066B04201D9002101E04FF48051B0F555
:100ED000706F02D0B04200D0A562276B012227B903
:100EE000B04201D9236300E02263D4E9010318432F
:100EF000D4E9043633431843238B03F400731843B7
:100F0000E3691843236A1843A36A184323681860E7
:100F1000636B606AA66918430427E36807EA16460C
:100F200033431843084321684860256684F85D20F0
:100F30000020B4E700B500680E4987B0884217D199
:100F40000D48016E41F480510166006E694600F45F
:100F500080500590E0200090022001900020029037
:100F600003200390052004904FF09040FFF792FA81
:100F700007B000BD00300140001002404FF0E021FA
:100F80000428086903D020F004000861704740F08D
:100F90000400FAE7704710B5401EB0F1807F01D31E
:100FA000012010BD4FF0E02460610F21601700F0B8
:100FB000A7FC0020A06107202061002010BD10B513
:100FC000FFF7E8FF10BDFEE72DE9F04107460021DD
:100FD00040F23F13EF220846FFF784F900254FF453
:100FE000A0760024384600F009FB641CB442F9D313
:100FF0006D1CF02DF5D3BDE8F08100002DE9FE4F0A
:10100000161ACDE900104FF000085D1A47464FF060
:10101000FF30002E02DD4FF0010102E003D14FF05E
:1010200000018B4602E08346C6F10006002D02DD7A
:101030004FF0010002E003D14FF00000824602E0D1
:101040008246C5F10005AE4201DD344600E02C4683
:10105000601C4FF00009029015E000BFDDE90010B0
:1010600000F01AF8B0442F44A04504DD0198A8EB25
:10107000040858440190A74203DD00983F1B5044E8
:10108000009009F1010902998945E7D900F000B8FB
:101090001EBCBDE8E08F000010B50B460246FFF70E
:1010A00021F903488068BDE8104000F0A7BA0000AD
:1010B0002800002008B5054A4B1C491E9268009282
:1010C000421C401E00F004F808BD0000280000206B
:1010D0002DE9F0471F4616460C468046DDF8209065
:1010E000FFF700F908E0454603E0484600F086FABD
:1010F0006D1CB542F9D9641CBC42F4D9BDE8F08737
:10110000944810B5C16C86B041F00101C164C06C57
:101110004FF0904400F001000590B52000900120B0
:1011200001900320039069462046FFF7B3F901229E
:10113000B5212046FFF77CFA002201212046FFF767
:1011400077FA002204212046FFF772FA1420FFF7F5
:1011500093F9012204212046FFF76AFA1420FFF7D1
:101160008BF9CF2000F07EFA002000F063FAD9203E
:1011700000F060FA302000F05DFAED2000F072FA25
:10118000642000F057FA032000F054FA122000F017
:1011900051FA812000F04EFAE82000F063FA852031
:1011A00000F048FA102000F045FA782000F042FAEA
:1011B000CB2000F057FA392000F03CFA2C2000F048
:1011C00039FA002000F036FA342000F033FA022019
:1011D00000F030FAF72000F045FA202000F02AFA5B
:1011E000EA2000F03FFA002000F024FA002000F08E
:1011F00021FAC02000F036FA212000F01BFAC120AD
:1012000000F030FA122000F015FAC52000F02AFA9A
:10121000322000F00FFA3C2000F00CFAC72000F05A
:1012200021FAC12000F006FA362000F01BFA08204F
:1012300000F000FA3A2000F015FA552000F0FAF913
:10124000B12000F00FFA002000F0F4F9182000F0AF
:10125000F1F9B62000F006FA0A2000F0EBF9A2201E
:1012600000F0E8F9F22000F0FDF9002000F0E2F9CA
:10127000262000F0F7F9012000F0DCF9E02000F072
:10128000F1F90F2000F0D6F9202000F0D3F91E204C
:1012900000F0D0F9092000F0CDF9122000F0CAF9D1
:1012A0000B2000F0C7F9502000F0C4F9BA2000F07C
:1012B000C1F9442000F0BEF9092000F0BBF9142068
:1012C00000F0B8F9052000F0B5F9232000F0B2F9DC
:1012D000212000F0AFF9002000F0ACF9E12000F08F
:1012E000C1F9002000F0A6F9192000F0A3F9192097
:1012F00000F0A0F9002000F09DF9122000F09AF90A
:10130000072000F097F92D2000F094F9282000F034
:1013100091F93F2000F08EF9022000F08BF90A20AD
:1013200000F088F9082000F085F9252000F082F906
:101330002D2000F07FF90F2000F07CF9112000F043
:1013400091F97820FFF798F8292000F08BF906B082
:1013500010BD0000001002402DE9F05F81462B48CF
:101360001C468846D0F808B0B9F1E00F4CD80846C2
:10137000B8F5987F48D8203AD6B200F10F0309F1AA
:10138000070241464846FEF7ADFF2148002C4FF0CA
:1013900000041FD1DFF874804FEA000904EB061146
:1013A000002519F80170F80702D0C8F808B003E06A
:1013B000D8F80410C8F80810D8F8080000F01EF992
:1013C0006D1C7F08EDB2082DEDD3641CE4B2102C27
:1013D000E4D316E00E4804EB06110025475C08EB49
:1013E000040AF80704D0514609EB0500FFF754FE44
:1013F0006D1C7F08EDB2082DF3D3641CE4B2102CF1
:10140000E8D30249C1F808B000F004B82800002071
:101410009875020830BCBDE8C09F00002DE9FF5F51
:1014200004469A460E4600200299814688422DDAEB
:10143000002526E0701E06FB0503601E04FB050266
:1014400006FB05F104FB05F0FEF74CFF002704FB4B
:1014500006F813E0FEF7A3FF20B101210C4801704C
:1014600000F018B80E9810F817B000EB470040785D
:1014700000F0E0F8584600F0DDF87F1CB845E9DCE4
:101480006D1C5545D6DB09F10100CDE70021E5E7EC
:10149000280000203FBCBDE8C09F2DE9F047002692
:1014A0001D46904689460746344621E0281B401ECB
:1014B000C1B20A2000F042FCB8FBF0F00A21B0FBF8
:1014C000F1F201FB120026B9691E8C4201DA30B13B
:1014D00001263030C2B207EBC400002303E0002332
:1014E00007EBC40020224946FFF736FF641CE4B234
:1014F000AC42DBD3BDE8F0872DE9F0411546124C34
:1015000001F10F0300F10F02FEF7ECFE04EB4516AC
:1015100000250127A4F10C080024307807FA04F113
:10152000084202D0D8F8080001E0D8F8040000F022
:1015300065F8641CE4B2082CEFD36D1CEDB2761C88
:10154000202DE9D3BDE8F081340000202DE9F047DB
:10155000944600FB01F21E46C2F3C7070B440CEB96
:101560000002144C31466046521E5B1E089DFEF779
:10157000B9FE05FB07460025A4F22C494FF00108EF
:1015800013E00024317808FA04F0014202D0D9F8BF
:10159000080001E0D9F8040000F030F8641CE4B25F
:1015A000082CEFD36D1CEDB2761CBD42E9D3BDE82B
:1015B000F0870000540400202DE9F04116460D4646
:1015C00004464FF498774FF4784812E0E02C01D9A4
:1015D00000241035BD4204D9002425464046FFF7BB
:1015E000F3FC3278002329462046FFF7B5FE083485
:1015F000761C30780028E9D1BDE8F08170B504464A
:101600004FF09045002201212846FFF711F80122F2
:1016100010212846FFF70CF8C4F3072000F03AF831
:10162000E0B200F037F82846BDE8704001221146CC
:10163000FEF7FEBF70B505464FF090440022012131
:101640002046FEF7F5FF012210212046FEF7F0FFAD
:10165000284600F01FF82046BDE8704001221146E0
:10166000FEF7E6BF70B505464FF090440022012119
:101670002046FEF7DDFF002210212046FEF7D8FFAE
:10168000284600F007F82046BDE8704001221146C8
:10169000FEF7CEBF70B5054600244FF090460022FD
:1016A00020213046FEF7C4FF280601D5012200E0C4
:1016B000002280213046FEF7BBFF01222021304668
:1016C000FEF7B6FF6806641C050EE4B2082CE6D3EC
:1016D00070BD0000104810B50E4901604FF48271D2
:1016E000416000214FF44072C0E902124FF40072D1
:1016F0000161C0E90512C161016207224162C0E9CE
:101700000A12016308214163FFF7BEFB002800D0E5
:10171000FEE710BD00300140D40500202DE9F8435C
:101720005D4C4FF6FF704FF47846C4E90106002087
:1017300003462021009046220846FFF707FF0120BC
:1017400020210090002366220846FFF7FFFE0220BA
:1017500020210090002386220846FFF7F7FE1F2075
:10176000A0604EA223212820FFF726FF50A2372198
:101770000A20FFF721FF0323F02237214620FFF73D
:101780008CFE4DA237218220FFF716FF03234FF472
:10179000A0723721B420FFF780FE4B250A2048A213
:1017A0002946FFF709FF47484FF032080523026832
:1017B00029464046FFF771FE822743A22946384654
:1017C000FFF7FAFE4149AA2005230A682946FFF7D8
:1017D00064FE5F250A203EA22946FFF7EDFE3E4843
:1017E0000523294602684046FFF757FE3BA22946DB
:1017F0003846FFF7E1FE3B49AA2005230A6829463F
:10180000FFF74BFE4FF4FC607823A060F0221946EE
:101810000020FFF7F3FB7923F02219460020FFF7A1
:10182000EDFBF0217820A660FFF744FC0A22F021AE
:101830007820FEF7D1FD1422F0217820FEF7CCFDB0
:101840001E22F0217820FEF7C7FD2822F021782003
:10185000FEF7C2FD3222F0217820FEF7BDFD3C22CA
:10186000F0217820FEF7B8FD4622F0217820FEF71F
:10187000B3FD5022F0217820FEF7AEFD1AA282219E
:101880003220FFF799FE01B00523BDE8F043822125
:10189000194A9620FFF701BE28000020322E38207A
:1018A00054465420535049203234302A33323000C9
:1018B0004C43445F573A00004C43445F483A0000B1
:1018C00056583A000800002056793A000C000020D3
:1018D0004348583A00000000100000204348593A9D
:1018E00000000000140000204A432E59616E672D4D
:1018F0002D2D2D2D000000006A040100FEE7704729
:101900000907090E002806DA00F00F0000F1E020B8
:1019100080F8141D704700F1E02080F80014704733
:101920007047000070B51E4C4FF0904508212846C6
:10193000FEF779FE0028F9D1FEF702FD30B319A2B7
:10194000FA210A20FFF738FE0423FA211E2022681C
:10195000FFF7A3FD14A2FA21B420FFF72DFE042304
:10196000FA21C8206268FFF798FD4FF490761F2295
:1019700031460020FFF7C0FD202231461046FFF718
:10198000BBFD0748083003C8FFF794FB2068B0F59B
:10199000C86FCBD2606840F6E4418842C6D970BDBA
:1019A00018000020583A0000593A0000F8B51C4DC4
:1019B00006460024A86DC00002D5FEF711FF0DE019
:1019C000A86D40F08050A865A86D00F08050009090
:1019D000FEF706FFA96D21F08051A965B0F5007FE3
:1019E00004D0802E07D94FF003040AE0802E08D9D6
:1019F000A02E01D804E001D1022402E0702E00D113
:101A000001240848016821F00701214301600068B2
:101A100000F00700A04201D00120F8BD0020F8BD71
:101A2000001002400020024070B500252C464FF007
:101A300090466400012220213046FEF7F9FD002285
:101A400020213046FEF7F4FD40213046FEF7EBFD45
:101A500008B144F001046D1CEDB20C2DE9D3204611
:101A600070BD70B506460D46D020FEF70CFC04464E
:101A70009020FEF708FC642C01D3642801D20020DA
:101A800070BD34602860012070BD7FB50C460546EE
:101A9000694602A8FFF7E5FF002829D001A903A89D
:101AA000FFF7DFFF002823D0DDE90223934203D8AC
:101AB00003F11400824205D39A421BD802F11400AC
:101AC000834217D2DDE90001814203D801F11406F7
:101AD000B04204D388420DD8143081420AD2D018C3
:101AE00040082860DDE9000108444008206001202A
:101AF00004B070BD0020FBE710B54FF09044012208
:101B000002212046FEF794FD012220212046FEF707
:101B10008FFD012280212046FEF78AFD204601220A
:101B2000BDE810402021FEF783BD704710B5FEF7D9
:101B30008BFDBDE81040FFF742BA00B597B0022018
:101B4000C10103911021049114210090CDE90C01F1
:101B50000A900721CDE90E100B9010906846FEF711
:101B600039FF00B1FEE70F201190032012900020F2
:101B7000139014901590042111A8FEF739FE00B1BE
:101B8000FEE74FF40070FEF7F9FD00B1FEE7FEF747
:101B9000B9FE4FF47A71B0FBF1F0FFF7FCF90420C5
:101BA000FFF7ECF900221146501EFEF7B5FD17B005
:101BB00000BD00000D48016841F4700101600C484F
:101BC000016841F001010160002181600268094B58
:101BD0001A4002608214C260026822F4802202600D
:101BE00081610249C00380390860704788ED00E0D8
:101BF00000100240FFFFF6EA70B5114886B0C16CD4
:101C000041F00101C164C06C012500F001000590A4
:101C10000220CDE9000503244FF090466946039465
:101C20003046FEF737FC4820009003940020CDE9B1
:101C3000010569463046FEF72DFC06B0002070BD58
:101C400000100240FEE770B5054600244FF09046B4
:101C5000224620213046FEF7EBFC002220213046B0
:101C6000FEF7E6FC280601D5012200E000228021D3
:101C70003046FEF7DDFC012220213046FEF7D8FC7D
:101C80006806641C050EE4B2082CE6D370BD02E0C1
:101C900008C8121F08C1002AFAD1704770470020F7
:101CA00001E001C1121F002AFBD1704708B5FEF701
:101CB000D3FC022211462320FEF72EFDFFF79CFFE6
:101CC000FFF71AFFFFF706FDFFF71AFAFFF735FFD8
:101CD00016490020174C086015494FF6FF70012384
:101CE00008604FF4A0751A462946F0200094FFF7CB
:101CF00095FBFEF754FBFFF711FDFEF750FB0E4E70
:101D0000FEF74DFB30B101231A462946F02000941E
:101D1000FFF784FB30780028F2D001231A462946C9
:101D2000F0200094FFF77AFBEAE700002C00002087
:101D300030000020561D0008280000200246012027
:101D400000E05043491EC9B2FBD2704708214FF052
:101D50009040FEF768BC0A63EA5AE95AC95AC95268
:101D6000C952A952A952C952C95AEA5AC952684A13
:101D700027424742885288526852474A274A474A70
:101D8000484A474A474A474A474A474A484A6852A0
:101D9000685268526852674A674A4642264226425B
:101DA000264226424642264205420642464A474AC3
:101DB000264A264A474A064A064A0642E541E5417E
:101DC000E541E541064AE541E541E5410642064275
:101DD000E541E541E54126420642E541E541E53977
:101DE000E541E5410542E541E541E541054206425F
:101DF0000542E541C539E541E541E541E541E541BA
:101E0000E541E539E5390642064206420642064208
:101E10000642E641E541E641E541E541E539E5397E
:101E2000E541E64106420642064226422642064275
:101E30000642E541C539E541E541E541E541E54178
:101E40000642064206420642064206420642064252
:101E5000E641E641E54106420642E641E641E64109
:101E600006420642264A264A2642064206420642C2
:101E7000064206420642064206420642274A474AB0
:101E8000674A474A474A474A474A474A474A474AAA
:101E9000474A264A0642E6412642264A264A6752D1
:101EA000A85AA8526752474A8852A85A885267527D
:101EB000674A8852A95A684A684A684AEA5A6C6B63
:101EC000CA5A484AC95AA952A952EA5A2B634B6BBB
:101ED0002B63EA5AA952CD7BCD7B2B630B63CE7B60
:101EE000AD736C6B708C0F846C6B8D6BEE7BAD7314
:101EF0000F7CB294D2940F84AE732F84B194508C23
:101F0000EF7B718C34A5718CD29CB29413A5B6B5BD
:101F1000B5B595B537C6D6BDB6B554A575ADF6BD44
:101F200075AD54A558C6B9CE58C6B9D61BDFDAD69A
:101F3000DAD658C633A5C952C952A952A952A952D4
:101F4000C952EA5A0A5BA952A952C952C9528852C7
:101F5000674A884AA952A95A8852484A474A484A71
:101F60006852484A474A484A484A474A474A474ABD
:101F7000474A274A474A674A674A674A474A4642A2
:101F8000464246422642264205420642464A464AC2
:101F900026422642464A064A064A064A0642E54183
:101FA000E541E5410642E541E541E541E541E541DF
:101FB000E541E541E54106420542E541E539C539DE
:101FC000C539E539E541C539C539E539E541054248
:101FD000E541E539C539E541E541E541E541E54101
:101FE000E539E539E539E641064206420642064250
:101FF00006420642E6410642E641E541E539E53959
:10200000E541E541E64106420642064226420642D5
:102010000642E541E539E641E641E541E541E54174
:10202000E641064206420642064226422642064251
:1020300006420642064206420642E641E641E641C3
:10204000064206420642264A264206422642264AC0
:10205000264206420642E541E541E6410642264265
:10206000264A264A264A474A474A474A674A674A0B
:10207000474A474A264A0642264A264A264A474AA5
:1020800088526852474A474A675288528852474A9C
:10209000474A6752885288528952684A8852CA5AB7
:1020A000EA5AEA5A0B63A952A9528952A952A95273
:1020B000C95AA952A952684A6C6BCD7BCE7BCD7BA5
:1020C0000B630B63708CEE7B4C6B6D6BCE738D6B07
:1020D000CE7330842F84EF7BAE73CE7B708C919463
:1020E00030840F84718CB6B5D29C508CD294F39C02
:1020F00030840F84D29434A5D6B5D6B5B5B5B5AD78
:1021000034A5139DB5B558C6F6B538C6B9D6B9D6F7
:10211000DAD6DAD658C60A630A630A5BE95AA952C4
:10212000A952C952E95AC95AA952A952C952A95227
:102130008852A952C95AC95A88526852484A6852A4
:1021400068526852474A474A474A474A274A274AF5
:10215000274A274A274A26424642464246424642A4
:10216000464226420642064206420642264A264A7F
:1021700026420642264A264A264A064A0642E541A1
:10218000E541E541E641C541C541E541E641E6415C
:10219000E641E641E6410542E541E541E539C5391B
:1021A000C539C539C439C439C439C539C539E5411A
:1021B000E541C539C539E541E541E541E539E5394F
:1021C000E539C539C539E541E541064206420642D1
:1021D00006420642064206420642E541E541E5392D
:1021E000E539E541E541E64106420642064206423E
:1021F00006420642E64106420642E641E541E54125
:10220000E541E641E64106420642264A264A264A7A
:10221000264A264A26420642064206420642E6412F
:10222000064206420642264226422642264A274ABD
:10223000264A06420642E641E641E641E641E641DB
:10224000064206420642264A264A474A474A474A23
:10225000474A474A274A274A474A264A2642264AA1
:10226000474A474A264A264A474A67526752474AD8
:10227000274A474A68526852684A8852684A484A18
:10228000C95A2B63EA5A0B63EA5ACA5AC95AC95A3D
:10229000C95AC95AA9522742C95AEA5A4B6BAD7357
:1022A0002B63EA5A8C730E7C8C6B6C6B8D6B8D6B15
:1022B000CE730F7CCE73CE7B8D732C63AE739194F3
:1022C0005084AE730F84308454ADD6B5D29C0F8445
:1022D000B29413A5718CB194139DF29CD29434A541
:1022E00074AD139DD29495AD139D54ADF7BD38C612
:1022F00099CEDADEDADE6C6B8C6B8C6B4B630A5B2F
:10230000C952C952C95A0A5BC95AC952C95AC95A8B
:10231000A952A952A952C95A89526852484A6852C8
:1023200068526852474A274A274A274A274A274A73
:10233000474A474A474A2642264246424642464282
:10234000264226420642264226422642264A264A5D
:10235000264A2642264A264A264A264A0642E64176
:10236000E541E541E541C539C541C541E541E541A5
:10237000E641E641E641E541E541E541E541E53932
:10238000C539C439A439A439A439A439C539E541BA
:10239000E541E539C539E539E539E539E539C53985
:1023A000C539C539C539C539E539E541E641064282
:1023B00006420642064206420642E641E541E5394A
:1023C000C539C539C539E541E541064206420642EF
:1023D000064206420642064206420642E641E54100
:1023E000E541E541E541064206422642264A274AA2
:1023F000274A264A264A264A264A264206420642B4
:1024000006420642064206420642264A274A474AF2
:10241000274A064206422642264206420642064213
:10242000064206422642064206420642264A264AFC
:10243000264A264A264A474A474A264A2642264AE2
:10244000274A274A274A264A474A474A474A274AA5
:10245000264A474A6852474A27428852A952274289
:10246000684AC95A8852CA5AEA5AEA5A0B632B6315
:102470002B630B630B630A63A9520642474A4B6BFB
:102480006C6B0A5B0A5BEE7B8D6B2B630B5B2B63C8
:10249000AD6BEE7BCE7B8D738D73CA5A0B632F842D
:1024A0000F84AD7330842B638D73F29C75ADB29441
:1024B000718CF29CF39C54A534A5F29CD29413A584
:1024C00074AD33A5F29CF39C918CB19474ADF6BDC0
:1024D00037C658C679CE2B636C6B8C6B8C6B6C6B70
:1024E0004B632B632B630A63CA5AC952EA5AEA5AEE
:1024F000CA5AC952CA5AC95A89526852684A685255
:1025000068526852484A474A474A484A484A484AED
:10251000484A684A684A474A674A474A47424742E0
:102520004742474247422642264A274A264A264AE7
:10253000264A264A26422642264A264A064206427B
:10254000E541E539E541C539C539C539E539E541E3
:10255000E541E6410642E641E641E641E541E5392D
:10256000C539C539C539C539A539A539C539E5399B
:10257000E541E541C539E539C539C539C539C539FB
:10258000C539C539C539C539C539C539E539E54113
:10259000E64106420642E641E641E641E541E541C3
:1025A000C539C539C539E539E541E5410642064237
:1025B000064206420642064206420642E641E5411E
:1025C000E541E541E541E541E64106420642264254
:1025D000264A26422642274A274A264A264A264291
:1025E000064206420642064206422642264A474A1A
:1025F000274A06420642274A274A264A26420642D8
:10260000064206422642E64106420642064226426B
:10261000264A264A264A474A274A264A264A264A18
:10262000264A474A474A264A474A474A474A474A64
:10263000274A474A474A474AE639474AC95A474A12
:10264000274268526852474A684A8852A95AEA5A49
:102650000A632B632B6B2B6B0A63C95AA95AEA5A7C
:10266000EA5AEA5A2B638D736C6BEA5AA9520B5BD8
:102670006C6B8D6B6C6B4C638D730B5BEA5AAE733A
:10268000AD736D6B30840F844C6BCE73D29CF39C16
:10269000D29491942F84708C918CD29CF29CB194A2
:1026A000B19454A5D6B5139DB194718CF29C95B597
:1026B000D6BDF6BD17C62B634B6B6C6B8C6B8C6BEE
:1026C0006C6B4C6B4B630A5BEA5ACA5AEA5A0A5B58
:1026D0000A5B0A5B0B63CA5AA95268526852885255
:1026E00089528852685268526852685268526852D9
:1026F000684A484A684A474A474A47424642274248
:102700002642264226422742474A474A2642274A2D
:10271000264A274A064206422642264A26420642C0
:10272000E541E541E541C539C539C539C539C53941
:10273000E539E541E641E541E541E541E539E53980
:10274000C539C539C539C539C539A539C539C539B9
:10275000E539C539C539C539C539C539C539C53969
:10276000C539C539C539C539C539C539C539C53979
:10277000E539E541E641E541E541E541E541E54130
:10278000E539C539C539C539C539E539E541E541C9
:10279000064206420642064206420642E641E5413C
:1027A000E541E541E541E541E541E64106420642B4
:1027B000064206420642264A264A264A264A264A11
:1027C0000642064206420642064206422642264A81
:1027D000264A064206422642264A274A2642064200
:1027E000E54106420642064206422642264A264A5B
:1027F000274A474A474A264A264A264A474A474AD4
:10280000264A474A6752264A474A474A474A474A5A
:10281000474A474A474A8852E64106428852685228
:102820002742684AC95A88526852684A474A474A02
:10283000684A8852C95AA95AC95A0A630A63EA5AA5
:10284000C95AC95AC95A0B636C6B2B63EA5A4C6359
:102850006D6B2B63EB5AEA5A6C6B4C6B4C638D734C
:102860006C6B2B638D6B508C2F84EF7BCE7B2F8416
:10287000F39C13A5508C0F7CEE7B708CD294708CE3
:102880002F84918CD294139DD29450845084F29CC6
:1028900054A574ADD6B5AD738C6B6C6B6C6B6C6BF7
:1028A0006C6B4B630B632B630A630A632B632B63B1
:1028B0000A632B634B63CA5AA95A89528952A95297
:1028C000A95AA95AA9528952895288526852685203
:1028D00068526852684A474A474A674A474A4742E5
:1028E0002742064206420642274A274A0642064235
:1028F00006420642E64106420642064206420642B9
:10290000E641E641E641C539C539C539C539C5395C
:10291000C539C539E641E539C539C539C539C5397E
:10292000C539C539E539C539A539A439A439C539F9
:10293000C539C539A539C539C539C539C539C539C7
:10294000C539C539C539A539A539A439A439A53939
:10295000C539C539E539C539E539E541E541E541CF
:10296000E541C539C539C539C539C539C539E5392F
:10297000E541E541E64106420642E641E541E541E1
:10298000E541E541E54106420642E641E541E541D2
:102990000642064226420642064226422642264277
:1029A00006420642064206420642064206420642E7
:1029B0002642064206420642264A474A264A06421E
:1029C000E541E6410642264A264A264A264A264A42
:1029D000274A474A474A26420642264A474A274A42
:1029E00006420642474A264A274A274A274A274A92
:1029F000274A474A474A6852474A2642274A684A6E
:102A0000474A474A8852C95AA95A8852474A2742D0
:102A10002742474A684A8852474A6852A95AC95ABF
:102A2000EA5AC95A474AA9528C6B4C6BEA5A6C6BEA
:102A30008D732B630A5BCA5A0B634C6B6D6B8D7382
:102A40006D6B0B63CA5ACE7B6C6B2C638D73EE7B04
:102A5000AD73EF7BF39C33A5D294D29CF39CB194DD
:102A60009194508C8D73718CD29C508CEE7B508CD9
:102A7000B194D29413A5CD7B8C734C6B4C6B6C6B67
:102A80008C736C6B4B636C6B4B6B4B6B4B6B2B633B
:102A90000A630B634B63EA5AC95AA952A952A95A4D
:102AA000CA5ACA5AC95A68526852685268528852F9
:102AB0008952895289528952A952A952C952A9529E
:102AC000884A474A27420642274227420642E641B1
:102AD0000642E641C539E641064206420642064242
:102AE000E641E641E641E641C539C539C539C53952
:102AF000C539C539C539C539C539A539A439A43948
:102B0000C539C539E541C539A439A431A431A43941
:102B1000A439A439A439C539C539C539C539C53928
:102B2000C539C539C539A539A439A439A431A43961
:102B3000A539C539C539C539C539E539E541E54155
:102B4000E541E539C539C539C539C539C539C5394D
:102B5000C539E541E54106420642E641E541E54128
:102B6000E541E641E64126420642E641E541E541CE
:102B700006420642264AE64106420642064206420E
:102B80000642E641E5410642E641E541E6410642AC
:102B90000642064206420642274A474A474A06423A
:102BA00006420642064226422642064206420642A5
:102BB0002642264A264A06420642264A474A264ACC
:102BC000E641E641264A264A264A264A264A264A17
:102BD000264A274A274A274AA852474AE641684ACE
:102BE000684A06420642274A474A68528852685253
:102BF0006852885288528852274A474A474A474A69
:102C0000C95A0A63EA5A684A4B6B2B63A9522B6371
:102C10006C6B2B632B63EA5ACA5A0B634C6B6D6B5C
:102C2000AD734C6B894A2B630F7CAD730B5BAD733B
:102C30005084CE7B4C6B8D6BCE7B9194B194718C18
:102C400033A5B5B5139DEF7BF29CB2940F7C2F8416
:102C5000508C508C9194CE7BCE7BAD736C6B6C6B37
:102C60006C6B8D6B6C6B6C6B2B632B636C6B4C6B3D
:102C70002B632B634C6B2B632B630B63EA5AEA5A6F
:102C80000B630B63EA5AA9528952A952A95289527D
:102C9000684A8952C95A8952684A474A474A684A23
:102CA000884A8852684A6852684A474A2742074217
:102CB000E641E641E641064206420642E539E6398A
:102CC0000642E641A5390642C539C539E641E64125
:102CD000C539C539C539C539C539C539C539A53924
:102CE000A539A539A539A539A53984318431A53946
:102CF000A539A539A539A439C539E539E539C53925
:102D0000C539C539C539C539A43984318431A539A6
:102D1000C539A4398431A439A539C539C539E5394E
:102D2000E539C539C539E541E539C539C539C5394B
:102D3000C539E541E641E539E64106420642E5414D
:102D4000E539E539E541E541E541E539E539E5397B
:102D5000E541E541E6410642064206420642064298
:102D60000642E641E541E541E541E541E539E54118
:102D7000E6410642064206422642264A264A2642A4
:102D8000064206420642E641E64106420642064245
:102D90002642264A264A274A274A274A274A274AB6
:102DA000264A26420642474A474A274A274A274A8E
:102DB000274A474A474A274A274A274A274A474A2B
:102DC000474A274A274A274A0642274A8852A95A89
:102DD0006852474A474A474A674A6852474A474AF9
:102DE0006852A952EA5A4B6BA952EA5A0A63A9528D
:102DF0002B638D6B8952CA52CA5AEA5A0B636C6BA9
:102E0000AD734C63A9522B63AD73CE734C632B63CC
:102E1000CE7B508C708CEE7BAD73AD73CE738D73A7
:102E20008D73308433A5B294919491949194708C65
:102E30000F7CAE73AD73EE7B0F7CEE7BCE73AD7308
:102E4000CE7BCE7BAD738D736C6B4C6B4C6B4C63DC
:102E50000B630B634C636C6B6C6B2B63EA5AEA5A23
:102E60000B630B630B63EA5ACA5AA952CA5ACA5A6D
:102E7000A9528952A952A9528952884A684A684A75
:102E8000684A684A684A684A484A474A274A274A75
:102E90000742074207420642274227420642E639D6
:102EA000E6410642E539E641C539C539E641064203
:102EB000C539C539C539C539C539C539C539C53922
:102EC000A539A539A539A539A539A539A53984313B
:102ED000843184318431A431A539C539C539C53926
:102EE000A439A439A539A539A439A431A431A43908
:102EF000A439A4318431A439A539C539C539E53996
:102F0000E539C539C539E541C539C539C539C53989
:102F1000C539C539E539C539E54106420642E541BD
:102F2000E539E541E541E541E541E541E539E53989
:102F3000E539E541E541064206422642264226425F
:102F40002642064206420642E641E541E541E541A8
:102F5000E641064206420642064206422642064232
:102F600006420642E6410642064206420642064242
:102F700006422642264A264A274A274A274A274AFD
:102F8000264A26422642264A264206420642064251
:102F900006422642264A274A0642274A274A274A05
:102FA000274A274A0642474A274A274A68528852F0
:102FB0006852474A68526752674A474A474A474AEF
:102FC000474A474A474A8852684A0A632B63684A15
:102FD000CA5A6C6BEA5AA952CA52CA5A0B5B4C6362
:102FE0006C6B2B63A952A9524C6BCE7B8D730B6318
:102FF0002B63AD732F840F84AE73AE7330849194C2
:10300000508CEF7BAE7330849194D2949194308441
:10301000EF7BAE736C6BCE7BEF7B0F7CEE7BEE7B3E
:103020000F7CEF7BCE7BEE7BAE738D6B6D6B4C6B51
:103030002C634C634C6BAE73AD736D6B2C632B6365
:103040004C634C632B634C630B5BCA5AEA5AEB5AD2
:10305000CA5AA9528952CA52CA52A952A952894A75
:10306000684A684A684A484A484A484A484A284A90
:10307000284A284A474A0642274A474A2742E64101
:10308000E639E641E6410642E641C539E639E63928
:10309000C539C539C539A539C539C539C539C53960
:1030A000A539A539A539A539A539A539A539A53930
:1030B00084318431643184318431A539C539A439EE
:1030C000A43184318431A439A439A439A439A43178
:1030D00084318431A439A439A539C539C539C539F4
:1030E000C539C539C539E539C539C539A539A43911
:1030F000A439C539C539C539C539E541E541E54189
:10310000E539E541E541E641E641E541E539C539C5
:10311000C539C539E5390642064206422642264AE5
:10312000264A264226420642064206420642E64118
:10313000064206420642064206420642064206424F
:10314000064206420642064206420642064206423F
:10315000064206420642264A264A264A274A264A66
:10316000264A264A2642264206420642E641E641D1
:10317000064206422642264A264A2642264A264A2F
:10318000264A264206426752474A264A474A474A43
:10319000474A67528852A85A88528852885AA85A71
:1031A000A8526852274A2742274AC95AEA5A484A27
:1031B00089522B630A5B8852A952CA5AEA5A0A5B9F
:1031C0000B63EA5AC952C95AEA5A2B636C6B6C6B8F
:1031D0004B632B634C6B718C3084CE7BAE73CE7B98
:1031E0000F849194D29CB2948D738D73F3A475ADBA
:1031F000508C6C6B8D73AE73EE7B0F840F840F84D9
:103200002F840F84EF7B0F84EF7BCE7BCE73AD7367
:103210008D738D738D73CE73CE73AD736D6B6C6B5D
:103220006D6B6C6B4C634C6B2B630B632B632B6371
:10323000EB5ACA52AA52CA5AEA5AEA5ACA5AA95266
:10324000894A89528952684A684A484A484A484ADB
:10325000484A484A484A0742274A274A27420642DC
:10326000E639C539C539274A0642C539A539A539D0
:10327000A539C539C539C539C539C539A539A539BE
:10328000A539A5398431A539A539C539C539C53917
:10329000A5398431843184318431A439A539A439E4
:1032A000A431843184318431A439C539A4398431BD
:1032B00084318431A439A439A439A539C539C53933
:1032C000C539C539C539C539C539A539A439A43178
:1032D000A431A431A439A439A539C539C539C539B2
:1032E000E539E541E5410642E641E541E539C539C3
:1032F000C539C539C539C539E539E5410642064202
:10330000064206420642264226420642064206423D
:103310000642E641E641064206420642264226426F
:10332000264206420642264A2642064206420642F5
:1033300006420642064226422642264A264A264A95
:10334000264A264A264A274A264A06420642064274
:103350000642264A274A474A264A264A264A264AF3
:10336000264A26420642474A274A264A264A264AEB
:10337000474A474A67528852885AA85AC95AE95A4E
:10338000E962C95AA95A684A2742684A8852684A73
:10339000A9520A63C952884AA952CA5ACA5AC95A72
:1033A000C952C95AC95A0A5BCA5ACA5A0B636C6BCA
:1033B0008C6B4B63EA5A8D73EF7B2F84EE7B8D739E
:1033C0006D6B6D6B6D73EE7BEF7BAE738D73508C9D
:1033D00013A5718C4C6BEE7B0F8430843084508449
:1033E000508C508C2F840F7C0F840F840F7CEF7BCC
:1033F000EE7BCE7BAE73AD73AE73CE73AD73AD7338
:10340000AE738D736C6B4C6B4C6B6C6B6D6B4C6BF0
:103410000B5BEB5A0B63EA5A0B5B0B630B5BCA5AF1
:10342000CA52CA5ACA5A8952895289528952695211
:103430006952484A484A484A274227422742274277
:10344000E63985314429A531A531A531A531C539E4
:10345000C639C639A539C539C539C539A539A539DA
:1034600085318431843184318531A539A539A53937
:10347000A539A539843184318431A439A439A539D9
:10348000A439843184318431A439C539A4398431D3
:1034900084318431A439A439A439A439A439A43994
:1034A000A539C539C539C539C539A439A439A431B7
:1034B0008431843184318431A431A439C539C5398A
:1034C000C539C539C5390642E641E541C539C53971
:1034D000C539C539C539C539C539E539E54106426A
:1034E000064206420642264226420642064206425C
:1034F0000642E641E541064206422642264A264A5F
:10350000264A264A2642264A264A2642064206429B
:103510000642E641E641064206422642264A264A3D
:10352000264A264A264A474A274A264A2642264209
:10353000264A274A474A474A274A264A264A274AC6
:10354000274A264A064A064A264A264A064A064A7A
:10355000264A264A264A064A264A4752675268524F
:103560008852A95AC95AA852684A684A6852684A91
:103570008852C95AC95A8852A952CA5ACA5AA95213
:10358000A952A952EA5AA9522B634B63EA5AC9526B
:103590002B636C6B4C6B0B634C6BAE73EF7B0F84CC
:1035A0000F84AE732C6BAD7330840F844C6B0B6344
:1035B000CE7B508C3084EF7B0F842F842F842F841C
:1035C000508C508C2F84EE7B0F842F840F840F84BB
:1035D0000F84EF7BCE7BAD73CE73CE7BCE7BCE7B69
:1035E000EE7BCE7B8D734C6B6D6BAD73AE738D6B61
:1035F0002C632B634C6B0B632B632B630B630B6391
:103600000B5B0B630B63CA5ACA5ACA5AAA5AAA5A04
:103610008952695269528952484A2742474A474A61
:10362000E6394429E218C118022144298531C539F7
:10363000E639C639A531E641C639C539C539A53996
:10364000A5398431843164318431843185318531C7
:10365000853184318431A539A431A431A439A43908
:10366000A439A43984318431A439A439A4318431F2
:1036700084318431843184318431843184318431A2
:10368000A431A439A539A439A439A439A439A43161
:10369000A43184318431843184318431A439C539F1
:1036A000C539C539C539E541E541E539C539C539BA
:1036B000C539C539C539C539C539E541E64106427F
:1036C00006420642064206420642064206420642BA
:1036D000E641E541E541E641064206422642264AE8
:1036E000264A264A264A264A264A264206420642B2
:1036F0000642E641E641064206420642264A264A7C
:10370000264A264A264A264A264A264A264A264A39
:10371000264A264A264A474A274A264A264A274A06
:10372000274A274A264A0642264A274A264A064A5E
:10373000064A264A06420642264A264A264A264A79
:10374000274A6852885268528852A95A8852474A72
:103750002742684AEA5AA952A952C95ACA5AA952D2
:103760008852A952CA5AA9522B630B63884A684AE5
:103770002B636C6B2B632C634C6B6C6B4C6B4C6BCB
:103780008D730F849194508CAE7BEF7BB194508CF1
:103790006C6B6D73718C0F842F842F840F7C0F7C66
:1037A0002F8430842F840F84308430842F840F84BE
:1037B0002F840F84EF7BCE7BEE7BEE7BCE7BEE7B8C
:1037C0000F7CEF7BCE7BAD73AD73CE7BEE7BCE7B80
:1037D0008D736C6B6C6B6D6B4C6B2C632C632C63FF
:1037E0002C632C632C63EB62EB62EB62EB62EB62AB
:1037F000CA5AAA5AAA5AA95A684A684A8852484ACA
:10380000A5310321C1188010A110E218022143291B
:10381000A531C539A531E641E641E641C639C5398C
:10382000C539C539C5398531853185318531853110
:10383000843184318431A539A43184318431A43177
:10384000A439A439A431A439A43184318431A431F8
:10385000A4318431843184318431643164318431E0
:1038600084318431A439A439A439A439A439A439C0
:10387000A439A431A431843184318431A431A539EF
:10388000C539A539A431E539E539C539C539C53951
:10389000C539C539E539C539C539C539E541E541C8
:1038A000E541E541E541E64106420642064206425F
:1038B000E641E541E539E539E541E64106420642A2
:1038C000064206420642264A264A06420642064268
:1038D0000642064206420642064206422642264A60
:1038E000264A274A274A2642264A264A274A274A5C
:1038F000264A264A2642264A264A064A064A264A90
:10390000264A264A264A064A474A474A264A06423D
:10391000264A264A064A475247524752474A474A8A
:10392000474A474A6752474A6852885288528852E3
:10393000474A684AC95AA952A952C952CA5AA952F1
:10394000884A884AC9520A5B0A5BA952684AA95246
:103950000A632B63EA5ACA5A2C6BAD73AE7B0B63B6
:10396000695289520B636D73EF830F84EF83308C40
:103970009194308C6C6B708C708C50842F842F845D
:103980005084508C508C508C708C508C2F842F8491
:10399000508450840F840F840F84EF7BCE7BCE7BCA
:1039A0000F840F84EF7BEF7BCE7BCE7B0F840F8465
:1039B000CE7B8D6B4C6BAD736D6B4C632C634C6B22
:1039C0004C6B4C6B2C6B2C632C632C6B2C6B0B6338
:1039D000EB62EB62EA5AA952A952A952A952484A8B
:1039E0008531E218A110C218A11081104008A11061
:1039F0002321A531C539C639E639E639E641E64124
:103A0000E64106420642C539C539C539A539A53949
:103A1000A531A531A531A5398531643164318431B1
:103A20008431A5398431A539843184318431A43974
:103A3000A43984316331643163316331633163317B
:103A4000843184318431A431A431A439A439A43916
:103A5000A439A439A4398431843184318431A4391E
:103A6000C539A4398431C539C539C539C539C539D0
:103A7000C539E539E541A439A439C539C539C53950
:103A8000C539C539C539E541E54106420642064218
:103A9000E641E541E539C539C539E541E64106422A
:103AA000064206420642264A26420642064206428E
:103AB000064206420642E641064206422642264A9F
:103AC000274A274A274A264A264A474A474A474A10
:103AD000474A264A264A264A064A06420642064AD5
:103AE000264A264A264A264A67524752064A06422C
:103AF000264A474A264A88526752475247526852D6
:103B00006852674A474A474A274A0642474AEA5A9A
:103B1000C95A684A684AA9528852A952C95AA95230
:103B2000684A684AA952A952EA5A2B630A63885222
:103B3000684AA9522B63EA5ACA5A2B63CE7B0F8478
:103B40008D732B632B630B632C6B0B63EA5A0B6334
:103B5000AE73308C508C50847084918C918C5084D6
:103B60000F7C308491949194918C918C718C718C98
:103B7000718C718C718C508C30840F840F840F8405
:103B80000F840F840F842F840F840F7C0F840F8485
:103B90000F7CCE7BAE73CE73AE73AD738D738D73AE
:103BA0008D738D738D738D738D6B6D6B4C6B4C6BD7
:103BB0002C632B630B630B63AA52A952CA5A684A3F
:103BC0006529C218A210A110A11081108110A110A6
:103BD000C210E218E3188431A531E6390642E6390D
:103BE000E63906422742E639E639E639E639C5398B
:103BF000C539A531C53965318539A639A639A63902
:103C0000A53985316431A539643164318431843119
:103C100063316331A4398439843163316331633171
:103C200084318431843984318431843184398439D4
:103C3000A439A439A439833184318431A431A43125
:103C4000A431A431A431A439C539E539C539A43921
:103C5000A439C439E539A539C539C539A539A439D7
:103C6000A439A539C539E54106422642274A274AE3
:103C7000264A0642E641E539C539C539C539E54127
:103C800006420642264206422642264A264A064264
:103C900006420642264A06420642064206420642BC
:103CA000264A474A474A06422642264A264A264A82
:103CB00006420642064206420642264A264A274A4B
:103CC000474A474A474A264A474A674A474A264A8E
:103CD0002642264A474A264A67528852474A474A56
:103CE000474A674A474A264A264A274A474A474A8E
:103CF00068528852A9526852684AA852EA62E95A40
:103D00006852674AA852A952C95AC95AA95A885230
:103D10008852A95AE95AA95AA95AA95AEA626C734F
:103D2000CE7BAD732B636C6B8D73CE7BCE7BAD7313
:103D30008D738D73AE735084B18CD294918C30841A
:103D40005084708C708C50845084508C508C708C4B
:103D5000718C918C9194508C50842F840F840F849B
:103D60000F840F840F7C0F843084508C30840F8438
:103D7000EE7BEE7BEF7B0F84EE7BCE7BAE73AD7381
:103D80008D738D738D738D738D738D738D6B6D6B63
:103D90004C6B4C6B4C632C63EB5ACA5ACA5A484A58
:103DA0006429C218C218C218C210A210A210A21010
:103DB000A210C218C218E2184321A531E6392742E1
:103DC000274227420742E639E639E639063A0742F2
:103DD0000642E639A531A639A639C641C641A639FB
:103DE000853965316431E641A539A439A439A4394E
:103DF0008331A439C439843184316331633163310F
:103E0000633184318439843184318439843984390B
:103E1000A439A439A439843184318431A431A43142
:103E2000A431843184318431A439C539C539A439E8
:103E3000A439C439C539A539A539A539A439A43956
:103E4000A439A539C539E541E64106420642064294
:103E5000064206420642E641E541E541E539E539DB
:103E6000E541E641064206422642264A26420642ED
:103E700006420642264A0642E641E641E64106423D
:103E80000642264A264A274A274A474A474A474A75
:103E9000474A274A274A0642064226422642264ADF
:103EA000264A274A274A264A474A6752674A274AE4
:103EB000264A264A474A264A67526852474A474A8C
:103EC000675268526752885268526752674A674A17
:103ED000474A474A474A6852674A8852E95AC95A84
:103EE00068526752A85AA85AC95AC95AA95AA85218
:103EF000A852C95AEA62C95AC95AA95AA95AEA62C1
:103F00004B6B8C736C6B0A632B636C6B8D6B8D735B
:103F1000AD73CE73EE7B5084F294139D918C5084DC
:103F2000918C918C5084718C718C718C718C718C92
:103F3000708C708C508C708C508C508C5084308471
:103F40002F840F84EF7B0F84508C9194708C0F849E
:103F5000EE7B0F843084508C30840F7CCE7BCE7B04
:103F6000AE73AD738D73AD73AD73AD73AD73AD7370
:103F70008D736D6B6D6B6D6B2C630B63CA5A27422F
:103F80004421C218E318E318E218C218A210A210C4
:103F9000A210A210A210A110C11003218429E63999
:103FA0002742274227422742063AE639E639274286
:103FB0002742063AC639E741C741C741C641A6393B
:103FC000A53985398439E641C539A439A4398439FC
:103FD00083318331A4398431843184316331633155
:103FE0008431843184318431843184398439843911
:103FF000A439A439A439843184318431A431843181
:1040000084318431843184318431A439A439A43198
:10401000A431A539C539A539A539A439A439A4399C
:10402000A439A539A539E539E539C539C539C539C1
:10403000E539E541E64106420642E641E541E5391A
:10404000C539C539C539E6410642264A26420642E7
:1040500006420642264A0642E641E541E541E5417F
:10406000E64106420642274A274A474A474A474A04
:10407000474A474A474A264A264A264206420642B5
:104080002642264A264A474A675268526752474A9A
:10409000274A274A474A264A474A6752474A474AD1
:1040A000675288526852A85AA8528852885267525A
:1040B000474A474A264A6852474A6852A95AA85A64
:1040C00068528852A95AC95AC95AC95AA85A885214
:1040D0008852A95AE95AC95AEA62EA62C95AA95ADF
:1040E000EA624B6B8C732B632B632B630B630B6349
:1040F0000B630B632B63918C139D139DB194708C98
:10410000918CB18C718CB194B194B194B19491941F
:104110009194918C718C9194918C718C718C718C27
:10412000508C30840F840F84508C918C508C0F8471
:104130000F845084708C718C508C2F840F7CEF7B9B
:10414000EE7BCE7BAE73AE73CE73CE7BCE7BCE7B5F
:10415000AE73AD738D738D736D6B4C6BEB5A074201
:104160002421C218E318E318E318C218C210A210E1
:10417000A210A210A110A110A110A110E2182321D9
:104180008531E6392742684A47420642063A063AEE
:10419000074207420742C641C741C641C641C64120
:1041A000C639C639C639C641A539A53984398431DD
:1041B00084318439A4398439843984318431843117
:1041C000843184318431843184318431843184393F
:1041D00084398439843984318431A431A4318431DF
:1041E000843184316431633184318431A431843148
:1041F000A431A439C539A539A439A431A431A439CD
:10420000A439A439A439C539C539C539C539C53921
:10421000C539E539E54106420642E641E541E53961
:10422000C539C539C539E54106420642064206424E
:10423000E6410642264A06420642E641E541E5419C
:10424000E64106420642064226422642264A264ABF
:10425000474A474A474A474A474A264A0642064289
:104260002642264A274A674A675288526752474A77
:10427000474A474A474A474A474A474A474A474AB6
:10428000674A6752675288528852885288528852C9
:104290008852675267526852474A6752885288521A
:1042A00088528852C95AC95AC95AA95AA85288521A
:1042B00068528852A85A6852A95AEA62EA62C95AF0
:1042C000C95A0A632B6BAD738D736C6B6C6B6C6B23
:1042D0008D738D738D73F294F294139DF29CB2944E
:1042E000918C918CD294708C708C918C9194B294AE
:1042F000D29CF29CF39CB194B194B194B194B194DA
:10430000918C508C30840F843084508C2F842F8477
:10431000508C918C718C708C508C2F842F843084B5
:104320002F840F84EE7BCE7BCE7BEE7BEE7BEE7B11
:10433000CE7BCE7BCE7BAE73AD736D6BEB5A0742FB
:104340002421C218C218E318E218C218C218C210F9
:10435000A210A210A210A110C110A1108110A110D2
:10436000E2186429C531484A684A684A684A2742BF
:104370002742274227420742E741E741C741C63962
:10438000C639C639C639C639C539C539A539A53979
:10439000C539E539E541A439A439A431A431A431A2
:1043A0008431843184318431843184318431843165
:1043B0008431843184318431843184318431843155
:1043C00084318431643163316431843184318431A6
:1043D0008431A439A539A539A43984318431A4396B
:1043E000A439A439A431A439A539C539C539C53989
:1043F000C539C539C539E541E541E541E541E54105
:10440000E539C539C539E539E64106420642064275
:10441000E6410642264A2642064206420642064235
:104420000642064206420642064206422642264A04
:10443000474A474A474A6752474A474A264A264A0E
:10444000264A474A474A674A675268526752675244
:10445000674A474A474A6752674A474A474A474A6C
:10446000474A474A474A474A674A685288528852E9
:10447000A852A852885288526752674A6852885296
:104480008852A852A95AA95AA85AA85A885288529A
:104490008852A85AA95A474A6752A95AC95AC95AAA
:1044A000A95AA95AC95A0A630A630B634B638D6BF5
:1044B000CE73EE7B0F7C139DF294F294139DD294F5
:1044C000918CB194F39C718C718C718C9194B1949A
:1044D000B294D29CF29CB294B294B294B294B2943C
:1044E000B194918C708C2F8430842F840F7C308415
:1044F0009194B194718C508C508C3084508C718C10
:10450000718C508C0F840F840F840F7CEF7BEF7BBA
:10451000EF7BEF7BEF7BCE7BCE7B8D6BEA5AE7396F
:104520002421C218C218E218E218C218C218C21810
:10453000C218C210C210A110C110C218C11081103F
:104540008110C2180221A53107428852C952A952CE
:10455000684A47422742484A284A284A0742E741D0
:10456000E741C641C639C539C539C539A539C53947
:10457000E541E641E541A539A539A539A539A53972
:10458000A43984318431843184318431843184315B
:104590008431843184318431843184318431843173
:1045A00084318431843164316431843184318431A3
:1045B0008431A431A439A539A43184318431A431A2
:1045C000A439A4398431A431A439C539C539C539D0
:1045D000C539C539C539E539E539E541E541E54133
:1045E000E541E539C539C539E54106420642E641AE
:1045F000E6410642264A264A26420642064206422C
:1046000006422642264206422642264A474A474A50
:10461000474A474A474A6752674A474A474A474ACA
:10462000474A474A474A474A674A6752675267526A
:1046300067526752675288526752474A474A474A09
:10464000474A474A474A674A6752685288528852DF
:104650008852A852A85288526852675267528852AC
:104660008852A85AA85AA85AA85AA85AA85AA95A61
:10467000C95AE962EA62A95A88528852A95AC95AA3
:10468000C95AC95AEA62C95AC95AC95AC952CA5AF0
:10469000EA5A0B5B0B63139D139D139DF294D29406
:1046A000D294F29CF39CD294B1949194718C718CBD
:1046B000918C9194B194B294B294B194B294B29416
:1046C000B2949194918C3084508C30840F7C2F84E0
:1046D0009194B194718C708C508C708C9194D29414
:1046E000B294718C3084508C30842F840F840F846A
:1046F0000F840F842F842F84EF7B6D6BAA52C639F1
:104700002321E218E318E318E318E318E218C218AB
:10471000C218C210A210A110C218E218C218C2100A
:10472000A11081108110E2184429E639484A8952C3
:104730008952894A8952895269526952484A284A9B
:10474000074A07420742C539E641E641C539C5393E
:10475000E641E641C539C539C539C539C539C53917
:10476000A539A5398431843184318431843184314F
:1047700084318431843164316431843184318431D1
:1047800084318431843184318431643184318431A1
:10479000843184318431A539843164318431A43148
:1047A000A439A4318431A439A439A439A439A53950
:1047B000C539C539E539E539E539E541E541E54131
:1047C000E539C539C539C539E539E6410642E6411D
:1047D000E6410642264A264A26420642064206424A
:1047E0000642264A264A0642264A474A674A6752EE
:1047F000674A474A474A474A474A474A474A474A11
:10480000474A474A474A474A474A474A674A6752D8
:10481000685268526752A85A6752474A674A6752B5
:10482000474A474A675268526852685268528852EB
:10483000885288528852A8528852685268528852C8
:10484000A85AA85AA852C95AC95AA95AA85AC95AFC
:10485000C95AE962E9620A63C95AA95AC95AC95AC6
:10486000C95AE95A0A636C6B6C6B4B6B2A63CA5A60
:10487000A952A952A952F29454A5339DB18C918C9E
:10488000139D339DF29CB194B194918C718C718C79
:104890009194B294D29CB194B1949194B194B29405
:1048A000B19491949194508C718C708C0F842F845E
:1048B0009194B194718C718C708C918CB294F29CA7
:1048C000F29C9194508C718C708C50842F840F8446
:1048D0002F8430845084508CEF7B4C6B694AA53117
:1048E0000321E318E318E318E318E318E318C218E8
:1048F000C210A210A210C218C218C210C218C21848
:10490000C218A11081108108A1102321A5312742CE
:104910008952CA52CA5A89526952695269526952B5
:104920004852484A484AE641274A274A0642064230
:10493000274A0642E641C539C539C639C639C5399F
:10494000C539A539A539A539A539A539A539A53957
:10495000A539A539A5396431643164318431843194
:10496000843184318431843184318431843184319F
:10497000843184318431A539843164318431A43166
:10498000A439A4318431A539A439843184318431E6
:10499000A439C539E541E541E541E541E541E54158
:1049A000C539C539A539C539C539E641E641E541BD
:1049B000E6410642264A06420642064206420642B0
:1049C0000642264A264A06422642474A675267520C
:1049D000474A274A264A274A274A474A474A474AD0
:1049E000474A474A474A274A274A474A474A675257
:1049F000885288526852A85A6752474A675288526A
:104A000068526852885268526852675267526852B8
:104A100088528852A852A85AA8528852885288525E
:104A2000A85AA85A88520A63E95AC95AA85AA85AD1
:104A3000A85AA85AA85AC95AA85AA85AC95AA95A23
:104A400088528852A95AEA5A0A632A630A5BEA5AC8
:104A5000C95AEA5A2B6354A5139DF294F29C139DF4
:104A6000F29CF29CF39CD294B194D29CD29C918CF7
:104A70009194B2949194F29CF29CD29CF29CF29C00
:104A8000F29CD29CD294B194918C508C508C708CAE
:104A9000718C708C508CB294B294B1949194919426
:104AA000B194718C3084B294918C508C3084508449
:104AB000508430842F8430840F7C6C6B484A652985
:104AC0000321032123210321E218E21803210321FA
:104AD000E218C218E318E218C218C210C210C210BD
:104AE000C218C210A210A210A110A210E2184429EC
:104AF000073AA9520B63CA5AA9528952A95289523C
:104B0000484A484A8952484A484A6852684A484A84
:104B1000474A274A274AE641E639C639E64107426D
:104B20000742E639A539C639A539A539C639C63986
:104B300085318531A539A539A539A539A539A539D5
:104B4000A539843164316431643184318431A539CB
:104B5000A539A5398431A439843184318431843133
:104B600084318431643184318431A439A439A4314D
:104B70008431A439A539C539C539C539E539E54187
:104B8000E64106420642A539C539C539C539E54170
:104B900006420642264A274A264206420642064264
:104BA00026420642E5410642064206422642274A7E
:104BB000474A675288526852675267526752474A5B
:104BC000474A264A264A274A474A474A675268526E
:104BD0008852885268526852885288526752675287
:104BE000885288526852885267528852A95AA95AE4
:104BF00088528852A85AA8528852885268528852BD
:104C00008852A95AC95AE962C95AA95AA95AC95A0D
:104C1000C95AC95AA95AC95A88528852C95AC95A2E
:104C20008852A852E95A674AC9524B638C6B2B636E
:104C3000A952A952EA5A54A5139DF294F29C139DCD
:104C4000139D139D339DD29CD294F29CF29C91941F
:104C5000918CB194918CB294D29CF29CF29CD29C97
:104C6000D294D294D29CD294B194918C718C708C49
:104C7000708C708C508C718CB294D29CB194919445
:104C800091949194918CD29C9194708C508C508C76
:104C9000508C30842F842F84EF7B4C6B484A6529DD
:104CA0000321032103212421031903192421242191
:104CB000E318E318E3180319E318C218C218C2185E
:104CC000C218C218C218C218C218A210A110C21865
:104CD0004429073A8952CA5ACA5AAA5A8952AA5A20
:104CE000EB62CA5A8952684A685269526852684AE5
:104CF000484A484A684A2742074206420742274A2A
:104D00002742E641C639E639C539C539E639C639DB
:104D1000A539A531A539A539A539A539A539C5398B
:104D2000C539A539843184318431843164316431A9
:104D3000843184318431A439A43184318431843183
:104D4000A431843184318431A431A439A439A43903
:104D5000A431A439A539C539C539C539C539E539AD
:104D6000E539E541E541C539C539C539C539E541BB
:104D7000E64106420642274A264206420642264AA3
:104D8000264A064206420642064206422642264A73
:104D9000474A674A6752674A674A6752675267528B
:104DA0006752674A674A474A474A474A67526752C3
:104DB0006852885288528852A85288526752675265
:104DC000885288526752885288528852A95AC95AC2
:104DD000A8528852A95AA85AA85AA852A852A85A02
:104DE000C95AC95AE95AC95AC95AA85AA95AC95ACC
:104DF000C95AC95AC95AC95A88528852E95AE95AED
:104E0000A8528852C95AE95AA852A9520A5B4B6B58
:104E10004B630A63EA5A339DF294D294139D139D17
:104E2000339D33A554A5D29CD294F39CF39CB194AA
:104E30009194B2949194718CB294F29CF29CB2943D
:104E40009194B194D29CD29CD29CD294B194718C06
:104E5000708C708C708C2F849194D29CB194708CD7
:104E6000708C9194D294F29CB2949194718C718CC8
:104E7000708C50842F840F84CE7B2B63274264294F
:104E800003210321232144292421242144294429C5
:104E900024210319E31823210321E318E318E3185D
:104EA000E318E218C218C218E218E218A210811022
:104EB000A2102421A5316952EB620B63CA5ACA5A67
:104EC0002C6B2C6BCA5AA952AA5AAA5A89528952D7
:104ED000895289528952484A484A484A484A484A67
:104EE000484A0742E741E641C639C639E641E63954
:104EF000C639C639C639A539A539A539C539C5391F
:104F0000C539C539A539C539A5398531643164310B
:104F1000643184318431C539A43984318431A43178
:104F2000A439A539A539A431A439A539A439A4399E
:104F3000A439A439C539C539C539C539C539C539C3
:104F4000C539C539C539C539C539C539C539C53971
:104F5000E541E6410642264A264206422642264AC4
:104F6000274A274A264A2642064206422642264A1F
:104F7000274A474A474A474A474A674A6852885237
:104F8000885288528852474A474A474A674A675276
:104F9000675288528852A85AA85A88526752685253
:104FA00088528852474A885288528852A95AC95A08
:104FB000A85AA85AC95AA85AA852A852A852A852E0
:104FC000A852A85AA85AC95AA85AA85AA85AC95A97
:104FD000C95AC95AC95AE962A85AA852E95A096372
:104FE000C85A8852A8522A63A952674AA9522B6309
:104FF0006C6B2B63EA5AF29CD294D294139D33A526
:1050000033A5139D139DF29CD29413A513A5D2949E
:10501000B294F29CB294718CB194D29CF29CD294D2
:10502000B294B294D29CD29CF29CF29CD29C919469
:10503000718C718C91940F84718CB2949194508C7A
:10504000708C9194B294D29CB294919491949194D6
:10505000918C508C30840F84AE73EB5A073A4429FC
:10506000242124212421652964296529853185315C
:10507000652924210321442924210321032103211B
:105080000319E318E218C218E31803210319C21820
:10509000A210C210C218853169522C6B2C6B0B63A5
:1050A0000B632B630B630B630B63EB62CA5AAA5A45
:1050B000AA5AAA5ACA5A895289528952895289527D
:1050C0006852484A274207420742E741E741E64122
:1050D000E641E641E641C639C539C539C539C53964
:1050E000C639C539A539E641C539A539A53985314E
:1050F000A539A539A539A539A4398431843184313C
:10510000A539C539C539A431A439A439A439A43184
:10511000A431A439A539C539C539C539C539C53909
:10512000C539C539C539E539C539C539C539C5396F
:10513000E539E541E54126422642264A264A474AC4
:10514000474A474A474A26422642264226422642A4
:10515000264A264A264A274A474A674A68528852B8
:105160008852A852A85A6752674A474A474A674A2C
:10517000675268528852A95AA85A88526752885270
:10518000A85A8852474A885288528852A852A85A28
:10519000A85AA85AA95AA95AA95AC95AA95AA85ADA
:1051A000A85288528852A85AA85AA85AA85AC95A26
:1051B000C95AC95AE95AE962C85AA85AE962096340
:1051C000C95AA8528852EA5AE95AC952C952C95A08
:1051D000EA5A0A5B2B63D294D294D294339D34A5BD
:1051E000139DF29CD29433A5139D34A534A5D29C73
:1051F000D29CF39CD29C9194B194B294D29CF29C98
:10520000F29CD29CD29CB294D29CF39CF29CD294FD
:10521000B194B194B294708C9194B194918C718C3E
:105220009194B194B194B194919491949194B194D6
:10523000B194718C508CEF7B8D73CA5AE639442936
:1052400044296429642985318531A531A631C639BF
:10525000C639853144296529442924212421232163
:10526000032103210319E318E31803190321032180
:10527000E318C2108110C2188531694A2B634C6B48
:105280002C6B2C634C6B4C6B4C6B4C6B0B63EB5A69
:10529000CA5ACA5AEA5AAA5AAA5AAA52AA52A95287
:1052A0008952694A484A284A284A284207420742FE
:1052B0000742074207420742E641E641E641E6412E
:1052C000C639C639C539C639C639C639C639C539E8
:1052D000C539A539A539A539A43984318431A4311A
:1052E000A539C539C5398431A439A439A4398431E3
:1052F0008431A431A439A439A439A539C539C539B3
:10530000C539C539E539E541E541E539C539C5391D
:10531000C539E539E54106422642264A274A474A29
:10532000474A474A6752264A264A264A264A264A72
:10533000264A26422642474A474A474A6752685207
:1053400088528852885267526752674A474A474A8A
:10535000675267526852A85AA85A885268528852AF
:10536000A85A885267526752885288528852885287
:10537000A852A85AA85AC95AC95AE962E962E96208
:10538000E95AC95AC95AA852A85AA85AA85AA95A91
:10539000C95AE95AE962E962C95AC85AE962096315
:1053A000E95AA8528852C95AE95A0A63EA5AC952B4
:1053B000C95A0A5B4B63D294D294D294139D33A5FD
:1053C000139DD294D29474AD34A554AD54A5D29CFF
:1053D000D294F29CD29CB294B194B194D294F29CA7
:1053E000139DF39CF29CB294D29CF29CF39CF29C91
:1053F000D29CD29CD29CB294B294B1949194B19428
:10540000D29CD29CB1949194918C9194B194B29489
:10541000B194718C508CEF7B8D6BAA52C639652983
:105420006529A531A531A631C639C639E7392742E4
:105430002842E739A631A6318531652964294429F6
:1054400044292421242124210321E318E3180319EA
:105450000321E318C218C218C2184429684A4C6BC9
:105460008D736D6B4C6B8D738D736D734C6B2C6387
:105470000B630B630B63EB5AEA5AEB5AEA5ACA5AAC
:10548000AA528952895289528952694A484A284205
:10549000484A484A2842484A274A074207420642A1
:1054A0000642E641E641C639C639C639C639C6396B
:1054B000C639A539A539C539C539A439A439A5399D
:1054C000C539C539C539A439A439A539A439A43198
:1054D0008431A431A439A431A439A439C539C539DA
:1054E000C539E541E541E541E541E541E539E539C4
:1054F000E539E541E54106422642274A474A474AFF
:10550000474A474A6752264A264A264A274A264A8F
:10551000264A264A2642474A474A474A675267521E
:10552000675267526752675267526752674A674AC3
:10553000674A675267528852A85AA85A88528852B6
:10554000A852A85A885267526852885267526852C5
:10555000A852A85AA85A8852A852C95AC95AE962E8
:10556000EA620A630A63A85AA95AC95AC95AC95AA7
:10557000C95AE95AE962E962E962E962E962E96203
:10558000C95AC85AA85AE95AE95AE95AE95A0A5B63
:105590002B632B632A63F29CD294D294F294139DD2
:1055A000F39CF29CF29C54A533A534A533A5D29C60
:1055B000D29C139DF29CB194B194B294D294D29C9B
:1055C000F29C139D13A5D294D29CF29CF39C13A53C
:1055D000F39CD29CB294B294B294B1949194B2944C
:1055E000F29CF29CB294718C718C918CB194B294B7
:1055F0009194708C3084EF7B6D6B8952C639853104
:10560000A631C639E639E739073A07422842694ADE
:10561000AA52694A2742E739E639C631A6318531AF
:10562000853165296529442924210321032103218A
:10563000032103210321E318C218C2186429484A30
:105640002B636D6B6D6B8D738D738D736D734C6B85
:105650002C6B2C632C630B630B630B630B630B636F
:10566000EB5ACA5ACA5ACA5AEB5ACA5A6952694AB2
:1056700069526952484A69526852484A274A274A39
:10568000274A274A274A074207420642E641E6419F
:10569000E641C639C639E641E539C539C539E53986
:1056A000E539E539C539C539C539C539C539A539EA
:1056B000A439A539C539A539A539C539C539C5397B
:1056C000C539E539E539E641E641E541E541E541E0
:1056D000E541E641064206422642274A474A274A12
:1056E000274A474A6752264A264A274A474A474A8C
:1056F000274A264A264A474A474A674A6752675214
:1057000067526752675267526752675267526752D1
:105710006752674A474A6852A85AC95A885268521B
:105720008852A85AA95A67528852885267526852BA
:10573000A85AC95AA85A685288528852A85AC95AAF
:10574000C95AC95AE95AA95AC95AC95AC95AC95A41
:10575000C95AE9620963C95AE96209630963E95AE6
:10576000C85AC95AE95AE95AE95AE95AC952E95A8A
:105770000A632A630A5B139DD294B194D294F29C7B
:10578000139D139D33A5139DF29C13A513A5D294CD
:10579000F29C34A533A5918CB194D294D294B19457
:1057A000D294139D34A5D29CD29CD29CF39C13A579
:1057B00013A5D29CB194919491949194718C9194ED
:1057C000D294D29CB294718C718C9194B194B19416
:1057D0009194508C0F84EF7B6D6B8952C639853163
:1057E000C639073A0742074228422842494AAA5284
:1057F000EB5ACA5A694A28420742E739C639C639BC
:10580000C631A631853124214429652965294429D9
:10581000232103210321E31823210321A2180321BB
:10582000484A4C6B8D738D738D738D738D736D6B57
:105830004C6B4D6B4C6B0B632C632C6B2C6B2C6388
:105840000B63EB5AEB5A0B630B63EB5AAA52895268
:10585000AA52AA528952895288526852684A68529A
:105860006852685268526952684A284A0742074299
:10587000E641074207420642E641E641E641E6418B
:10588000E641E641C539C539C539E641C539C539AD
:10589000A539C539C539C539C539C539C539C53938
:1058A000C539C539C539E641E641E541E541E6413D
:1058B0000642064206420642264A274A474A264AE6
:1058C000264A474A674A264A264A274A474A474AB3
:1058D000474A274A274A474A474A674A6752675210
:1058E00067526752675267526752685268526752EE
:1058F0006752474A474A674AA85AC95AA852685243
:105900008852A95AC95A6752885288526752885297
:10591000A95AC95AA95AA95AA95AA95AC95AC95A0F
:10592000C95AC95AC95AC95AC95AE95AC95AC95A3F
:10593000C95AE9620A63C95A09632A630963C95AE1
:10594000C85AE95A0963A8520A630A63C952684AE5
:105950008852C95AEA5AB194D294F294F294D294E9
:10596000D294D294F29C13A5139DF29CD29CD29C0B
:10597000F3A413A5F39C139D708C33A533A5D29C7F
:10598000139DB29433A5F39C139D139DF39CF39C3C
:10599000139D33A554A5D294F29CD29491949194E2
:1059A000D29C139DF29C9194B294D294D294D294AE
:1059B000B1945084CE7BEE7B4C63694AC739A631E3
:1059C000E73907420842284228422842494AAA5257
:1059D000EB5AEC5ACB5A8A52694A484A2842074243
:1059E000E739E639C639A631A531853164296429FC
:1059F00044294421232123210321032103210319C5
:105A00002421484A8D6BAE738D73AD73CE7BCE7BF4
:105A1000AE738D738D738D6B2C632B636C6B6C6BA2
:105A20002B630B634C6B2C634C6B4C63EB5ACA5A65
:105A3000CA5ACA5ACA5ACA5AA9528952A95289522A
:105A4000684A484A89526952684A684A484A484AF4
:105A5000274227422742274A274A07420742274A26
:105A6000274AE641C639A539C539E6410642E6412D
:105A7000C539E641274AE641E641E641064206428B
:105A8000C639C539C539E641E641E641E641064237
:105A90000642064206420642064A274A274A274A43
:105AA000274A474A474A474A274A274A274A064A2F
:105AB000E641E641264A474A474A474A674A674A13
:105AC00087528852A852A852A852885287528752A9
:105AD0006752675267526852885288528852885279
